:020000021000EC
:10B0000000400020EDFA01002DFB01002FFB0100A4
:10B010000000000000000000000000000000000030
:10B0200000000000000000000000000031FB0100F3
:10B03000000000000000000033FB010035FB0100B0
:10B0400037FB010037FB010099FE010037FB0100CF
:10B0500037FB01000000000037FB010037FB010057
:10B0600037FB01007D04020037FB010037FB0100C4
:10B0700037FB010037FB010037FB010037FB010004
:10B0800037FB01006902020037FB010037FB0100BA
:10B0900037FB010037FB010039D6010037FB010007
:10B0A00037FB010037FB010000000000000000003A
:10B0B0000000000000000000000000000000000090
:10B0C00010B5064C2378002B07D1054B002B02D07E
:10B0D000044800E000BF0123237010BDE8220020D7
:10B0E00000000000BCB60200044B10B5002B03D0DA
:10B0F0000349044800E000BF10BDC0460000000046
:10B10000EC220020BCB60200164B002B00D1144BE1
:10B110009D46402292029A1A924600218B460F4683
:10B120001348144A121A0BF0A4FE0F4B002B00D048
:10B1300098470E4B002B00D09847002000210400B8
:10B140000D000D48002802D00C4800E000BF0BF0B5
:10B15000FBFD2000290005F0C3F80BF0CFFDC04631
:10B160000000080000400020000000000000000077
:10B17000E8220020942D00200000000000000000C4
:10B1800010B5040002F014FDC6235B00E058043340
:10B19000E3581430C01A142108F014FE080010BD42
:10B1A00008B4034B9C46034BC01A08BC6047C0461A
:10B1B00081B101007801000010B5040002F0F8FC34
:10B1C000C823C6225B005200E358A258934204D021
:10B1D000E4189534FF34207810BD01204042FBE78D
:10B1E00008B4034B9C46034BC01A08BC6047C046DA
:10B1F000B9B101007801000070B50400C82502F063
:10B20000D7FCC6236D005B006059E358984209D013
:10B210000130142108F0D6FD615164189534FF34D3
:10B22000207870BD01204042FBE7000008B4034BCA
:10B230009C46034BC01A08BC6047C046F9B10100E8
:10B240007801000010B502F0DCFC10BD70B5040000
:10B250000D0002F0ADFC87239B00E01802F050FBCC
:10B260000026B0420FD0D4214900635801365A1C41
:10B27000E318AD33FF3362501D70142A03D12368E5
:10B280002000DB6E9847300070BD000008B4034B0F
:10B290009C46034BC01A08BC6047C0464DB2010033
:10B2A00078010000F7B5040002F048FE2300FA22FE
:10B2B00000257933FF3392005D609A60394B260098
:10B2C0002360394B394A6360394BC136A360230090
:10B2D000FF36FC33DA673000364902F0FCFE20000E
:10B2E000354FC9303900354AFF3002F02FFB2300BB
:10B2F000E133FF330193042214233149019802F012
:10B30000D3FA81239B003900E0182E4A02F01EFB7D
:10B3100087239B00E018102214232B4902F0C4FA63
:10B3200090239B00294A3900E01802F00FFBD42338
:10B330005B00E550183BE550043BE550043BE5500D
:10B34000234B310020001C6002F0A9FD2100CD310B
:10B35000FF31200002F0A3FD300002F01AFA0100D4
:10B36000200002F031FC2100E5312000FF3102F025
:10B3700096FD82239B00E118200002F090FD154A03
:10B380002900019802F0CCFA88239B00E1182000E4
:10B3900002F085FD91239B002000E11802F07FFD63
:10B3A0002000FEBD109D0200909D0200D09D020075
:10B3B000A89D0200589C0200829C02007D9C020015
:10B3C000879C0200AC9C0200C69C0200EB9C020021
:10B3D000042300203DB401000FB410B5029802F020
:10B3E00039FC10BC08BC04B0184710B5040004F0C8
:10B3F00015FFC4235B00E3586433984203D32368EA
:10B400002000DB6E9847200002F0D2FB10BDF8B59B
:10B41000C62705000C008E187F00B4420CD0EB59F3
:10B420001421581C08F0CEFCE95169182378953195
:10B43000FF310B700134F0E7F8BD0000094B70B527
:10B440001D680B680C000800DB689847236806003D
:10B450001B6920009847310002002800FFF7D7FF42
:10B4600070BDC0460423002070B5D4256D0042593C
:10B470000400002A12D001008723AD319B00C018C0
:10B48000D2B2FF3102F0F9F904F0C8FEC4235B0028
:10B49000E05000232000635102F08AFB70BD0000E1
:10B4A00008B4034B9C46034BC01A08BC6047C04617
:10B4B00069B4010078010000144B10B50360144B0F
:10B4C000144A4360144B040083600300FC33DA67C2
:10B4D00090239B00C01802F02BFA87239B00E018F2
:10B4E00002F0B4F981239B00E01802F021FA200059
:10B4F000E130FF3002F0AAF92000C930FF3002F03D
:10B5000017FA200002F0D0FC200010BD109D0200B0
:10B51000909D0200D09D0200A89D020010B504007D
:10B52000FFF7CAFF200004F0EFFE200010BD00006E
:10B5300010B5024802F0FEF810BDC046E82C00200D
:10B5400010B5024802F008F910BDC046E82C0020F2
:10B5500010B5024802F001F910BDC046E82C0020E9
:10B5600010B5024802F0D8F810BDC046E82C002003
:10B5700010B508300EC8024802F0D6F810BDC0461B
:10B58000E82C002010B5024802F0D3F810BDC046E8
:10B59000E82C002010B5024802F0C5F810BDC046E6
:10B5A000E82C002010B5164CA14208D8802189044F
:10B5B000013A0160511E8A418260037110BD114C35
:10B5C000A14202D88021C904F2E70F4CA14202D85F
:10B5D00080210905ECE70D4CA14202D880214905E4
:10B5E000E6E70B4CA14202D880218905E0E7094C2F
:10B5F000A14202D88021C905DAE780210906D7E7F0
:10B6000048E8010090D0030020A1070040420F004D
:10B6100080841E0000093D00F0B587B000900479D9
:10B62000042C3BD0032C3BD0022C3BD0013C63428A
:10B630005C411F4B64421C40E418009B02275B796D
:10B640000193009B9B79002B0AD00027012B07D088
:10B650000337022B04D0033B1F007B1E9F410137A1
:10B6600003AD3B00002221002800FFF79BFF2A00CA
:10B67000009B083343CA43C3009E019B0836012B3D
:10B6800012D13B00002221002800FFF78BFF0ECDD6
:10B690000EC6084802F024F807B0F0BD064CCCE70F
:10B6A000064CCAE7064CC8E73B000122EBE7C04660
:10B6B00040420F00E82C00200024F40000127A0021
:10B6C00000093D0010B5040004F010F8054B2000FF
:10B6D000083323608023DB05A3600023236102334A
:10B6E000237310BDE89D0200002310B51A00190055
:10B6F0000148FFF7E7FF10BD08230020BFF34F8F7D
:10B70000034B044ADA60BFF34F8FC046FDE7C046E3
:10B7100000ED00E00400FA050120704701207047A9
:10B720000120704732207047704710B5040004F0C4
:10B73000EBFD200010BD000010B504001A0004F05D
:10B7400003F8044BA21D23600023D377E21D2000E1
:10B75000D37710BD309E020070B504001A491B4813
:10B7600004F08CF8206A03681B6A9847236820005D
:10B770009B6F9847206A302103681B689847050033
:10B78000206A002103681B68984701200138C046E1
:10B79000C046C046C046C046C046C046C046C04679
:10B7A000C046C046C046F1D123682000DB6F9847F1
:10B7B000206A03685B6A9847642004F047FD681EAE
:10B7C0008541E8B270BDC046219E02001C2D0020BC
:10B7D00070B5012603250400831DDE77C31DDD77C8
:10B7E000E622002103F0C0FF31004022200003F0D8
:10B7F000BBFF06220221200003F0B6FF29008422AD
:10B80000200003F0B1FF70BD70B5050003F078FFB4
:10B81000041E0AD02800FFF79FFF054904000548D1
:10B8200004F02CF82800FFF7D3FF200070BDC046BD
:10B830001C9E02001C2D002070B50126032504006B
:10B84000831DDE77C31DDD77E722002103F08CFF27
:10B8500031004022200003F087FF06220221200051
:10B8600003F082FF29008422200003F07DFF70BDD9
:10B8700070B50400006A0D0003681B6A98472368CE
:10B8800020009B6F98470221206A294303681B68A8
:10B890009847206A002103681B68984705002368C1
:10B8A0002000DB6F9847206A03685B6A984728008E
:10B8B00070BD39DF70473ADF704748DF70474DDFB2
:10B8C0007047000070B50C4C0C49200003F0D6FF07
:10B8D0000B4D01212800FFF7CBFF0A2201002000B9
:10B8E00004F01DF828000221FFF7C2FF0A22010020
:10B8F000200004F014F870BDE827002018A302000F
:10B90000C82A002010B50400024B036001F09EFF1E
:10B91000200010BDECA6020010B50400024B03602D
:10B92000FFF7F0FF200010BD189F020010B50400C3
:10B93000FFF7F2FF200004F0E7FC200010BD00003C
:10B9400010B50400024B0360FFF7E6FF200010BDB6
:10B95000489F020010B50400FFF7F2FF200004F03A
:10B96000D3FC200010BD000010B50400024B0360A2
:10B97000FFF7C8FF200010BDB89E020010B50400FC
:10B98000FFF7F2FF200004F0BFFC200010BD000014
:10B9900010B50400024B0360FFF7E6FF200010BD66
:10B9A000E89E020010B50400FFF7F2FF200004F04B
:10B9B000ABFC200010BD10B50400FFF7A3FF200072
:10B9C00004F0A2FC200010BD13B56B46DC1C002364
:10B9D00023702378032B09D82000FFF76AFF002883
:10B9E000F7D000221100FFF789FEF2E7042101A839
:10B9F000FFF761FF002803D000221100FFF77EFE51
:10BA0000019816BDF0B58DB0FFF7DEFF04002D4E96
:10BA10002D49300003F032FF21000A22300003F0EC
:10BA200094FF2A4F03AD2200390028000CF0BCF827
:10BA30002900300003F022FF254C2B7823706B780F
:10BA40006370AB78A370EB78E3702B7923716B791B
:10BA50006371AB79A371EB7906ADE371FFF7B4FFC6
:10BA60000A2201900100300003F06FFF019A3900B3
:10BA700028000CF099F82900300003F0FFFE2B7825
:10BA8000210023726B7809A86372AB78A372EB78FC
:10BA9000E3722B7923736B796373AB79A373EB79BF
:10BAA000E37304F06CFA09A9300003F0DDFE09A885
:10BAB00004F01DFA10222100064801F0DEFE0DB050
:10BAC000F0BDC0461C2D00200BA202001BA20200EC
:10BAD00096200020EC28002070B594B007AD10220D
:10BAE000002128000BF0C5F900223C49535CAB54FF
:10BAF0000132102AFAD13A4E2900300010300BF0F2
:10BB00009CF93000FFF7DBFE364C3749200003F08C
:10BB1000B5FE0023F218127CEA540133102BF9D140
:10BB200029000BA804F02BFA0BA9200003F09CFEBF
:10BB30000BA804F0DCF92D49200003F09FFE002340
:10BB4000F25CEA540133102BFAD129000BA804F05F
:10BB500016FA0BA9200003F087FE0BA804F0C7F922
:10BB60002349200003F08AFE00252B002033F25CDD
:10BB700068000BAB18181F4901350CF015F8102D93
:10BB8000F3D10BA904A804F0FAF904A9200003F0EA
:10BB90006BFE04A804F0ABF9174D0BA92022280076
:10BBA0000BF04BF900226B1C144904A8DA7704F05F
:10BBB000E6F9290001A804F0E2F901A904A804F0BB
:10BBC000DDFA0100200003F04FFE01A804F08FF918
:10BBD00004A804F08CF914B070BDC0469620002073
:10BBE000382400201C2D0020DBA10200E6A1020069
:10BBF000EFA10200F6A10200402C0020FBA10200F0
:10BC000070B506000D000024B4420CDA01211220A8
:10BC100004F09EFC280004F019FB0021122004F01F
:10BC200097FC0134F0E770BD70B505000D4C0E496E
:10BC3000200003F0F3FD280001F0C0FD010020000A
:10BC400003F01CFE0022094B1A70FFF7DBFEFFF722
:10BC500043FF0122064BC82105201A70FFF7D0FFD1
:10BC600070BDC0461C2D002032A302001C23002002
:10BC70002829002070B505000C4C0D49200003F068
:10BC8000CDFD280001F09AFD0100200003F0F6FD33
:10BC9000C8210120FFF7B4FF0021064B0B201970CB
:10BCA000054B197004F054FC70BDC0461C2D0020DB
:10BCB0000CA402001C2300202829002070B50500D8
:10BCC000084C0949200003F0A9FD280001F076FD89
:10BCD0000100200003F0D2FDC8210120FFF790FFF2
:10BCE00070BDC0461C2D002072A50200A02210B518
:10BCF0000124114BD2009C50104A11489958084019
:10BD0000802189010143FF20995099580002084081
:10BD10006921014399500B491C604A68002AFCD0F4
:10BD200000224A60A121C900585801215960A02170
:10BD3000C90000B25A5010BD007000400405000058
:10BD4000FF00FFFFFC700040F7B500AF7A606A4665
:10BD5000CB1DDB08DB00D31A9D467B680400DA1795
:10BD6000981850400D0008F017F97B680E00002B62
:10BD700011DD6D1A6119320068460BF05EF82A0079
:10BD80002100A0190BF062F83200694620000BF088
:10BD900054F8BD46F7BD7B68002BFAD00A00AD1BF6
:10BDA000210068460BF049F8A1192A0020000BF089
:10BDB0004DF8601932006946E9E70000F7B50C005C
:10BDC00004F0DCFB431E98410B4DC3B20193019A72
:10BDD0002B5D93420DD004F021FA084FA600F359D1
:10BDE000C01A642802D96B461B792B5504F016FA49
:10BDF000B851285DFEBDC046942000206C24002070
:10BE000010B500210C2004F0A3FB01210D2004F04B
:10BE10009FFB10BD10B501210C2004F099FB0021FF
:10BE20000D2004F095FB10BD10B500210E2004F08C
:10BE30008FFB01210F2004F08BFB10BD10B50121F9
:10BE40000E2004F085FB00210F2004F081FB10BDC3
:10BE500010B500210C2004F07BFB00210D2004F024
:10BE600077FB10BD10B500210E2004F071FB0021FE
:10BE70000F2004F06DFB10BD0B6810B5DB680800E7
:10BE800098470378303BDBB2002B08D1FFF7B8FFAF
:10BE9000C820400004F0DAF9FFF7DAFF10BD012BEB
:10BEA00002D1FFF7B7FFF3E7022B07D1FFF7BCFF83
:10BEB000C82004F0CBF9FFF7D5FFEFE7032BEDD156
:10BEC000FFF7BCFFF4E710B5FFF7C2FFFFF7CAFFAB
:10BED00010BD00000B6870B5DB6808009847047857
:10BEE0000A22303C2100114803F019FD104D022CAC
:10BEF00001D109232B702B78002B07D1002C06D100
:10BF0000FFF7E1FFFFF77CFF01232B7070BD012CD1
:10BF100005D1FFF7D8FFFFF787FF0223F5E7032CD2
:10BF2000F4D1FFF7D0FF0A23EFE7C046E82700204F
:10BF30002A29002010B5062004F01AFA08F0DAFFCA
:10BF400010BD000007B5FFF7F5FF0422019001A91D
:10BF5000024801F092FC01200EBDC046B024002032
:10BF600000B5144989B0144803F088FCFFF7E2FFDC
:10BF70000422019001A9114801F07FFC104905A895
:10BF800003F0FDFFFFF7D6FF0222011C02A804F018
:10BF900095F802A905A804F0F1F80100094803F09A
:10BFA00063FC02A803F0A3FF05A803F0A0FF09B0FB
:10BFB00000BDC04637A502001C2D0020B024002083
:10BFC00060A50200E827002007B56B46D97107334A
:10BFD0000122190001F051FC0EBD0000F0B5954C96
:10BFE00089B02378944E0193944B019A1B78934225
:10BFF0000AD004F013F9019B30600A2B04D1904A57
:10C000000B3B13608F4A136004F008F93368C51ABC
:10C01000207801380A2814D807F044FE06455466F3
:10C020005466757A7D807D00FFF7EAFE864B1B78AB
:10C03000002B2BD00323237004F0F0F8834B3060E7
:10C040001D607E4B019A1B7893421DD0804C814924
:10C05000200003F0EEFB794B0A221978200003F050
:10C060005AFC7D49200003F0E4FB0A2201992000DC
:10C0700003F055FC019979483031C9B2FFF7A4FFAC
:10C080006A466E4B12791A7009B0F0BD744B9D422E
:10C09000D7D9052373492370734803F0EFFB04F0ED
:10C0A000BDF83060CDE7FFF7BFFE674B1B78002B74
:10C0B00001D00423BFE76A4B9D42C2D906236B49D6
:10C0C0002370E9E7FFF7A6FE00211020FFF776FEB8
:10C0D000002818D1664B9D42B3D9072365492370C8
:10C0E000614803F0CBFBACE7FFF7A8FE0121082075
:10C0F000FFF764FE00280BD15D4B9D42A1D90823B8
:10C100005D492370ECE7FFF7A3FE0023237098E757
:10C11000FFF7A8FEF9E7FFF7D6FEF6E7484E3368CB
:10C1200001331BD100211020FFF748FE5349306036
:10C1300005A803F024FF0A22316802A803F04FFF8C
:10C1400002A905A804F01AF80100474803F08CFB87
:10C1500002A803F0CCFE05A803F0C9FE394E3368EF
:10C1600001331BD101210820FFF728FE444930602C
:10C1700005A803F004FF0A22316802A803F02FFF8C
:10C1800002A905A803F0FAFF0100374803F06CFB91
:10C1900002A803F0ACFE05A803F0A9FE284F3B68F7
:10C1A000002B01D1FFF736FE264E3368002B01D15C
:10C1B000FFF744FE3B68012B01D1FFF721FE3368F6
:10C1C000012B01D1FFF730FE00211020FFF7F6FD13
:10C1D0003B68984204D0642004F038F8FFF738FE3A
:10C1E00001210820FFF7EAFD3368984204D064205B
:10C1F00004F02CF8FFF736FE00211020FFF7DEFDDB
:10C200003B6898420DD001210820FFF7D7FD336825
:10C21000984206D0642004F019F8FFF754FE00237A
:10C220002370184B9D4200D80BE70B23164923704F
:10C2300056E7C0462A290020A02C002068240020B0
:10C240008C20002090200020692B0020B02A0020A4
:10C250001C2D0020FFA2020013A302002C2B0020A3
:10C260007F3E000049A20200E82700205DA20200F4
:10C270001F4E000072A2020096A20200BBA20200A2
:10C28000D5A20200A7610000EFA2020070B5002154
:10C2900086B01020FFF792FD012104000820FFF76F
:10C2A0008DFD254E05003368A3421FD021004300B9
:10C2B00030315918C9B22148FFF786FE204903A83A
:10C2C00003F05DFE0A222100684603F088FE6946FD
:10C2D00003A803F053FF01001A4803F0C5FA6846AB
:10C2E00003F005FE03A803F002FE3460164E336827
:10C2F000AB421ED0690030340919C9B20F48FFF7AC
:10C3000063FE124903A803F03AFE0A222900684698
:10C3100003F065FE694603A803F030FF01000948F9
:10C3200003F0A2FA684603F0E2FD03A803F0DFFD84
:10C33000356006B070BDC04684200020C42B0020AC
:10C3400021A20200E82700208820002035A2020058
:10C35000F0B5434C8DB00E002000424907AF03F00A
:10C360008DFA1122002138000AF083FD0025336880
:10C370003000DB689847435D7B550135102DF6D1C1
:10C38000394904A803F0FBFD390001A803F0F7FDCB
:10C3900001A904A803F0F2FE0100200003F064FAF2
:10C3A00001A803F0A4FD04A803F0A1FD2F4904A8EF
:10C3B00003F0E5FD2E4901A803F0E1FD01A904A861
:10C3C00003F0DCFE0100200003F04EFA01A803F0A8
:10C3D0008EFD04A803F08BFD264B1E78002E19D18C
:10C3E0002549200003F04AFA214BBA5D9B5D9A4231
:10C3F00004D02249200003F041FA09E00136102E52
:10C40000F2D11F49200003F039FA0123194A1370B1
:10C410000DB0F0BD012EFBD11A49200003F02EFA19
:10C420002B00103BFA5C124B5B5D9A4201D016491F
:10C43000E0E70135202DF3D11449200003F01EFA66
:10C440001349200003F01AFA31211248FFF7BCFD0E
:10C450000223084A01210B20137004F079F8D7E772
:10C460001C2D00204DA302006BA302007BA3020041
:10C47000402C00201C2300208EA30200A2A3020057
:10C48000B3A30200C6A30200DAA30200EBA30200DA
:10C49000FEA3020074240020F0B5F3B003F0BEFE4A
:10C4A0000024059004940520FFF720FCE14B029046
:10C4B000186008F0D5FC0027DF4E029B3568285134
:10C4C0002D196F606C2B02DD049B01330493012155
:10C4D000122004F03DF80021122004F039F88023E6
:10C4E0000834DB009C42DED103F098FE059B00245B
:10C4F000C01A0AF0ABFA029003910021122004F056
:10C5000027F8049B373B05933368CC49185907F04B
:10C51000ADFD431E984101254042054029001220EF
:10C5200004F016F802980399FE2300229B0509F0F7
:10C5300047FC0AF01BFA00280DD00138C046C0465F
:10C54000C046C046C046C046C046C046C046C046BB
:10C55000C046C046F1D180230834DB009C42D3D1D1
:10C560000021122003F0F4FF059B122B00D9F7E203
:10C570000024B14B1D6863100593A300B049E8582F
:10C58000012607F073FD002800D1061CA0210AAB8C
:10C5900062105B189E54802302345B009C42EAD1F7
:10C5A000A84CFF3B266829000022A74804F03CFE67
:10C5B00031002800802205F0C5FA20680DAB076025
:10C5C0000CAA402104F0AAF80D9B0EAA206807933C
:10C5D0004021002304F01CF80E9D0C98291C08F043
:10C5E00045FA802322681B06061CE9181000402328
:10C5F00005F0CCFBFE20311C800507F02DFF2568DF
:10C60000011C2A002800402305F05EFB29AA110026
:10C610008E4B61CB61C161CB61C161CB61C14025F2
:10C62000236809210133FF33009511A804F0A6FE09
:10C63000236821685A1CFF322B0011A804F0AEFEBB
:10C640002468651C2200FF352E002B00F132FF32DA
:10C65000196902C39342FBD1F8235B00E75004330E
:10C66000E7500433E7500433E75000270433E4185D
:10C6700001CE0AF01DFA764B764A07F0A9FC431E5C
:10C6800098413F18B442F3D1380008F033FCF2214E
:10C69000890508F0B9F810AB0FAA069040212800D0
:10C6A00004F03CF806980AF003FA6A4A6A4B07F06D
:10C6B000A3FC002800D153E2029A039B00206749A3
:10C6C00008F074FF0AF046FA0590079808F012FC8B
:10C6D000059908F099F80AF0EBF90022604B09F08F
:10C6E0006FFBFE2300229B0509F06AFB0AF032FA79
:10C6F0005C490290059808F087F8079008F090FBD5
:10C700000AF06AF902000B000020574908F04EFFBA
:10C7100008900991029808F083FB0AF05DF9534AEA
:10C72000534B09F04DFB0026002780240A900B9103
:10C73000089A099B3000390008F01CFC0A9A0B9BF0
:10C7400006000F0009F03CFB06F06AF80022002307
:10C75000012507F05BFC002800D1051CA0220AABD4
:10C760009B181D55802301345B009C42E0D10025BD
:10C7700080272E002C000122390052A8FFF7E4FA8E
:10C7800026AB3A0052A932A805F054FB269BB342CF
:10C7900001DD25001E000134802CECD12100002495
:10C7A0002A0052A8FFF7D0FA230032A918008030DF
:10C7B0005A5608560133121AD01712184240A418BC
:10C7C000802BF3D12B4926A803F0D9FB0A222100A4
:10C7D00023A803F004FC23A926A803F0CFFC2649D4
:10C7E00003F0D9FC05000222029920A803F066FCA0
:10C7F00020A9280003F0C2FC204903F0CCFC204D06
:10C800000100280003F030F820A803F070FB23A8F3
:10C8100003F06DFB26A803F06AFB1A4E382C00DDEE
:10C8200022E11949280003F029F80123174926A815
:10C8300033702DE06C2B0020782B00200000D842B4
:10C8400000006C437C2B0020D8AA0200709F0200DD
:10C850009999C93F9A9999999999E93F000060403F
:10C8600000408F4000007A440000F03F182D4454EF
:10C87000FB2119402AA402003AA402003DA40200B0
:10C88000E8270020692B002041A4020062A40200D6
:10C8900003F075FB0222029923A803F00FFC23A9E1
:10C8A00026A803F06BFCAF4903F075FC04000A22D4
:10C8B000049920A803F093FB20A9200003F05EFC5C
:10C8C000A94903F068FC0400022207991DA803F09F
:10C8D000F5FB1DA9200003F051FCA44903F05BFC0B
:10C8E000A34903F058FC0400022206991AA803F099
:10C8F000E5FB1AA9200003F041FC9E4903F04BFC24
:10C90000040002220C9917A803F0D8FB17A92000F5
:10C9100003F034FC0100984802F0A6FF17A803F0CA
:10C92000E6FA1AA803F0E3FA1DA803F0E0FA20A83B
:10C9300003F0DDFA23A803F0DAFA26A803F0D7FA09
:10C940008E4926A803F01BFB0222029923A803F0BC
:10C95000B5FB23A926A803F011FC894903F01BFCB1
:10C9600004000222079920A803F0A8FB20A92000B8
:10C9700003F004FC834903F00EFC04000222069934
:10C980001DA803F09BFB1DA9200003F0F7FB7E49C7
:10C9900003F001FC040002220C991AA803F08EFB9C
:10C9A0001AA9200003F0EAFB784903F0F4FB040025
:10C9B0000A220D9917A803F024FB17A9200003F001
:10C9C000DDFB734903F0E7FB010014A803F059FBFA
:10C9D00017A803F08CFA1AA803F089FA1DA803F02F
:10C9E00086FA20A803F083FA23A803F080FA26A889
:10C9F00003F07DFA8025142280270226654B6D0006
:10CA00001A70BF00644C236858590AF051F8043575
:10CA100002000B000096584803F058F8BD42F1D1CF
:10CA20005E4D2B78002B25D0022B39D123680024B2
:10CA30005B4F0493049A631CFF33E619D0583168A6
:10CA400007F070FBFC21890507F0DEFE802304342B
:10CA500030605B009C42EDD1FD3B332151482B708F
:10CA6000FFF7B2FA504917E05049280002F006FFDC
:10CA70000023DBE68022246849495200581CFF301D
:10CA80002058C85004339342F8D10223322145483C
:10CA90002B70FFF799FA4649374802F0EFFE5CE049
:10CAA000032B00D090E0276800243D4D631CFF332A
:10CAB0006619F858316807F035FBFC21890507F045
:10CAC000A3FE8023043430605B009C42EED11DAA9B
:10CAD000280020AB402103F021FE364D209B364C30
:10CAE0002B601D9B354926A8236003F048FA0222DB
:10CAF000216823A803F0E2FA23A926A803F03EFB4D
:10CB00001D4C0100200002F0AFFE23A803F0EFF956
:10CB100026A803F0ECF92A4926A803F030FA0A22E5
:10CB2000296823A803F06DFA23A926A803F026FBA1
:10CB30000100200002F098FE23A803F0D8F926A8EF
:10CB400003F0D5F91F49200002F098FE0422134B90
:10CB5000342114481A70FFF737FA14A803F0C7F904
:10CB600073B0F0BD68A4020070A402003DA40200EE
:10CB70007DA4020089A402001C2D002094A40200C0
:10CB80009AA40200A0A40200A6A40200ACA4020081
:10CB9000B2A40200292900207C2B0020682B002051
:10CBA00038230020C8280020C2A4020055A4020097
:10CBB000B4A40200BC2B0020C02B0020D0A4020093
:10CBC000E0A40200F0A40200042BC6D1674B109A27
:10CBD0001B68991E9142C0D802339A42BDD8802466
:10CBE00000256400624E3368185905F061FE614A01
:10CBF000631EFF3B071CD05805F05AFE011C381C71
:10CC000007F034FF011C07F0FFFD3368011C1851C9
:10CC1000281C07F087FA80230434051C9B009C42E3
:10CC2000E0D105F045FE544F041C3D68291C07F077
:10CC300013FA002800D190E0504926A803F09FF98C
:10CC40000222029923A803F039FA23A926A803F0A7
:10CC500095FA4B4903F09FFA05000A22049920A88F
:10CC600003F0BDF920A9280003F088FA454903F034
:10CC700092FA0500059809F01BFF0022424B09F0CB
:10CC80009FF802260B00020000961DA803F030FA60
:10CC90001DA9280003F072FA3C4903F07CFA3C4DD0
:10CCA0000100280002F0E0FD1DA803F020F920A8F3
:10CCB00003F01DF923A803F01AF926A803F017F9C9
:10CCC000344926A803F05BF90A22109923A803F03F
:10CCD00098F923A926A803F051FA2F4903F05BFA2B
:10CCE000320004900F9920A803F0E8F920A90498D5
:10CCF00003F044FA0100280002F0B6FD20A803F07A
:10CD0000F6F823A803F0F3F826A803F0F0F83F683C
:10CD1000224926A803F033F9211C381C07F0A6FE8F
:10CD2000391C07F099FB1E4907F06EFD3200011C0B
:10CD300023A803F0C3F923A926A803F01FFA194971
:10CD400003F029FA0100280002F08EFD23A803F069
:10CD5000CEF826A803F0CBF8FFE6291C201C07F02C
:10CD600085F9002800D1F8E60F4995E6BC2B002094
:10CD70007C2B002038230020A8200020FBA40200E8
:10CD800068A4020002A5020000408F403DA40200FA
:10CD90001C2D00200EA5020018A5020021A50200EE
:10CDA0000000C8422BA502002DA50200002210B5EC
:10CDB000064B1A70064A1378002B03D0013B137000
:10CDC000012010BDFFF768FBFAE7C046692B002081
:10CDD00029290020F8B504000D001F00160003F0FB
:10CDE0001DFA2200290085324B1E9941FF329446DC
:10CDF000C9B2231D634504D21A68002A03D0183330
:10CE0000F8E700200EE022680132002A00D101225A
:10CE10002260226898605A611E605F60DD6019615F
:10CE200053401800F8BDF8B505000126041D2B007D
:10CE30008533FF339C421ED22368002B11D003F0B0
:10CE4000EDF9A368E2680700C31A9A4209D860683E
:10CE500023689847002806D02369002B03D0266159
:10CE6000A7601834E3E7002323606360A360E360F6
:10CE700023616361F5E7F8BDF8B5060003F0CEF96C
:10CE800001240700351D644233008533FF339D4282
:10CE900010D22B68002B0AD003F0C0F9AB68C31A7C
:10CEA000E868984205D9C01A844200D904001835B0
:10CEB000EAE7002403F0B2F9C71B0020A74202D220
:10CEC000631C00D0E01BF8BD70B51B4C2000FFF7C1
:10CED000AAFF2000FFF7D0FF184C2000FFF7A3FFA8
:10CEE0002000FFF7C9FFFFF7D1F9FFF777F8144BE0
:10CEF0001C78002C1BD1134D1349280002F0AAFC0A
:10CF000021000B2003F024FB104C2000FEF794FCC2
:10CF1000FEF7D3FC0E49280002F09CFCC0238021C0
:10CF20000C4A5B00C903D1502000FEF751FC0A48AF
:10CF3000FEF75BFA70BDC0462C290020EC240020CF
:10CF4000282900201C2D0020AEA50200C82A0020A0
:10CF5000B4A5020000E100E070260020F8B500232F
:10CF60008D4C1A0019002000FEF7ACFB8B4D2300FE
:10CF70001C221E212800FEF7DFFB894C8949220074
:10CF8000280005F045FC884D092302220A212800CB
:10CF9000FEF788F922008549280005F039FC84490C
:10CFA000844801F098F8844D142312228349280004
:10CFB00000F0E2FC22008249280005F029FC814EA5
:10CFC000814F3100814A380000F0C0FC804D2200C2
:10CFD0002900380005F01CFC7E4F142308227E49EE
:10CFE000380000F0C9FC22007549380005F010FC3B
:10CFF0007A4F31007A4A380000F0A8FC220029005C
:10D00000380005F005FC12227649774801F06CF8EB
:10D01000764F22003900744805F0FAFB3100744A5B
:10D02000744800F093FC22002900724805F0F0FBE0
:10D030001A227149714801F057F8220039006F48EF
:10D0400005F0E6FB31006E4A6E4800F07FFC2200DE
:10D0500029006C4805F0DCFB12226B496B4801F09B
:10D0600043F822003900694805F0D2FB3100684AD4
:10D07000684800F06BFC22002900664805F0C8FBF8
:10D080001A226549654801F02FF8220039006348EB
:10D0900005F0BEFB3100624A624800F057FC2200F6
:10D0A0002900604805F0B4FB1A225F495F4801F08F
:10D0B0001BF8220039005D4805F0AAFB31005C4AEC
:10D0C0005C4800F043FC220029005A4805F0A0FB10
:10D0D00012225949594801F007F8220039005748EF
:10D0E00005F096FB3100564A564800F02FFC22000E
:10D0F0002900544805F08CFB1A225349534800F08C
:10D10000F3FF22003900514805F082FB3100504AFC
:10D11000504800F01BFC220029004E4805F078FB27
:10D1200012224D494D4800F0DFFF220039004B48E4
:10D1300005F06EFB4A4F31004A4A380000F006FC09
:10D1400022002900380005F063FB474F12224749AF
:10D15000380000F0E1FF22004549380005F058FB97
:10D16000444F31003800444A00F0F0FB2900C0254C
:10D1700022000024380005F04BFB40486D002A00D7
:10D18000210010C009F075FE3D482A0010C02100A2
:10D1900009F06FFEF8BDC046B42A0020C82A00205E
:10D1A0008020002029B7010070260020B9B40100BA
:10D1B000949F0200702B0020EC280020B99F0200F1
:10D1C00005B90100829C02001029002011A2020072
:10D1D00031D90100642C0020DE9F0200882C002041
:10D1E00003A002000CA002007424002091B90100E9
:10D1F00031A002009824002036A00200C828002098
:10D200005BA002002023002070A00200042C00205C
:10D2100095A00200282C0020A3A00200A42C00202E
:10D22000C8A00200C82C0020CDA00200802B002046
:10D23000F2A00200A42B002007A10200C42B0020B2
:10D240002CA10200E82B00203FA10200F02A0020C0
:10D2500064A10200142B002073A102002C2B0020DB
:10D26000502B002098A10200B0240020A6A10200AB
:10D2700041B90100D4240020CBA102002C290020B8
:10D28000EC240020F7B5E121AA48490202F05EFC37
:10D29000C021A94C4900200000F045FEA74920000C
:10D2A00000F095FCA64F380000F073FA0100200052
:10D2B00000F08AFC2000A34A002100F0ACFC200012
:10D2C000A14A012100F0A7FC2000A04A032100F0A0
:10D2D000A2FC9F4A01219F4800F022FB9E4E9F4ADC
:10D2E0003000002100F01CFB9D4A00219D4800F009
:10D2F00017FB9D4A00219D4800F012FB9C4D9D4A62
:10D300002800002100F00CFB3900200000F0C7FDD0
:10D3100099492000043100F0C2FD984920000431F1
:10D3200000F0BDFD311D200000F0B9FD9449200042
:10D33000043100F0B4FD934E2000311D00F0AFFD2C
:10D3400091492000043100F0AAFD884B2000191DEE
:10D3500000F0A5FD8D492000043100F0A0FD8C4BAC
:10D360002000191D00F09BFD8A492000043100F0C7
:10D3700096FD291D200000F092FD87492000043110
:10D3800000F08DFD85492000043100F088FD8449BE
:10D390002000043100F083FD6E4B2000191D00F0C9
:10D3A0007EFD80492000043100F079FD30213000FD
:10D3B000FEF70AFE7C4B7D4E197830003031C9B241
:10D3C000FEF702FE7A4D7B4F297838003031C9B222
:10D3D000FEF7FAFD30216348FEF7F6FD3021634881
:10D3E000FEF7F2FDFEF7A6FD042201A901905948BF
:10D3F00000F043FA2000FDF7EFFF10226E496F485E
:10D4000009F01BFD0121122003F084F801210C20FA
:10D4100003F080F801210D2003F07CF801210E209B
:10D4200003F078F801210F2003F074F801210B209C
:10D4300003F070F800210C2003F08AF800210D2081
:10D4400003F086F800210E2003F082F800210F205F
:10D4500003F07EF800210B2003F07AF8032110205E
:10D4600003F058F80321082003F054F8102003F0CB
:10D4700085F8534C2070082003F080F8514B217838
:10D48000C0B21870303140000918C9B24048FEF7E8
:10D490009BFD0021052003F03DF80420002103F04E
:10D4A00039F84948FEF7B0F900283FD00023474932
:10D4B0002B70204802F0E2F9297838003031C9B2E7
:10D4C000FEF782FD0023002041499A000133885075
:10D4D000402BFAD18020C00009F07AFC3D4B01249A
:10D4E00018608020C00009F073FC3B4B18600920D5
:10D4F00002F038FF0023394A14213948FFF76AFC4B
:10D50000384A002338493948FFF764FC384909484C
:10D5100002F0A0F9244B300031211C70FEF754FDBD
:10D52000FA2120008900FEF76BFBF7BD012331498A
:10D530002B70BEE71C2D002070260020BBA502002A
:10D54000702B002029BC010075BC0100BDBC01008E
:10D5500061BF0100B0240020642C002051C30100F1
:10D56000C5B80100A42C002079BE0100802B00204A
:10D57000F02A0020D5BE0100EC2800201029002050
:10D58000882C00207424002098240020A42B002044
:10D59000C42B0020E82B0020142B00202C2B002073
:10D5A000502B0020D4240020682B0020C828002005
:10D5B000AC200020042C00209EA50200382400206E
:10D5C000002C0020012C0020C82A0020CFA502003A
:10D5D00038230020782B00207C2B0020ADCD0100CB
:10D5E0002C29002045BF0100204E0000EC24002023
:10D5F000EFA50200DDA5020052DF70470C4B37B5E6
:10D600001B78002B13D00B4C2568002D0FD001A8E0
:10D61000FFF7F2FF05280AD0002804D000221100ED
:10D62000FEF76CF8F1E7019823689847EDE737BDFE
:10D63000E02C0020E42C002010B5FFF7DFFF10BD28
:10D6400070B5002504AC24780573A94205D10A4BB6
:10D650000A4A25210A4809F01FFB01600949920086
:10D6600052589B0002715B58A40083716358856017
:10D6700043710223C37170BDF9A502005BA60200CD
:10D6800007A6020008AA0200037B002B04D1437303
:10D690008373036101330373704700001FB5019169
:10D6A000A02100240068C900D2B24450012A10D041
:10D6B000A24209D0032A0AD0074A8350074B019A95
:10D6C000C250012343501FBD02221343F4E704223A
:10D6D000FBE70622F9E7C0465405000024050000D8
:10D6E00010B50400FFF7D0FFA1222368A179D20072
:10D6F00099506179064A2000995021790432995055
:10D70000044B19685A689B68FFF7C8FF10BDC046F4
:10D710000C050000FC2C0020A02200230168D20090
:10D720008B500373704770471FB5FFF7B7FF05B005
:10D7300000BD70470368074A99501A00FC32D1684F
:10D740000029FCD0A321C90058580023C0B2D360DF
:10D750007047C0461C0500007047704707B580221F
:10D76000074BD2051A6000229A6002321A71182300
:10D77000173200930349013B0348FFF761FF07BDE0
:10D78000FC2C002000300040E82C0020016082804A
:10D790007047006870478088704737B506250400D9
:10D7A0002A000021684609F064FB2A00201D694612
:10D7B00009F034FB431E9841C0B23EBD10B5034C86
:10D7C0000430210000F0BEFC200010BD082D002018
:10D7D00010B50430062209F030FB10BD10B504303E
:10D7E0000622002109F045FB10BD10B504000160C0
:10D7F000FFF7F4FF200010BD807A7047C0687047C3
:10D80000007C704700207047C368585C704770B553
:10D810000D00110002680400D6691A00B047012308
:10D82000A374A369002B02D021002800984770BD83
:10D8300070B5040008000D000AF0E8F92368C2B2D0
:10D840002900DB692000984770BD0000054B10B52A
:10D85000083304000360C068002801D009F0C2FA50
:10D86000200010BD98A6020010B50400FFF7EEFFDF
:10D87000200002F049FD200010BD10B50400807AA0
:10D88000031C904200D9131CDAB22374E06809F03B
:10D89000D4FA63690120002B04D01A6821001268B1
:10D8A0001800904710BD0000F8B51D0004001700D7
:10D8B0000430104A00F06EF80F4B083323602B1C25
:10D8C000142D00D9142300212000A372E1602174DB
:10D8D0006774A174E17461610C221830DEB209F042
:10D8E000C8FA002D03D0300009F072FAE060200081
:10D8F000F8BDC0460328000098A60200407C70478F
:10D90000C07C704703000800DA7451424A41073274
:10D910009200D25810B5002A01D01900904710BDCE
:10D920000B2902D8063189000A50704741617047BF
:10D93000704700697047007D70470369585C704705
:10D9400010B5040002F0E0FC200010BD70B5150019
:10D95000A42204009201043000F01CF8044B25615D
:10D960000833280023600AF051F92075200070BDAB
:10D97000C8A602000120704770B504001D00FFF723
:10D9800093FF034B257408332000236070BDC0460D
:10D99000E4A6020010B50400FFF7F8FE024A2000DA
:10D9A00013780133137010BD1A2D0020014B187825
:10D9B0007047C0461A2D002010B5C06803681B6A66
:10D9C000984710BD08B4024B9C46043808BC604719
:10D9D000B9D9010010B5C06803685B6A984710BDEB
:10D9E00008B4024B9C46043808BC6047D5D90100F6
:10D9F00010B5C06803689B6A984710BD08B4024B15
:10DA00009C46043808BC6047F1D9010010B5C068D5
:10DA10000368DB6A984710BD08B4024B9C46043883
:10DA200008BC60470DDA010010B5C06803681B6BC5
:10DA3000984710BD08B4024B9C46083808BC6047A4
:10DA400029DA010010B5C06803685B6B984710BD08
:10DA500008B4024B9C46083808BC604745DA010010
:10DA600010B5C06803689B6B984710BD08B4024BA3
:10DA70009C46083808BC604761DA010010B5C068F0
:10DA80000468E46BA04710BD08B4024B9C460838FC
:10DA900008BC60477DDA010010B5C06803681B6CE4
:10DAA000984710BD08B4024B9C46083808BC604734
:10DAB00099DA010010B5C06803685B6C984710BD27
:10DAC00008B4024B9C46083808BC6047B5DA010030
:10DAD00010B5C06803689B6C984710BD08B4024B32
:10DAE0009C46083808BC6047D1DA010010B5C06810
:10DAF0000368DB6C984710BD08B4024B9C4608389D
:10DB000008BC6047EDDA0100030010B5FC335B6F21
:10DB1000002B02D05D30FF30984710BD030010B5D8
:10DB2000FC339B6F002B02D05D30FF30984710BD57
:10DB30000100100010B504681A005D3102AB1B78BB
:10DB4000FF31646AA04710BD7047704770B505008B
:10DB500004005D35FF3511002800FC34FFF738FE66
:10DB6000E36E002B01D02800984770BD030010B56C
:10DB7000FC335D301B6FFF300400002B00D0984752
:10DB80002000FFF72BFE10BD010010B55D31100025
:10DB9000FF311A00FFF7B6FE10BD010010B51000EE
:10DBA0005D311A0002AB1B78FF3100F077FA10BD2F
:10DBB00010B5C0680368DB68984710BD10B5C06831
:10DBC00003681B69984710BD883001607047983022
:10DBD0000160704770B50600A436336804000D007C
:10DBE000002B05D100F030FA800009F0F1F8306028
:10DBF000A834237832689B009D502378013323702A
:10DC000070BD10B50400FFF7D3FF20005D30FF307A
:10DC1000FFF7C3FD10BD0F2902D85A3189000A5001
:10DC2000704710B50400FFF7C1FE800009F0D0F87E
:10DC300023009C331860103303600C33436024339B
:10DC400083602033C3600C3303610523A034237049
:10DC500010BD000030210023F0B5AFB002AA521869
:10DC6000137003008C3319680400002900D1AAE066
:10DC700008A800F0ABFA08A800F0D4FA0223834207
:10DC80009B415B4216AA143305001070537008A81C
:10DC900000F0C6FA010052201A2602AB2A00C01872
:10DCA000761B09F0CAF80125F6B2230088331968FB
:10DCB000002929D008A800F089FA08A800F0B2FAD3
:10DCC000431C0700B3421FDA1F20030050216B439F
:10DCD00002AA5218D7540623022F00D8043B6843E7
:10DCE00016AA12185370079008A800F099FA079B1B
:10DCF0000100981C16AB18183A0009F09EF8023E75
:10DD00000135F61BEDB2F6B22300903319680029F5
:10DD100016D01A79002A13D0022E11D9531CB342FF
:10DD200001DB023EF2B21F23FF276B4316A81A54F1
:10DD3000C61802337770C01809F07FF80135EDB2CC
:10DD4000230098331E68002E1BD0300009F05EFFC0
:10DD5000C0B21D283AD8302202AB9B18187030226E
:10DD600002AB9B181A78002382425B41312002A942
:10DD7000091808330B70013002AB3100C01809F0EC
:10DD80005CF827009C373B68002B02D12000FFF78E
:10DD900048FF002307932300A0331B78079A934280
:10DDA0001ADD93003A689E583000FFF7F4FC314BBF
:10DDB000984205D1301E00D0301F211DFFF7B6FD5F
:10DDC000079B0133E6E71C260D006EE730211D237B
:10DDD00002AA52181370C2E700272300A8331B7849
:10DDE000BB4213DD2300A4331B68BA00D6583000B1
:10DDF000FFF7D1FC1F4B984206D1301E00D0301FD8
:10DE00002100083100F05DF90137E6E7002B0BD067
:10DE100021002931FF312000FFF7DCFE21003531E0
:10DE2000FF312000FFF7D6FE3022210002AB9B1805
:10DE3000A8311B780978E0685A1E93410268049162
:10DE40002100A4310968DBB203912100A0310978D7
:10DE5000029121009C31096801910EA900919668F8
:10DE6000290016AAB047E06803681B6D98472FB0D9
:10DE7000F0BDC0460328000070B506009C3633682C
:10DE800004000D00002B01D1FFF7CBFEA034237856
:10DE900032689B009D5023780133237070BD10B50C
:10DEA000FFF7EAFF10BD000010B50400164B036039
:10DEB000164B4360164B8360FFF780FE2300A433AC
:10DEC0001868002801D008F08DFF23009C331868E3
:10DED000002801D008F086FF20003130FF3000F02C
:10DEE000B9F8601DFF30FFF7B1FC2000D830FFF714
:10DEF000ADFC2000B430FFF7A9FC2000103000F08A
:10DF00008DFE200010BDC04640A70200A8A7020059
:10DF1000C0A7020010B50400FFF7C6FF200002F002
:10DF2000F3F9200010BD07B56B46D9800633D83011
:10DF300002221900FFF7A1FC07BD0000334BF7B523
:10DF40000360334B04004360324B002583600300C1
:10DF500010331800009301F08BFA2300200088335F
:10DF60005D609D601D731D615D611D76DD611D60DD
:10DF700004331D772849AC3000F0ADF82300B433EA
:10DF800001930222132325490198FFF78DFC0223F8
:10DF900020001A002249D830FFF786FC2000214FCC
:10DFA000FC30390000F097F81F4E601D042331004B
:10DFB0002022FF30FFF778FC200029303900FF30A5
:10DFC00000F081F82000313031002022FF3000F0D5
:10DFD00049F820005D302100FF30FFF706FC2000EB
:10DFE000009B6930E36010222900FF3008F041FFF8
:10DFF0000E490198FFF71CFC29002000FFF793FF52
:10E00000E068210001F0C0FA2000FEBD40A7020038
:10E01000A8A70200C0A7020014A7020019A70200C7
:10E020001EA7020023A7020028A702002DA70200B6
:10E0300010B50400FFF7AAFB024A20001378013351
:10E04000137010BD1B2D0020014B18787047C0467F
:10E050001B2D0020704710B5040002F055F9200078
:10E0600010BD000070B5040015000430094AFFF728
:10E07000DFFF00212000084BA57208332360E31C5A
:10E08000E1720422D9772830616208F0F2FE2000A4
:10E0900070BDC04603280000E0A7020070B5040070
:10E0A000C3720D000C3011001A0008F0C6FE0122E8
:10E0B000E31CDA77A36A002B02D0210028009847DE
:10E0C00070BD41627047A02210B504009201FFF7B5
:10E0D000AFFF200010BDA02210B504009201FFF791
:10E0E00059FC200010BD000013B504000123FFF708
:10E0F00043FC074B012223606B46D91D00232000FF
:10E100000B70FFF7BAFB034B2000236016BDC0461F
:10E11000B89E0200E89E020013B504000423FFF736
:10E120002BFC064B04222360002301A9200001934D
:10E13000FFF7A3FB024B2000236016BD189F0200CF
:10E14000489F0200F0B51E4C8BB005000E0001A8E0
:10E15000210001F014FF210004A801F010FF0524A4
:10E160002B5D0F2B03D8174901A801F0F8FF1022EF
:10E17000295D07A801F022FF07A904A801F08BFF81
:10E1800007A801F0B4FE04A901A801F0E2FF671E90
:10E19000002C06D00C4901A801F0E1FF3C007B1CDB
:10E1A000DED100231222310001A802F008F804A8F1
:10E1B00001F09DFE01A801F09AFE0BB0F0BDC04633
:10E1C00098AA0200C0A4020098A40200F7B5002398
:10E1D000050001AE2960037508000F003380B3709D
:10E1E00009F014FD441E002C18DB2B7D0F2B15D8D5
:10E1F0003A5D2D2A02D10134023CF4E73B19013B80
:10E200001B787270002110223000337009F09CFDE1
:10E210002B7DEA18013310712B75EDE72800FEBD48
:10E2200004307047007D704771DF704772DF7047C0
:10E2300073DF704775DF704776DF704777DF7047B1
:10E2400078DF70477ADF70477CDF70477EDF70478A
:10E250007FDF704786DF704790DF704792DF70473F
:10E2600096DF704798DF704799DF7047A0DF7047EF
:10E27000A2DF7047A3DF7047A4DF7047A6DF7047B7
:10E28000A9DF704760DF704761DF704762DF70476A
:10E2900063DF704753DF704710DF704711DF70474F
:10E2A0005C300078431E9841C0B270470200030002
:10E2B000002030B56D321478844213DD1D6F0201E9
:10E2C000AA1815688D420BD10020D189814206D051
:10E2D000127B920703D574331B780130584030BD50
:10E2E0000130E9E70020FAE70300002270B56D3342
:10E2F0001C7894421BDD056F1301EB181D688D42DD
:10E3000013D10022D98991420DD0197B89070AD5F2
:10E310000100012474310C70D989008FFFF7A0FF30
:10E3200042424241D2B2100070BD0132E1E7002208
:10E33000F9E702000300002030B56D321478844202
:10E340001BDD1D6F0201AA1815688D4213D1002034
:10E35000D189814206D0127B110704D574331B7812
:10E360000130584030BD5207FCD55C331878431E4D
:10E370009841C0B2F6E70130E1E70020F2E7F0B5DE
:10E3800087B0040001936D3006780020864230DDAE
:10E39000276F05017D192F688F4228D10020EF8952
:10E3A000874222D0297B0C2529421ED026005C36CC
:10E3B0003578854219D0082319404B424B4103A9B7
:10E3C00001330B706B469B888A60CB80230001224F
:10E3D0007433013D1A7048704F8088803570208FEB
:10E3E000FFF740FF43425841C0B207B0F0BD0130D3
:10E3F000CCE70020F9E70300002230B56D331C782C
:10E40000944212DD056F1301EB181D688D420AD18D
:10E410000020DA89824205D0187B30231840431E41
:10E420009841C0B230BD0132EAE70020FAE70300AC
:10E43000002230B56D330400187885B090422BDD92
:10E44000256F1301EB181D688D4223D10020DA8956
:10E4500082421DD030211B7B0B4219D020390B404A
:10E4600059424B41694601334B800123881CD21825
:10E4700001A94A80802292020292220074320B800B
:10E4800013708860208FFFF7EDFE43425841C0B201
:10E4900005B030BD0132D1E70020F9E710B50368BF
:10E4A0001B6C984710BD0300002230B56D3304008B
:10E4B000187885B0904226DD256F1301EB181D6892
:10E4C0008D421ED10020DA89824218D0197B302378
:10E4D000194214D06B4658809D1C012301A9D21803
:10E4E0004A80802292020292220074320B801370C2
:10E4F0008D60208FFFF7B6FE43425841C0B205B091
:10E5000030BD0132D6E70020F9E70B0010B5273304
:10E510001ADB0B001D331ADB0B00133319DB0B0066
:10E520000F3318DB0B000B3317DBCB1D17DBCB1CBA
:10E5300017DBC817401AC00F800040B2FFF77EFEFD
:10E5400043425841C0B210BD28204042F5E71E208A
:10E55000FBE71420F9E71020F7E70C20F5E7082087
:10E56000F3E70420F1E710B51321008FFFF764FEF5
:10E5700010BD13B504006846FFF756FE2069002859
:10E5800005D06A4603680132DB692100984713BD54
:10E5900037B50023050001A80193FFF77BFE2C6926
:10E5A000002C0ED0019808F017FA0022054B07F056
:10E5B00007FC08F0CFFA2368021C1B6A2900200020
:10E5C000984737BD0000D03F704710B5040086B0B3
:10E5D00018220021684608F04CFC0023A27A9A42D7
:10E5E00000D103336A461370A0880A21000105F0A8
:10E5F000EDFB6B4618826846FFF71AFE06B010BDA9
:10E600000300F0B55D330C001A78060000231421D6
:10E6100093B09A4267DD0F005F43306EC7193868C8
:10E62000A0425ED12000FFF769F9012318425AD0B9
:10E630007B68002B57D033003100333302931D78B1
:10E6400014312A000AA808F0F8FB236820001B698F
:10E65000984704352818C3B2039300230193039B02
:10E660001F2B3BD87868FFF794F8010004A8FFF748
:10E67000ADFD236820001B6998471822029B0330D8
:10E680001D7804AB9B1858550AAB5B19023A04A8D5
:10E690005A70FFF7C5FD02350AAB01000222581976
:10E6A00008F0CBFB029B20001D780AAB04355D19F6
:10E6B0002368DB689847236807001B692000984798
:10E6C00039000200280008F0B8FB002303991A0063
:10E6D0000AA8FFF7ABFD012374630193019813B0FF
:10E6E000F0BD013395E70023F7E70A21F0B5D9B073
:10E6F00004ABC9188E2311AE5B00040030000B8000
:10E70000FFF7C2FD011E0ED13388302B00D190E1FE
:10E7100039D8112B00D1BDE007D8012B00D182E000
:10E72000102B00D185E059B0F0BD142B00D10DE1C4
:10E73000192B00D119E1132BF5D1E068002800D185
:10E74000FFE000F0BBFE002800D0FAE007AD052294
:10E750000021280008F08DFB0122302313432B7089
:10E7600007230021EA702A006B700933AB70A36D98
:10E770000D9109930E910F910A910B91208F09AB86
:10E78000FFF766FDCFE7382B00D11DE22AD8322BE8
:10E7900000D19BE1362BC6D12300743318700623B9
:10E7A000F288FF339A4200D0F1E1E368002B00D1F8
:10E7B000EDE109AD0522280008F05BFB0123EA78B2
:10E7C00029001A43EA702A78134370229343403A8F
:10E7D00013432B7007236B700933AB70208FFFF747
:10E7E00035FDA0E7502B00D1D4E0522B00D11AE127
:10E7F000392B00D097E7B37BB589022B03D1208F4B
:10E800002900FFF731FD23006D3319780023994269
:10E8100000DC88E7206F1A018218D089A84200D155
:10E82000C3E10133F3E75C342378327A9B18237019
:10E8300079E7B08809AD20872900FFF727FD23007D
:10E840002A785C331A702069002806D03D220368BC
:10E8500004A952181B6821009847E288052A0DD99F
:10E86000C821238909018B4208D86B80C8235B0427
:10E870002A800A93208F2900FFF7DCFC23006433F1
:10E880001B78002B00D14EE700220121208FFFF7DB
:10E89000E3FC48E701235B422387230005005C3348
:10E8A000187023005D331B78AB4218DD1426002757
:10E8B0006E43236E9E19377477743068FFF720F823
:10E8C000B8420AD02069B84207D0036832685B6951
:10E8D00021009C463B006646B0470135E1E72069D0
:10E8E000002803D0036821005B68984700250C26A8
:10E8F000230064331B78AB420ADD30006843A36E0B
:10E90000042218180830002108F0B3FA0135EFE7A7
:10E910000023250018006D352A789A4208DD216F02
:10E920001A0189180873216F01338A18D081F3E71F
:10E930002300002274331A70236820009B699847D3
:10E94000F1E60023208F1A00852119E7A56D338A8F
:10E950006A8A208F9A4205D10B000A002900FFF72E
:10E9600079FCE0E60B000A00F9E7327A002A00D0D1
:10E97000D9E6E068002804D021001C233C3100F0D7
:10E98000B2FD2069002800D1CDE603689B68210014
:10E990009847C8E60500F388049323005D331B788D
:10E9A000AB4200DCBFE614276F43236E049ADF19E5
:10E9B0003B8993420ED12069002800D1B3E6327C16
:10E9C000036800921D69462304AA9B183A68210037
:10E9D000A847A8E6BB89049A934222D10121F27C80
:10E9E000B37C120213431BB29AB20B403B74530820
:10E9F0000B407B7403231A40531E9A413868D3B2EC
:10EA00000393FEF77DFF039B98420AD020690028FC
:10EA100000D188E603683A685D692100039BA84736
:10EA200081E60135B9E7208F0B000A00FFF728FCCB
:10EA300079E6F588002D18D0230005000C216433F9
:10EA40001A78AA4200DC6EE60B006B43A06EC31876
:10EA50001889002838D05889002835D0220008337A
:10EA600019006C321570208F72E04227B38903932E
:10EA700004ABFF18039BAB421DDD230064331A78FF
:10EA800000239A4212DD0C205843A16E0818B97871
:10EA90008C4681798C450CD139888C4681888C458F
:10EAA00007D10830391D042208F0C7F901350837AD
:10EAB000E0E70133E5E7039B208FDB00F618B1891F
:10EAC0000022013189B2E2E60135BAE72000F1887F
:10EAD0006C3002780C2300293DD15A43A16E8A186C
:10EAE000926804A90992422252180A21B589049019
:10EAF00069438918039105930399914226D0260012
:10EB000000206D36317881421BDD049F059B3F78E4
:10EB1000216F5F430501A36E4919FF584B689F425F
:10EB20000DD193788F7ABB4209D113880F89BB42EC
:10EB300005D117790F73236F11895D19E9810130B0
:10EB4000E0E7108909A908800A32D5E7208F09A9D2
:10EB5000FFF784FBE7E521000132534364310D7870
:10EB600095420DDDA16EC9180E89002E05D04E8983
:10EB7000002E02D00270083175E701320C33EFE746
:10EB80002069002800D1CEE50368DB68FFE623009A
:10EB90006D3319780023B089994200DCC3E5256FF5
:10EBA0001A01AA18D58985420CD12069002800D104
:10EBB000B9E5317C036800919D69462304A95B187F
:10EBC000126804E70133E7E7230074331870062363
:10EBD000F288FF339A4200D0A5E5E368002B00D00D
:10EBE000E7E5A0E510B50400FFF758FB206F00280B
:10EBF00001D008F0F7F8A06E002801D008F0F2F874
:10EC0000206E002801D008F0EDF8220000235D32CC
:10EC10006D341370D371237010BD000010B5040063
:10EC2000044B08330360FFF7DDFF200000F096FC83
:10EC3000200010BD04A8020010B50400FFF7EEFF8D
:10EC4000200001F061FB200010BD000013B56C46F0
:10EC500012886180228001006A4602480193FFF712
:10EC60000BFB16BDFFFF0000F0B5F3B01C007AAB44
:10EC70001B78060007937CAB1B78019115009B491C
:10EC800004220EA8099308F0D8F800210EA8FFF777
:10EC900003FB2620964B12220F930AAB0021C018CB
:10ECA00008F0E7F80A2313AF0FA93B803800093BAF
:10ECB0003B733B72FFF7E6FA8E4B11A81193C82302
:10ECC0005B041293FFF7BEFA0020FFF7B7FA812327
:10ECD0005B00B382FC3BB3753300032233331A70FD
:10ECE000019B002B21D0002D1FD01F23019A5343DD
:10ECF000EB1801933700019B33373878AB4214D0BF
:10ED00002B783218013313756B780230C0B253750B
:10ED1000387014302A78A91C301808F08EF82A7838
:10ED20003B781F359B183B70E4E7002C1ED0789B86
:10ED3000002B1AD01F277C431D001B1900240193B0
:10ED4000019BAB4212D02F782AA87B1C03556A780E
:10ED500003190234E4B25A700019A91C3A003C1994
:10ED600008F06BF8E4B21F35EAE7789C3300300016
:10ED7000333319782AAA23001430FFF757FA0020FA
:10ED8000FFF75EFA0024079BA3420EDD799AA300E9
:10ED9000D058FEF700FD584B984204D132005D3246
:10EDA0001378013313700134EDE733005D331878C5
:10EDB0000338C0B218701423584308F009F8002330
:10EDC0000BAA1380799A30660392029308930593F5
:10EDD000079B029A934200DC11E2039B1D68280006
:10EDE000FEF7D7FC01001DA8FFF7F0F91DA8FFF7FB
:10EDF00017FA04001DA8FFF715FA02282BD1627834
:10EE00002378120210A913430B8001238B70280072
:10EE1000FEF7C1FCA0239B01984231D12800FEF7E8
:10EE2000B8FC364908F0E0FE00280DD02800FEF7B7
:10EE3000B0FC334908F0D8FE002805D00BAA10A971
:10EE40000120FFF713FA0895029B01330293039BFD
:10EE500004330393BCE732AF21001022380007F0DF
:10EE6000ECFF627B237B1202134310AA1380002362
:10EE70001A21BB810AABC9183800FFF709FAC6E7A7
:10EE80002800FEF788FC1C4B984200D032E12F1E70
:10EE900000D02F1F3C1D2000FEF77BFC194908F015
:10EEA000A3FE002811D1112332AC23703B68380037
:10EEB000DB6898473B6805001B69380098472900C4
:10EEC00082B22000FFF7C0F9BEE72000FEF761FC28
:10EED0000D4908F089FE002818D13B683800DB682E
:10EEE00098470088FFF7ACF9AEE7C046F0A70200EC
:10EEF00080200020280050000328000014A70200F2
:10EF000023A7020019A702001EA702002000FEF797
:10EF100040FCCD4908F068FE002895D03800FEF787
:10EF2000EDFC3B6804901B69380098470AABD88019
:10EF300014230025059A29005A43336E01929F50ED
:10EF4000336E23A89B181D74336E9B185D74336E4B
:10EF50009B18089A5A601C2207F08BFF012264213B
:10EF6000049B93430AAA521813703023049A1A423E
:10EF70000FD00CAC03222900200007F07AFF0622F4
:10EF8000B24B2380A37893431A0002231343A37048
:10EF900028940DAC03220021200007F06AFF3223E1
:10EFA000049A1A4204D0F368002B52D02123237014
:10EFB0000C23049A1A4205D0F2680DAB002A4AD0FD
:10EFC00021225A7006220DACA378380093431A0010
:10EFD00002231343A3703B689B69984701210122D8
:10EFE000A37882438B431343A370029B5B18049363
:10EFF000039B0693049A079B93423CDD069B5D6846
:10F000002800FEF7C8FBA4239B01984233D12C1E95
:10F0100000D02C1F251D2800FEF7BBFB8C4908F0F3
:10F02000E3FD002819D1236820009B6898472368D6
:10F030002490DB6820009847236823AD2881DB6893
:10F04000200098476881049B01330493069B043396
:10F05000CFE71123ABE71122B3E72800FEF799FBB6
:10F060007C4908F0C1FD0028EDD1236820009B6891
:10F0700098472690E7E742200AAB0A220021C018F1
:10F0800007F0F7FE10AB18AD18930DAB6B600AAB31
:10F09000DB8838002B813B6800249B689847019AE5
:10F0A000336EA8819B1808332A0023A920002C6105
:10F0B000FFF7DEF80AABDB88A34216D00AAB9A1D35
:10F0C0001388A34208DD3B6821005B69380098473C
:10F0D00032ABE0540134F1E7316E019B8C4663445E
:10F0E0001889002132ABFFF7B1FD059B0133DBB27C
:10F0F0000593A9E62800FEF74EFBA4239B01984246
:10F1000000D0A1E62C1E00D02C1F251D2800FEF7E4
:10F1100040FB4F4908F068FD002800D194E6280024
:10F12000FEF737FB4C4908F05FFD002800D18BE665
:10F130002800FEF72EFB494908F056FD002800D1B3
:10F1400082E62800FEF725FB424908F04DFD002825
:10F1500000D179E623682000DB68984723AD0AAB2D
:10F16000988118AF14220021280007F082FE0322A4
:10F170000021380007F07DFE0223BB7023682000C9
:10F18000DB6898470AAB9B8980B2C01A0121421EF6
:10F190009041BA788A431043F268B870002A25D0AB
:10F1A00021223A702B8110AA23682A6018AADB68F2
:10F1B0006A60200098470027A8810BAA23A938007D
:10F1C0002F61FFF757F80DAB1B88BB4200D13BE620
:10F1D0003D000DAA1388AB420ADD236829001B6994
:10F1E0002000984732ABE8540135F2E71122D8E706
:10F1F0000BAB1888002132ABFFF728FD24E6002571
:10F20000099BAB422ED01C002F00023CE4B225002B
:10F21000BC4227DD7B9ABB00D5582800FEF7BBFA1D
:10F22000A0239B01984206D1320064321378013347
:10F2300013700137EBE72800FEF7ADFA084B984250
:10F24000F7D132006D32F1E728A70200111100005A
:10F25000829C0200F4A70200F9A70200FEA70200A8
:10F260000328000033000C2064331B78AD005843A2
:10F2700007F0AEFD3300B0666D331878000107F07B
:10F28000A7FD7B9F30677B190493002302930193B2
:10F290000393049BBB426ED03C682000FEF779FAD2
:10F2A000010032A8FEF792FF32A8FEF7B9FF050071
:10F2B00032A8FEF7B7FF022825D16A782B78120210
:10F2C0001DA913430B8001238B702000FEF763FA06
:10F2D000A0239B0198422DD10C20019B1D9A5843DD
:10F2E000B36E00211C50B36E1B185A60B36E04221B
:10F2F0001818083007F0BDFD019B03940133DBB201
:10F3000001930437C5E72900102223A807F095FDD3
:10F310006A7B2B7B1202134370211DAA13800023EA
:10F320000AAA5218138022390AABC91823A8FEF77B
:10F33000AFFFCAE72000FEF72EFA194B9842E0D142
:10F34000221E00D0221F029B316F1B01CA50326F58
:10F350000399D2185160326F1D99D2189160002123
:10F36000326FD2181173326FD318D981029B0133D7
:10F37000DBB20293C5E7F06800280AD000F09EF8DF
:10F38000002806D031001C2300223C31F06800F038
:10F39000B9F8336830009B69984773B0F0BDC04638
:10F3A000032800000123F0B5040000278BB0029170
:10F3B000019323005D331B78BB4255DD14257D434B
:10F3C000236E5D192E68029B9E4247D1626B934269
:10F3D00004D1236802995B6A2000984733683000A3
:10F3E0001B69984704ABD8802B893000039333689E
:10F3F00006AEDB68984704AA030006320021039892
:10F40000FFF724FC0A2004ABC0180E22002107F0ED
:10F4100030FD2B89338004AB0633B3602B7C002B8B
:10F420000CD022005C321378002B19D0013B1370F2
:10F430000123B370208F3100FEF720FF6B7C002B7F
:10F440000CD022005C321378002B0BD0013B1370E0
:10F450000223B370208F3100FEF710FF0137A8E7B9
:10F460000193EBE70193F9E701980BB0F0BD0000C1
:10F4700010B5040000F07AF80D4B0021083323602A
:10F4800023003333197001235B42238720002300BC
:10F490003C305C3361631C22198021661972A166BD
:10F4A000198221671976A06507F0E3FC200010BDE2
:10F4B00004A8020029DF704728DF70470368186836
:10F4C0000130431E9841C0B2704780235B0510B5E0
:10F4D0001969006804F0F0FB04002000FFF7ECFF5E
:10F4E0001128FAD010BD70B51C0005000E00FFF702
:10F4F000ECFFA408220031002868FFF7DBFF112889
:10F50000F8D070BD002210B500689A4203D284582A
:10F510008C500432F9E710BD7047704770470020E7
:10F5200070477047704700207047002070470020E8
:10F53000704700207047002070470020704700206F
:10F54000704700207047002070470020704700205F
:10F55000704700207047704770477047704710B57C
:10F56000040000F0D1FE200010BD0000054B012278
:10F570000833036064234360002382720381C36005
:10F580000361704768A8020001617047012070475D
:10F590000379032BFCD00120704700207047817154
:10F5A000704741717047C172704701737047417372
:10F5B0007047837B9343194381737047C079C0B20E
:10F5C0007047007AC0B27047407AC0B27047807A04
:10F5D000C0B27047008A00B270470079C0B270476D
:10F5E00001717047408A80B27047808A80B270474C
:10F5F000C08A80B2704770B505000C002B682800E7
:10F60000DB689847002805D1002CF7D0200000F0D7
:10F610001DFEF3E770BDF8B505000F00140000F003
:10F62000FDFD060000F0FAFD801BB8420BD22B68EE
:10F630002800DB689847002806D1002CF2D0200073
:10F6400000F004FEEEE70020F8BD70B504000E00E7
:10F6500000F0E4FD050000F0E1FD401BB04204D2E3
:10F660002379032BF7D0012070BD0020FCE7C3698C
:10F6700070B50400002B17D000F0D0FD6425060003
:10F68000236820001B6B984700280DD000F0C6FDB2
:10F69000E369801B984209D80A21012000F01DFC73
:10F6A000684300F0D3FDEBE7012070BD0020FCE7CC
:10F6B000074BFF220360002342710371C272438231
:10F6C0000273838243738373C382C3617047C046EE
:10F6D000D4A8020070477047704770477047417167
:10F6E00070478171704701717047000010B5034C7D
:10F6F0000171083404604271837110BD4CA902008D
:10F7000010B50400006A0368DB689847631DD87F62
:10F71000FF2802D0012100F0FDFE23682000DB6FEE
:10F720009847642000F092FD012010BD10B505300F
:10F73000C07F002100F00CFF10BD10B50530C07F68
:10F74000012100F005FF10BD70B504000D0016008A
:10F75000FFF7AEFF034B26622360631DDD772000B9
:10F7600070BDC04688A9020070B50400006A15008B
:10F7700003680E001B6A9847236820009B6F984718
:10F780001021206A314303681B6898470600206AED
:10F79000290003681B68984701200138C046C0460D
:10F7A000C046C046C046C046C046C046C046C04629
:10F7B000C046C046F1D123682000DB6F9847206A1D
:10F7C00003685B6A9847300070BDF7B506000D000E
:10F7D0000C008B180193019B671B9C4207D0336878
:10F7E00021781B683000984701340028F3D1380095
:10F7F000FEBD70B5040008000D0008F007FA23688C
:10F80000020029005B682000984770BD10B50B1EF0
:10F8100002D0FFF7EEFF0300180010BD10B5FFF790
:10F82000F5FF10BD10B503688A685B6809689847E2
:10F8300010BD10B5FFF7EAFF10BD10B503681B68D7
:10F84000984710BD10B50249FFF7D3FF10BDC04661
:10F8500096AA020070B50400FFF7D8FF050020004B
:10F86000FFF7F0FF401970BD70B50500FFF7DAFF34
:10F8700004002800FFF7E6FF201870BD70B50400F3
:10F88000FFF7C4FF05002000FFF7DCFF401970BD43
:10F89000F0B58BB06B461500002205330600DA7711
:10F8A0000800012D00D80A2509AC290004F08AFAC5
:10F8B000CAB2130037330700DBB2092902D813009C
:10F8C0003033DBB2013C2370002FEED12100300039
:10F8D000FFF79CFF0BB0F0BDF8B506000C00151E3D
:10F8E00004D10368C9B21B689847F8BD0A2A0CD135
:10F8F00000290BDA2D21FFF7A0FF614207002A0043
:10F900003000FFF7C5FF3818EFE7D2B22100300012
:10F91000FFF7BEFFE9E710B5FFF7DEFF10BD70B5DA
:10F920000400FFF7D9FF05002000FFF78BFF401907
:10F9300070BD10B5002A04D10368C9B21B6898478E
:10F9400010BDD2B2FFF7A4FFFAE770B50500FFF7CC
:10F95000F0FF04002800FFF775FF201870BD0000BD
:10F96000F7B51E0008AB1B7831000193050033008A
:10F970001000170006F0DEFF4B49002814D10122C9
:10F98000740064085242494B3800210006F0D2FF4F
:10F9900000280FD10122454B52423800210004F0CB
:10F9A00021FB002806D142492800FFF722FF04006E
:10F9B0002000FEBDE0223F4B12063800310004F06B
:10F9C0001BFB002801D03C49EEE7E0223B4B12062E
:10F9D0003800310004F0FCFA0028F4D100220023A2
:10F9E0003800310004F0F4FA041E07D02D2128005D
:10F9F000FFF723FF802304001B06F61800230020D6
:10FA00002F490093019B009A934208D02D4B00226E
:10FA100005F0CCFD009B0133DBB20093F2E733002D
:10FA20003A0005F0A7FA0F00060004F05DFB0A2279
:10FA3000019001002800FFF72BFF009B0419002B09
:10FA4000B6D0019807F002F802000B003000390030
:10FA500006F028FC06000F0028001B49FFF7C9FE2E
:10FA60002418009B013BDBB20093FF2BA0D0154B69
:10FA700000223000390006F0A3F90F00060006F05E
:10FA800075FF0A22010001902800FFF725FF2418C6
:10FA9000019806F0A1FF02000B003000390006F0CB
:10FAA00001FC06000F00DCE788AA0200FFFFEF7FE1
:10FAB0008CAA0200FFFFEF4190AA0200FFFFEFC1F6
:10FAC0000000E03F0000244094AA020037B519006E
:10FAD0000400069B2000DBB200930B00FFF740FF01
:10FAE00005002000FFF7AEFE40193EBD03210A4885
:10FAF00002680A430260094802680A430260084932
:10FB0000084A094B9B1A03DD043BC858D050FBDC64
:10FB100000F012F8FBF7F8FA240500405405004005
:10FB2000C8B6020080200020E8220020FEE7FEE7A1
:10FB3000FEE7FEE7FEE7FEE7014B024A1A60704768
:10FB4000B02000200024F4000120704710B50368A5
:10FB50001322DB69984710BD70470000054B02690E
:10FB6000D1500369FC331A6A002AFCD0002201201C
:10FB70001A6270471C050000030010B55C331A7848
:10FB80001F231A401E3B19009140114AD167C2221F
:10FB9000042104699200A150026953600269D36094
:10FBA000A02300220169DB00CA5001230169094A30
:10FBB0005B428B500169084A8B5001690C3A8B50AB
:10FBC000016908328B50143000F000FD10BDC046B2
:10FBD00004E100E00C0500001405000010B514302D
:10FBE00000F006FD10BD10B5143000F007FD10BD8B
:10FBF00010B5143000F0EEFC10BD0000030070B52D
:10FC00005E331A780469724BE25003005D331A7850
:10FC10000469704BE250030061331C7802696E4B3B
:10FC2000012C00D09EE005005F352E78A225ED0066
:10FC30005651020060321578A1220669D200B550F3
:10FC40000269D4509623DB00994200D88CE09623B9
:10FC50001B01994200D88AE096235B01994200D8A3
:10FC600088E096239B01994200D885E0E1239B011F
:10FC7000994200D882E09623DB01994200D880E0C7
:10FC8000E123DB01994200D87DE096231B029942D3
:10FC900000D87AE0E1231B02994200D877E096234E
:10FCA0005B02994200D874E0E1235B02994200D8DC
:10FCB00071E0E1239B02994200D86EE0474B9942E4
:10FCC00000D86CE0E123DB02994200D86AE0E1222F
:10FCD000002312038A425B41414A5B421340802267
:10FCE00052059B1801693F4A8B50A02304220169E9
:10FCF000DB00CA5000210369FC33D9600369FC337F
:10FD00001962012301690B6001698B60C1210469DB
:10FD1000890062501F215C3002780A4093406231B2
:10FD2000314AFF3153500021415600293CDA0F235C
:10FD30000B40083B2D4C9B089B001B1903242140C2
:10FD4000A140FC348C40DD69A5432C00C0258D40CA
:10FD500029002143D9611F23017819401E3B8B40A4
:10FD6000136070BD00246CE79E23DB02BAE79D237D
:10FD70001B03B7E71E4BB5E71E4BB3E7EC239B0312
:10FD8000B0E71D4BAEE71D4BACE71D4BAAE71D4B83
:10FD9000A8E71D4BA6E71D4BA4E71D4BA2E7802358
:10FDA000DB049FE71B4B9DE78C080F4BA400E41876
:10FDB00003230B40FF21C025DB009940AD006659AD
:10FDC0008E433100C0269E4033000B436351C2E78F
:10FDD0000C050000140500006C05000090D0030025
:10FDE00000D0BEFE2405000000E100E000ED00E0D0
:10FDF00000B013000050270000A04E0000F0750076
:10FE000000509D0000F0EB0000903A0100E0D701A7
:10FE100000B0AF0300705F07F7B5009308AB1B7825
:10FE200000250193FA2304009B0083600E4B45607C
:10FE30000833036014300F00160000F0B1FB2300FC
:10FE40005C3327611E70009B084A9B009958230071
:10FE50005D331970019B20009B009A5823005E338C
:10FE6000DD701A70FEBDC0469CAA020008AA0200FE
:10FE7000036910B51A00FC32D2680400002A0AD0C7
:10FE8000A322D20099581430C9B200F094FB00228A
:10FE90002369FC33DA6010BD10B50248FFF7E8FFB4
:10FEA00010BDC0461C2D0020092307B50222009377
:10FEB00002490D330248FFF7AFFF07BD00200040A5
:10FEC0001C2D002010B5041E05D007F01FFE2100D8
:10FED00004F062F80C00200010BD10B50400884248
:10FEE00003DA081AFFF7EEFF2418200010BD10B542
:10FEF0000400006806F076FF200010BD10B5040075
:10FF00000068002801D006F06DFF00232360A36085
:10FF1000636010BD70B504000D000068013107F08A
:10FF200027FE031E01D0012028C470BD036810B550
:10FF30000400002B04D043688B4201D3012010BD84
:10FF40002000FFF7E7FF0028F9D0A368002BF5D1C8
:10FF500022681370F2E770B50E001100040015005E
:10FF6000FFF7E4FF002804D12000FFF7C7FF2000BF
:10FF700070BDA5603100206807F040FEF7E7002360
:10FF800070B504000D00036043608360994207D0A0
:10FF9000080007F03BFE290002002000FFF7DBFF0E
:10FFA000200070BD70B5050008000C0007F02EFEA3
:10FFB000210002002800FFF7CEFF70BD1FB504002E
:10FFC0000023080023606360A36001A907F002FF1B
:10FFD000200001A9FFF7E6FF200004B010BD10B516
:10FFE000002304008AB023606360A360080001A9B5
:10FFF00006F0E6FE200001A9FFF7D4FF20000AB0BA
:020000022000DC
:1000000010BD10B5002304008AB023606360A360B4
:10001000080001A900F037F9200001A9FFF7C2FF8D
:1000200020000AB010BD70B5050000680C00002863
:100030000DD06B688A68934207D3096807F0DEFD2C
:10004000A368AB600023A36070BD06F0CBFE2368FD
:100050002B6063686B60A368AB6000232360636000
:10006000F1E710B50B000400884205D009680029AB
:1000700004D09A68FFF76FFF200010BDFFF73EFF26
:10008000FAE7002310B50400036043608360FFF7C4
:10009000E8FF200010BD10B50400884201D0FFF732
:1000A000C2FF200010BD10B50400002903D0FFF7E7
:1000B00079FF200010BDFFF721FFFAE7002370B59C
:1000C00016008CB00400036043608360951C081C1C
:1000D00006F0EEFC6DB203AB00932A00330000F093
:1000E00089F801002000FFF7DEFF20000CB070BD92
:1000F00030B50400100000228DB0190010AB1B7841
:1001000022606260A26003AD9A1C52B2009500F0BA
:1001100071F801002000FFF7C6FF20000DB030BDD0
:10012000F8B504000F1E02D100263000F8BD0126EC
:10013000002AFAD08368D5182900FFF7F7FE0028B7
:10014000F2D02368A2683900981807F057FDA5601F
:10015000EBE710B58A680968FFF7E2FF10BD70B5DC
:10016000050000200C00814207D0080007F04EFD7A
:10017000210002002800FFF7D3FF70BD10B58A6888
:1001800009680400FFF7CCFF002802D12000FFF728
:10019000B5FE200010BD70B504000D1E04D1200076
:1001A000FFF7ACFE200070BD080007F02FFD29000E
:1001B00002002000FFF7B4FF0028F0D0F2E770B58E
:1001C0000D00002A06D0002904D084689C4202D881
:1001D00000230B7070BD013AE41A944200D9140058
:1001E00001682200C918280007F017FD00232B55CD
:1001F000F0E7FEE730B5040087B00D00064901A81E
:1002000007F0D2FC22002B0001A90A9807F0CCFCD1
:100210000A9807B030BDC046CCAA02000849094A76
:10022000094B10B51B688858FA22190A1B06184397
:100230009200002303F02EFF4904C00B084310BDB9
:100240000010014004050000802D002070B5041E40
:1002500009D0FFF7E3FF050000F014F8FFF7DEFF19
:10026000401BA042F8D370BD0022044B9A60044AA0
:1002700013680133DBB213607047C046FC100140C5
:10028000802D00207047F0B50D008BB017000029BD
:100290000ED0931E222B1FD801AC2600230000286D
:1002A00009D1A64207D02A00B34210D80023137008
:1002B00028000BB0F0BD390003F084FDCBB2092952
:1002C00003D8303323700134E8E75733FAE7013BB2
:1002D000197811700132E7E70025E9E7704700005F
:1002E00010B500F015F8FFF7F9FF0120FFF7AEFF9A
:1002F000FCF7C8FFFCF7E8FD024B002BFAD000E04A
:1003000000BFF7E70000000010B506F06BFD10BD60
:10031000C420114B80001A5810491140C02212020B
:100320000A431A50C0218022490092025A501A6092
:10033000A321802301220020DB05C9005A509A60C6
:10034000074B10395850C12002218000195040300D
:1003500019501A607047C04600E100E0FF00FFFF3F
:1003600000100140014B18607047C046F820002083
:10037000F7B500231E285AD8384B8000C258042AEB
:100380005BD007D8022A54D055D80423012A09D0BB
:1003900000234CE0062A54D051D31A2A53D002230A
:1003A0001B2AF5D12E4A116808294ED909294FD0A8
:1003B0000A240226A02001252A4AC00015502A48F6
:1003C0002A4D07681C20BF00074029480197006894
:1003D0005759009027481B0207401F43C02300982D
:1003E0009B020340FF2057515759000207401F430B
:1003F000019B1F43009B58016023184007433E4365
:10040000565101251C4B156058680028FCD000206F
:100410005860A1230125DB00D3585560A025ED00CD
:1004200050511BB2A14202D015D2611ACB40180024
:10043000FEBD0823B6E71023B4E72023B2E740232C
:10044000B0E78023AEE70123ACE708240026B1E73C
:100450000C000126AEE7091B8B40E8E708AA020062
:10046000F820002000700040B420002004050000A7
:10047000B8200020FF00FFFFFC7000402149F0B5CC
:100480004A6C2148002A14D0A025A126002301246B
:10049000ED05F600C258571C06D0C7187F68002F1C
:1004A00002D027009740AF5114333C2BF2D10023E8
:1004B0004B64A0230121DB0500260F009C4614237A
:1004C0004B43C3181A1F1268104C0E4D920014199A
:1004D0005219526C002A10D01A00143A1268551C96
:1004E00009D0103B1B68FF2B05D03B0093406546AD
:1004F0001A00074BEA50FC34666401310429DED14E
:10050000F0BDC046FC900040BC20002000900040A0
:100510000C05000000B51E2810D80C4A8000835836
:1005200003290BD8A0220800C133FF33D2059B005A
:1005300003F0B8FB020905070021D15000BD0C21D2
:10054000FBE70421F9E70321F7E7C04608AA020008
:100550001E280AD8074B8000C25801239340A022CE
:10056000D205002902D1044953507047A121C90086
:10057000FAE7C04608AA02000C05000003000020AC
:100580001E2B0AD8A021A222C905D2008858034AEE
:100590009B009B58D84001231840704708AA0200CE
:1005A00010B540220021040006F063FC0023200067
:1005B0002364636410BD10B53F24026C531C2340B8
:1005C000446C9C4201D08154036410BD0023036439
:1005D00043647047436C026C934206D03F21C25C77
:1005E00001330B4043641000704701204042FBE799
:1005F000036C406C181A00D540307047436C026C95
:10060000934201D0C05C704701204042FBE70000EC
:10061000F0B5DE4657464E464546E0B585B00193F7
:10062000030010CB03919A460B00013B9B469B08AD
:10063000009202936ED001339B00994600235546E9
:10064000042698462F68201C391C03F00FFD002853
:1006500002D0F31E98463C1C6F68201C391C03F026
:1006600005FD002802D0B31E98463C1CAF68201C34
:10067000391C03F0FBFC002802D0731E98463C1C7A
:10068000EF68201C391C03F0F1FC002801D0B046B3
:100690003C1C043610354E45D4D1029B1B019A44B4
:1006A00003235D465A461D40134222D053461E681E
:1006B000211C301C03F0C6FC002826D16E1E012D23
:1006C00017D053465D68201C291C03F0CFFC00287E
:1006D00003D0039B2C1C9B1B9846012E09D053462C
:1006E0009D68201C291C03F0C1FC002801D0D846BD
:1006F0002C1C4246009B1C60019B1A6005B03CBC50
:1007000090469946A246AB46F0BD039B341C5B1B4A
:100710009846D3E700239846C2E7C046F0B5DE46C8
:1007200057464E464546E0B585B00193030010CBD1
:1007300003919A460B00013B9B469B080092029353
:100740006ED001339B0099460023554604269846F7
:100750002F68201C391C03F075FC002802D0F31E02
:1007600098463C1C6F68201C391C03F06BFC002869
:1007700002D0B31E98463C1CAF68201C391C03F005
:1007800061FC002802D0731E98463C1CEF68201CB8
:10079000391C03F057FC002801D0B0463C1C04363D
:1007A00010354E45D4D1029B1B019A4403235D466C
:1007B0005A461D40134222D053461E68211C301C4D
:1007C00003F054FC002826D16E1E012D17D053468D
:1007D0005D68201C291C03F035FC002803D0039B16
:1007E0002C1C9B1B9846012E09D053469D68201C4B
:1007F000291C03F027FC002801D0D8462C1C4246B7
:10080000009B1C60019B1A6005B03CBC9046994659
:10081000A246AB46F0BD039B341C5B1B9846D3E756
:1008200000239846C2E7C046F0B54E46DE4657461E
:100830004546E0B503888C469A00160066440C00D5
:10084000B44693B0119159081091890042680E90F6
:100850000F966018DB086144002B00D119E1A24615
:100860001B015344B146A0468A46834600920D932D
:1008700048464246406852680290584601925A469D
:10088000406812680990584603925A46C0689268B8
:100890000B9050460A9252464146406812684346C1
:1008A000059050468E68CC68049249465246C0680E
:1008B0001B68926809680C90181C06924D460891B6
:1008C000079303F02FFC4346AF680299ED68186068
:1008D000019803F027FC4346391C5860301C03F094
:1008E00021FC4346291C9860201C03F01BFC434656
:1008F0000899D860079804F0B9F802990790019810
:1009000004F0B4F8391C0190301C04F0AFF8291C35
:100910000290201C04F0AAF804990890039803F0B0
:1009200001FC5B46099D05991860281C03F0FAFB41
:100930005B460A9F06995860381C03F0F3FB5B4640
:100940000C9E0B9C9860311C201C03F0EBFB5B465B
:100950000399D860049804F089F8291C039005983D
:1009600004F084F8391C051C069804F07FF8211C5B
:100970000490301C04F07AF8009F05903C680798BA
:10098000211C03F041FF7E68071C311C019803F015
:100990003BFF011C381C03F0C5FB4B46211C1860B3
:1009A000019803F031FF311C071C079803F02CFF5E
:1009B000011C381C04F05AF84B46311C586003984F
:1009C00003F022FF211C071C281C03F01DFF011C43
:1009D000381C04F04BF85346311C1860281C03F0F7
:1009E00013FF211C051C039803F00EFF011C281C9B
:1009F00003F098FB5346009F5860BC680298211C86
:100A000003F002FFFD68061C291C089803F0FCFE99
:100A1000011C301C03F086FB4B46211C9860089893
:100A200003F0F2FE291C061C029803F0EDFE011CE7
:100A3000301C04F01BF84B46291CD860049803F0C6
:100A4000E3FE211C061C059803F0DEFE011C301C91
:100A500004F00CF85346291C9860059803F0D4FE66
:100A6000211C051C049803F0CFFE011C281C03F078
:100A700059FB5346D86010239C46103700970D9BB6
:100A8000E044E344E244E144984500D0F0E60E9BA4
:100A90005A686B4640215B181C881198210002237C
:100AA00001F014FA0E9B21005A680F98022301F0FE
:100AB0000DFA13B03CBC90469946A246AB46F0BD39
:100AC000F0B5DE4657464E4645468C46E0B50388AF
