:020000021000EC
:10B000000040002029F5010069F501006BF5010001
:10B010000000000000000000000000000000000030
:10B020000000000000000000000000006DF50100BD
:10B0300000000000000000006FF5010071F5010044
:10B0400073F5010073F50100D5F8010073F50100F7
:10B0500073F501000000000073F5010073F50100B5
:10B0600073F50100ADFD010073F5010073F50100FA
:10B0700073F5010073F5010073F5010073F501002C
:10B0800073F50100A5FC010073F5010073F50100E3
:10B0900073F5010073F501009DD0010073F5010007
:10B0A00073F5010073F501000000000000000000CE
:10B0B0000000000000000000000000000000000090
:10B0C00010B5064C2378002B07D1054B002B02D07E
:10B0D000044800E000BF0123237010BDCC220020F3
:10B0E000000000007CAE0200044B10B5002B03D022
:10B0F0000349044800E000BF10BDC0460000000046
:10B10000D02200207CAE0200164B002B00D1144B45
:10B110009D46402292029A1A924600218B460F4683
:10B120001348144A121A0BF03CFB0F4B002B00D0B3
:10B1300098470E4B002B00D09847002000210400B8
:10B140000D000D48002802D00C4800E000BF0BF0B5
:10B1500093FA2000290004F0E1FD0BF067FAC046E5
:10B160000000080000400020000000000000000077
:10B17000CC220020502B0020000000000000000026
:10B1800010B5040002F046FAC6235B00E058043311
:10B19000E3581430C01A142108F0ACFA080010BDAE
:10B1A00008B4034B9C46034BC01A08BC6047C0461A
:10B1B00081B101007801000010B5040002F02AFA04
:10B1C000C823C6225B005200E358A258934204D021
:10B1D000E4189534FF34207810BD01204042FBE78D
:10B1E00008B4034B9C46034BC01A08BC6047C046DA
:10B1F000B9B101007801000070B50400C82502F063
:10B2000009FAC6236D005B006059E358984209D0E3
:10B210000130142108F06EFA615164189534FF343E
:10B22000207870BD01204042FBE7000008B4034BCA
:10B230009C46034BC01A08BC6047C046F9B10100E8
:10B240007801000010B502F00EFA10BD70B50400D0
:10B250000D0002F0DFF987239B00E01802F082F86E
:10B260000026B0420FD0D4214900635801365A1C41
:10B27000E318AD33FF3362501D70142A03D12368E5
:10B280002000DB6E9847300070BD000008B4034B0F
:10B290009C46034BC01A08BC6047C0464DB2010033
:10B2A00078010000F7B5040002F07AFB2300FA22CF
:10B2B00000257933FF3392005D609A60394B260098
:10B2C0002360394B394A6360394BC136A360230090
:10B2D000FF36FC33DA673000364902F02EFC2000DE
:10B2E000354FC9303900354AFF3002F061F823008C
:10B2F000E133FF330193042214233149019802F012
:10B3000005F881239B003900E0182E4A02F050F81E
:10B3100087239B00E018102214232B4901F0F6FF2D
:10B3200090239B00294A3900E01802F041F8D42309
:10B330005B00E550183BE550043BE550043BE5500D
:10B34000234B310020001C6002F0DBFA2100CD31DC
:10B35000FF31200002F0D5FA300001F04CFF01006F
:10B36000200002F063F92100E5312000FF3102F0F6
:10B37000C8FA82239B00E118200002F0C2FA154AA5
:10B380002900019801F0FEFF88239B00E1182000AE
:10B3900002F0B7FA91239B002000E11802F0B1FA05
:10B3A0002000FEBD40960200C096020000970200F9
:10B3B000D896020088950200B2950200AD95020071
:10B3C000B7950200DC950200F69502001B9602007C
:10B3D000E82200203DB401000FB410B5029802F03D
:10B3E0006BF910BC08BC04B0184710B5040004F099
:10B3F00033FCC4235B00E3586433984203D32368CF
:10B400002000DB6E9847200002F004F910BDF8B56B
:10B41000C62705000C008E187F00B4420CD0EB59F3
:10B420001421581C08F066F9E95169182378953100
:10B43000FF310B700134F0E7F8BD0000094B70B527
:10B440001D680B680C000800DB689847236806003D
:10B450001B6920009847310002002800FFF7D7FF42
:10B4600070BDC046E822002070B5D4256D00425959
:10B470000400002A12D001008723AD319B00C018C0
:10B48000D2B2FF3101F02BFF04F0E6FBC4235B00D6
:10B49000E05000232000635102F0BCF870BD0000B2
:10B4A00008B4034B9C46034BC01A08BC6047C04617
:10B4B00069B4010078010000144B10B50360144B0F
:10B4C000144A4360144B040083600300FC33DA67C2
:10B4D00090239B00C01801F05DFF87239B00E018BC
:10B4E00001F0E6FE81239B00E01801F053FF2000ED
:10B4F000E130FF3001F0DCFE2000C930FF3001F008
:10B5000049FF200002F002FA200010BD4096020020
:10B51000C096020000970200D896020010B5040001
:10B52000FFF7CAFF200004F00DFC200010BD000052
:10B5300010B5024801F030FE10BDC046A42A00201C
:10B5400010B5024801F03AFE10BDC046A42A002002
:10B5500010B5024801F033FE10BDC046A42A0020F9
:10B5600010B5024801F00AFE10BDC046A42A002012
:10B5700010B508300EC8024801F008FE10BDC046E4
:10B58000A42A002010B5024801F005FE10BDC046F7
:10B59000A42A002010B5024801F0F7FD10BDC046F6
:10B5A000A42A002010B5164CA14208D88021890495
:10B5B000013A0160511E8A418260037110BD114C35
:10B5C000A14202D88021C904F2E70F4CA14202D85F
:10B5D00080210905ECE70D4CA14202D880214905E4
:10B5E000E6E70B4CA14202D880218905E0E7094C2F
:10B5F000A14202D88021C905DAE780210906D7E7F0
:10B6000048E8010090D0030020A1070040420F004D
:10B6100080841E0000093D00F0B587B000900479D9
:10B62000042C3BD0032C3BD0022C3BD0013C63428A
:10B630005C411F4B64421C40E418009B02275B796D
:10B640000193009B9B79002B0AD00027012B07D088
:10B650000337022B04D0033B1F007B1E9F410137A1
:10B6600003AD3B00002221002800FFF79BFF2A00CA
:10B67000009B083343CA43C3009E019B0836012B3D
:10B6800012D13B00002221002800FFF78BFF0ECDD6
:10B690000EC6084801F056FD07B0F0BD064CCCE7D9
:10B6A000064CCAE7064CC8E73B000122EBE7C04660
:10B6B00040420F00A42A00200024F40000127A0067
:10B6C00000093D0010B5040003F02CFD054B2000DF
:10B6D000083323608023DB05A3600023236102334A
:10B6E000237310BD18970200002310B51A0019002B
:10B6F0000148FFF7E7FF10BDEC220020BFF34F8F9A
:10B70000034B044ADA60BFF34F8FC046FDE7C046E3
:10B7100000ED00E00400FA050120704701207047A9
:10B720000120704732207047704710B5040004F0C4
:10B7300009FB200010BD000010B504001A0003F042
:10B740001FFD044BA21D23600023D377E21D2000C0
:10B75000D37710BD6897020070B504001A491B48E2
:10B7600003F0A4FD206A03681B6A98472368200041
:10B770009B6F9847206A302103681B689847050033
:10B78000206A002103681B68984701200138C046E1
:10B79000C046C046C046C046C046C046C046C04679
:10B7A000C046C046C046F1D123682000DB6F9847F1
:10B7B000206A03685B6A9847642004F065FA681E93
:10B7C0008541E8B270BDC04659970200D82A0020D2
:10B7D00070B5012603250400831DDE77C31DDD77C8
:10B7E000E622002103F0DCFC31004022200003F0BF
:10B7F000D7FC06220221200003F0D2FC290084227B
:10B80000200003F0CDFC70BD70B5050003F094FC82
:10B81000041E0AD02800FFF79FFF054904000548D1
:10B8200003F044FD2800FFF7D3FF200070BDC046A1
:10B8300054970200D82A002070B501250326040081
:10B84000831DDD77C31DDE777822002103F0A8FC7D
:10B8500029006022200003F0A3FC2A00022120001E
:10B8600003F09EFC31008422200003F099FC70BD9F
:10B8700070B5050014200C0004F006FA012C08D164
:10B8800009490A4803F012FD2800FFF7A1FF012033
:10B8900070BD0020022CFBD10549044803F006FDD1
:10B8A0002800FFF7C9FFF2E74C970200D82A0020D2
:10B8B0005097020070B50400006A0D0003681B6A0F
:10B8C0009847236820009B6F98470221206A2943EC
:10B8D00003681B689847206A002103681B68984723
:10B8E000050023682000DB6F9847206A03685B6AC5
:10B8F0009847280070BD39DF70473ADF70474DDF49
:10B900007047000070B50C4C0C49200003F0CEFCD1
:10B910000B4D01212800FFF7CDFF0A220100200076
:10B9200003F011FD28000221FFF7C4FF0A220100E5
:10B93000200003F008FD70BD002600208C9A020054
:10B940000029002070B50C00294D2A49280003F079
:10B95000ADFC23682000DB68984704780A22303C5D
:10B96000E4B22100280003F004FD002C0FD122498D
:10B97000280003F09BFC01210C2004F081FAC82070
:10B9800004F082F921000C2004F07AFA70BD012C39
:10B990000DD11A49280003F089FC21000D2004F084
:10B9A0006FFAC82004F070F900210D20ECE7022C9A
:10B9B0000DD11349280003F079FC01210F2004F078
:10B9C0005FFAC82004F060F900210F20DCE7032CA7
:10B9D000DCD10C49280003F069FC01210E2004F0A1
:10B9E0004FFAC82004F050F900210E20CCE7C046E1
:10B9F00000260020F39B02001B9C02002A9C0200F0
:10BA00003A9C0200499C020010B50400024B0360FE
:10BA100001F04EFC200010BDAC9E020010B50400E9
:10BA2000024B0360FFF7F0FF200010BDF09702000B
:10BA300010B50400FFF7F2FF200004F083F92000A6
:10BA400010BD000010B50400024B0360FFF7E6FFD5
:10BA5000200010BD2098020010B50400FFF7F2FF8F
:10BA6000200004F06FF9200010BD00000B6870B5D5
:10BA7000DB68080098470F4D04780F49280003F051
:10BA800015FC21000A22280003F073FC2100303944
:10BA90004C1EA1412822094B013109481A70FFF7B9
:10BAA000E7FE0849002800D10749280003F0FEFB03
:10BAB00070BDC046D82A0020A69A02006427002044
:10BAC00000290020C19A0200DC9A020010B504008F
:10BAD000FFF79AFF200004F035F9200010BD13B5E0
:10BAE0006B46DC1C002323702378032B09D820002D
:10BAF000FFF701FF0028F7D000221100FFF7FEFD3D
:10BB0000F2E7042101A8FFF7F8FE002803D0002285
:10BB10001100FFF7F3FD019816BD0000F0B58DB0E0
:10BB2000FFF7DDFF04002D4E2D49300003F0BEFB72
:10BB300021000A22300003F026FC2A4F03AD220028
:10BB4000390028000BF0C8FC2900300003F0AEFBE0
:10BB5000254C2B7823706B786370AB78A370EB78EF
:10BB6000E3702B7923716B796371AB79A371EB79F6
:10BB700006ADE371FFF7B3FF0A2201900100300028
:10BB800003F001FC019A390028000BF0A5FC290004
:10BB9000300003F08BFB2B78210023726B7809A80F
:10BBA0006372AB78A372EB78E3722B7923736B79B2
:10BBB0006373AB79A373EB79E37303F0FEFE09A91A
:10BBC000300003F069FB09A803F0AFFE102221004A
:10BBD000064801F084FB0DB0F0BDC046D82A002015
:10BBE0006C9A02007C9A0200842000202827002002
:10BBF00070B594B007AD1022002128000AF0D1FDE5
:10BC000000223C49535CAB540132102AFAD13A4E1F
:10BC10002900300010300AF0A8FD3000FFF76FFE59
:10BC2000364C3749200003F041FB0023F218127C08
:10BC3000EA540133102BF9D129000BA803F0BDFE03
:10BC40000BA9200003F028FB0BA803F06EFE2D4982
:10BC5000200003F02BFB0023F25CEA540133102B8D
:10BC6000FAD129000BA803F0A8FE0BA9200003F0CD
:10BC700013FB0BA803F059FE2349200003F016FB29
:10BC800000252B002033F25C68000BAB18181F490D
:10BC900001350BF021FC102DF3D10BA904A803F002
:10BCA0008CFE04A9200003F0F7FA04A803F03DFE7F
:10BCB000174D0BA9202228000AF057FD00226B1C0B
:10BCC000144904A8DA7703F078FE290001A803F0EC
:10BCD00074FE01A904A803F06FFF0100200003F027
:10BCE000DBFA01A803F021FE04A803F01EFE14B045
:10BCF00070BDC046842000201C240020D82A0020CB
:10BD00003C9A0200479A0200509A0200579A020099
:10BD1000002A00205C9A020070B506000D00002485
:10BD2000B4420CDA0121122004F0AAF8280003F032
:10BD3000ABFF0021122004F0A3F80134F0E770BD3E
:10BD400070B505000B4C0C49200003F083FA280065
:10BD500001F066FA0100200003F0A8FA0022074B68
:10BD60001A70FFF7DBFEFFF743FFC8210520FFF73E
:10BD7000D3FF70BDD82A0020FB9A020000230020C8
:10BD800070B50500094C0A49200003F063FA280049
:10BD900001F046FA0100200003F088FAC8210120D2
:10BDA000FFF7BAFF0022034B1A7070BDD82A00209B
:10BDB000D59B02000023002070B50500084C0949FE
:10BDC000200003F047FA280001F02AFA01002000C1
:10BDD00003F06CFAC8210120FFF79EFF70BDC0463A
:10BDE000D82A00203C9D0200A02210B50124114B4E
:10BDF000D2009C50104A114899580840802189016E
:10BE00000143FF20995099580002084069210143DD
:10BE100099500B491C604A68002AFCD000224A60F5
:10BE2000A121C900585801215960A021C90000B2C0
:10BE30005A5010BD0070004004050000FF00FFFFD5
:10BE4000FC700040F7B500AF7A606A46CB1DDB0896
:10BE5000DB00D31A9D467B680400DA17981850401F
:10BE60000D0007F031FD7B680E00002B11DD6D1A0F
:10BE70006119320068460AF078FC2A002100A019F6
:10BE80000AF07CFC3200694620000AF06EFCBD46D8
:10BE9000F7BD7B68002BFAD00A00AD1B2100684675
:10BEA0000AF063FCA1192A0020000AF067FC60195F
:10BEB00032006946E9E707B56B46D97107330122BD
:10BEC000190001F00CFA0EBDF0B5082087B003F0A0
:10BED000EDFF0700102003F0E9FF264C0600237851
:10BEE000254DBB4220D0254903A8277003F065FDEE
:10BEF0000A223900684603F090FD694603A803F062
:10BF00005BFE01001E4803F0C7F9684603F00DFD13
:10BF100003A803F00AFD2978237849003033C918B3
:10BF2000C9B21848FFF7C7FF2B78B34220D0164993
:10BF300003A82E7003F041FD0A223100684603F089
:10BF40006CFD694603A803F037FE01000C4803F0BE
:10BF5000A3F9684603F0E9FC03A803F0E6FC29789E
:10BF6000237849003033C918C9B20648FFF7A3FF48
:10BF700007B0F0BDC0290020C1290020829A02002C
:10BF80000026002084290020879A0200F0B5404C4A
:10BF90008DB00E0020003F4907AF03F087F9112252
:10BFA000002138000AF0FDFB002533683000DB6813
:10BFB0009847435D7B550135102DF6D1364904A8CD
:10BFC00003F0FBFC390001A803F0F7FC01A904A869
:10BFD00003F0F2FD0100200003F05EF901A803F078
:10BFE000A4FC04A803F0A1FC2C4904A803F0E5FC80
:10BFF0002B4901A803F0E1FC01A904A803F0DCFD32
:10C000000100200003F048F901A803F08EFC04A809
:10C0100003F08BFC234B1E78002E19D122492000FF
:10C0200003F044F91E4BBA5D9B5D9A4205D01F494F
:10C03000200003F03BF90DB0F0BD0136102EF1D118
:10C040001B49200003F032F90123164A1370F2E76E
:10C05000012EF0D11749200003F028F92B00103BE6
:10C06000FA5C0F4B5B5D9A4201D01349E0E7013562
:10C07000202DF3D11149200003F018F910492000B8
:10C0800003F014F931210F48FFF715FF0223DCE715
:10C09000D82A0020169B0200349B0200449B020019
:10C0A000002A002000230020579B02006B9B020007
:10C0B0007C9B02008F9B0200A39B0200B49B0200AA
:10C0C000C79B02004C240020F0B5F3B003F0C4FD80
:10C0D0000024059004940520FFF786FEE14B0290B2
:10C0E000186008F055FB0027DF4E029B3568285189
:10C0F0002D196F606C2B02DD049B01330493012129
:10C10000122003F0BDFE0021122003F0B9FE8023AF
:10C110000834DB009C42DED103F09EFD059B002429
:10C12000C01A0AF02BF9029003910021122003F0AB
:10C13000A7FE049B373B05933368CC49185907F099
:10C140002DFC431E98410125404205402900122044
:10C1500003F096FE02980399FE2300229B0509F046
:10C16000C7FA0AF09BF800280DD00138C046C04637
:10C17000C046C046C046C046C046C046C046C0468F
:10C18000C046C046F1D180230834DB009C42D3D1A5
:10C190000021122003F074FE059B122B00D9ECE263
:10C1A0000024B14B1D6863100593A300B049E85803
:10C1B000012607F0F3FB002800D1061CA0210AABE2
:10C1C00062105B189E54802302345B009C42EAD1CB
:10C1D000A84CFF3B266829000022A74804F0BCFCBD
:10C1E00031002800802205F045F920680DAB07607A
:10C1F0000CAA402103F02AFF0D9B0EAA206805938C
:10C200004021002303F09CFE0E9D0C98291C08F091
:10C21000C5F8802322681B06061CE918100040237D
:10C2200005F04CFAFE20311C800507F0ADFD2568B5
:10C23000011C2A002800402305F0DEF929AA11007C
:10C240008E4B61CB61C161CB61C161CB61C14025C6
:10C25000236809210133FF33009511A804F026FD5E
:10C26000236821685A1CFF322B0011A804F02EFD10
:10C270002468651C2200FF352E002B00F132FF32AE
:10C28000196902C39342FBD1F8235B00E7500433E2
:10C29000E7500433E7500433E75000270433E41831
:10C2A00001CE0AF09DF8764B764A07F029FB431E33
:10C2B00098413F18B442F3D1380008F0B3FAF221A4
:10C2C000890507F039FF10AB0FAA0790402128001D
:10C2D00003F0BCFE07980AF083F86A4A6A4B07F03D
:10C2E00023FB002800D148E2029A039B0020674903
:10C2F00008F0F4FD0AF0C6F80690059808F092FAE6
:10C30000069907F019FF0AF06BF80022604B09F05C
:10C31000EFF9FE2300229B0509F0EAF90AF0B2F8D2
:10C320005C490290069807F007FF059008F010FAA4
:10C3300009F0EAFF02000B000020574908F0CEFD8B
:10C3400008900991029808F003FA09F0DDFF534ABA
:10C35000534B09F0CDF90026002780240A900B9159
:10C36000089A099B3000390008F09CFA0A9A0B9B46
:10C3700006000F0009F0BCF905F0EAFE00220023D8
:10C38000012507F0DBFA002800D1051CA0220AAB2A
:10C390009B181D55802301345B009C42E0D1002591
:10C3A00080272E002C000122390052A8FFF74AFDF9
:10C3B00026AB3A0052A932A805F0D4F9269BB34225
:10C3C00001DD25001E000134802CECD12100002469
:10C3D0002A0052A8FFF736FD230032A9180080304A
:10C3E0005A5608560133121AD01712184240A41890
:10C3F000802BF3D12B4926A803F0DFFA0A22210073
:10C4000023A803F00AFB23A926A803F0D5FB264E98
:10C410000100300002F040FF23A803F086FA26A8AE
:10C4200003F083FA214D26A8290003F0C6FA022260
:10C43000059923A803F060FB23A926A803F0BCFB01
:10C440001B4C8027210003F0C4FB0100300002F0E8
:10C4500023FF23A803F069FA26A803F066FA15491A
:10C4600026A829E02C290020382900200000D842E5
:10C4700000006C433C29002098A20200489802006A
:10C480009999C93F9A9999999999E93F0000604013
:10C4900000408F4000007A440000F03F182D4454C3
:10C4A000FB211940599C020000260020639C0200D9
:10C4B000709C0200749C020003F07FFA0222029931
:10C4C00023A803F019FB23A926A803F075FBAC49A8
:10C4D00003F07FFB06000A22049920A803F09DFACE
:10C4E00020A9300003F068FB290003F072FB05006F
:10C4F000022205991DA803F0FFFA1DA9280003F0E8
:10C500005BFB210003F065FB9E4903F062FB040026
:10C51000022207991AA803F0EFFA1AA9200003F0E3
:10C520004BFB994903F055FB040002220C9917A814
:10C5300003F0E2FA17A9200003F03EFB0100934844
:10C5400002F0AAFE17A803F0F0F91AA803F0EDF91B
:10C550001DA803F0EAF920A803F0E7F923A803F0E7
:10C56000E4F926A803F0E1F9894926A803F025FAA1
:10C570000222029923A803F0BFFA23A926A803F0F8
:10C580001BFB844903F025FB04000222059920A827
:10C5900003F0B2FA20A9200003F00EFB7E4903F05D
:10C5A00018FB0400022207991DA803F0A5FA1DA993
:10C5B000200003F001FB794903F00BFB0400022289
:10C5C0000C991AA803F098FA1AA9200003F0F4FABB
:10C5D000734903F0FEFA04000A220D9917A803F02C
:10C5E0002EFA17A9200003F0E7FA6E4903F0F1FADA
:10C5F000010014A803F063FA17A803F096F91AA82B
:10C6000003F093F91DA803F090F920A803F08DF929
:10C6100023A803F08AF926A803F087F980251422BD
:10C620000226614B6D001A70BF00604C2368585998
:10C6300009F0D6FE043502000B000096534802F0C4
:10C6400063FFBD42F1D15A4D2B78002B1FD0022B36
:10C6500033D123680024574F0493049A631CFF339B
:10C66000E619D058316807F0F5F9FC21890507F083
:10C6700063FD8023043430605B009C42EDD1FD3BC0
:10C6800033214D482B70FFF716FC4C4911E08022F6
:10C69000246848495200581CFF302058C8500433C1
:10C6A0009342F8D10223322143482B70FFF703FC59
:10C6B0004349364802F0FAFD5CE0032B00D08BE0E2
:10C6C000276800243B4D631CFF336619F858316816
:10C6D00007F0C0F9FC21890507F02EFD8023043402
:10C6E00030605B009C42EED11DAA280020AB4021A7
:10C6F00003F0ACFC334D209B334C2B601D9B334926
:10C7000026A8236003F059F90222216823A803F028
:10C71000F3F923A926A803F04FFA1C4C01002000CE
:10C7200002F0BAFD23A803F000F926A803F0FDF8F3
:10C73000274926A803F041F90A22296823A803F013
:10C740007EF923A926A803F037FA0100200002F0A1
:10C75000A3FD23A803F0E9F826A803F0E6F81D4995
:10C76000200002F0A3FD0422114B342112481A705C
:10C77000FFF7A1FB14A803F0D8F873B0F0BDC046D2
:10C780007A9C0200829C02008E9C0200D82A002023
:10C79000999C02009F9C0200A59C0200AB9C020099
:10C7A000B19C0200B79C0200642700203C290020B5
:10C7B000282900201C23002004270020C79C0200F9
:10C7C000B99C02007C29002080290020D59C020011
:10C7D000E59C0200F59C0200042BCBD1674B109A1C
:10C7E0001B68991E9142C5D802339A42C2D8802450
:10C7F00000256400624E3368185905F0F1FC614A67
:10C80000631EFF3B071CD05805F0EAFC011C381CD6
:10C8100007F0C4FD011C07F08FFC3368011C1851A0
:10C82000281C07F017F980230434051C9B009C4248
:10C83000E0D105F0D5FC544F041C3D68291C07F0DD
:10C84000A3F8002800D190E0504926A803F0B5F8DD
:10C850000222029923A803F04FF923A926A803F086
:10C86000ABF94B4903F0B5F905000A22049920A859
:10C8700003F0D3F820A9280003F09EF9454903F0FE
:10C88000A8F90500069809F0ABFD0022424B08F01C
:10C890002FFF02260B00020000961DA803F046F9A8
:10C8A0001DA9280003F088F93C4903F092F93C4D9A
:10C8B0000100280002F0F0FC1DA803F036F820A8C3
:10C8C00003F033F823A803F030F826A803F02DF87E
:10C8D000344926A803F071F80A22109923A803F01E
:10C8E000AEF823A926A803F067F92F4903F071F9E0
:10C8F000320004900F9920A803F0FEF820A90498B4
:10C9000003F05AF90100280002F0C6FC20A803F049
:10C910000CF823A803F009F826A803F006F83F68EE
:10C92000224926A803F049F8211C381C07F036FDDF
:10C93000391C07F029FA1E4907F0FEFB3200011CE2
:10C9400023A803F0D9F823A926A803F035F919493B
:10C9500003F03FF90100280002F09EFC23A802F03A
:10C96000E4FF26A802F0E1FF04E7291C201C07F0E1
:10C9700015F8002800D1FDE60F499AE67C29002031
:10C980003C2900201C23002094200020009D020050
:10C990007A9C0200079D020000408F40709C0200BC
:10C9A000D82A0020139D02001D9D0200269D020032
:10C9B0000000C842309D0200329D020010B5054AB9
:10C9C0001378002B03D0013B1370012010BDFFF73B
:10C9D0007BFBFAE764270020F8B505000126041D5B
:10C9E0002B008533FF339C421ED22368002B11D0CD
:10C9F00003F032F9A368E2680700C31A9A4209D823
:10CA0000606823689847002806D02369002B03D06C
:10CA10002661A7601834E3E7002323606360A36006
:10CA2000E36023616361F5E7F8BD000010B50E48CF
:10CA3000FFF7D2FF03F010F90C4C2368002B0BD149
:10CA40000B4B18349C42F8D303F006F9FFF73CFA7D
:10CA50000848FEF7CAFC10BD03F0FEF8A368C01A30
:10CA6000E3689842ECD3EFE7682700206C270020AA
:10CA7000EC28002088240020F8B500236F4C1A0011
:10CA800019002000FEF71EFE6D4D23001C221E2102
:10CA90002800FEF751FE6B4C6B492200280005F080
:10CAA0004FFB6A4D092302220A212800FEF7FAFBF8
:10CAB00022006749280005F043FB6649664801F0FB
:10CAC0003CF8664D142312226549280000F086FCCC
:10CAD00022006449280005F033FB634E634F3100A8
:10CAE000634A380000F064FC624D220029003800DF
:10CAF00005F026FB604F142308226049380000F03F
:10CB00006DFC22005749380005F01AFB5C4F3100DC
:10CB10005C4A380000F04CFC29002200380005F087
:10CB20000FFB12225849594801F010F8584F2200C3
:10CB30003900564805F004FB3100564A564800F0CB
:10CB400037FC29002200544805F0FAFA1A2253490A
:10CB5000534800F0FBFF22003900514805F0F0FA7D
:10CB60003100504A504800F023FC290022004E4872
:10CB700005F0E6FA12224D494D4800F0E7FF220089
:10CB800039004B4805F0DCFA31004A4A4A4800F0C7
:10CB90000FFC29002200484805F0D2FA1A22474922
:10CBA000474800F0D3FF22003900454805F0C8FA95
:10CBB0001A224449444800F0C9FF22003900424883
:10CBC00005F0BEFA3100414A414800F0F1FB29006E
:10CBD00022003F4805F0B4FA1A223E493E4800F0D0
:10CBE000B5FF220039003C4805F0AAFA31003B4A63
:10CBF0003B4800F0DDFB29002200394805F0A0FA8F
:10CC000012223849384800F0A1FF22003900364886
:10CC100005F096FA354F31003800354A00F0C8FB70
:10CC200029002200380005F08BFA0021C02231488B
:10CC3000520002C009F0B5FDF8BDC046EC28002046
:10CC4000002900208020002029B70100882400202E
:10CC5000B9B401006C980200302900202827002078
:10CC60009198020009BA0100B29502004C270020F9
:10CC7000729A020095D30100242A0020B69802007F
:10CC8000482A0020DB980200E49802004C2400208F
:10CC900045BA010009990200702400200E99020093
:10CCA0000427002033990200042300204899020041
:10CCB000C42900206D990200E82900207B99020018
:10CCC000E0260020A0990200602A0020C5990200F9
:10CCD000842A0020CA99020040290020EF9902000E
:10CCE00064290020049A020084290020A829002039
:10CCF000299A020068270020E121F8B5AB4D4902CE
:10CD0000280002F041FCC021A94C4900200000F09D
:10CD10003CFEA849200000F08CFCA74F380000F032
:10CD20006AFA0100200000F081FC2000A34A0021E3
:10CD300000F0A3FC2000A24A012100F09EFC20008C
:10CD4000A04A032100F099FC9F4EA04A3000002128
:10CD500000F018FB9E4A00219E4800F013FB9E4AFB
:10CD600000219E4800F00EFB9D4A00219D4800F0E6
:10CD700009FB3900200000F0C4FD9B49200004316C
:10CD800000F0BFFD99492000043100F0BAFD311DCB
:10CD9000200000F0B6FD96492000043100F0B1FDFE
:10CDA000944E2000311D00F0ACFD93492000043169
:10CDB00000F0A7FD914B2000191D00F0A2FD904945
:10CDC0002000043100F09DFD8E4F2000391D00F041
:10CDD00098FD8D492000043100F093FD7D4B20002B
:10CDE000191D00F08EFD7F4B2000191D00F089FDFC
:10CDF00086492000043100F084FD854B2000191D78
:10CE000000F07FFD83492000043100F07AFD3021DD
:10CE10003000FFF750F8804B784819783031C9B2AC
:10CE2000FFF749F87D4E380031783031C9B2FFF74D
:10CE300042F830216748FFF73EF830216748FFF796
:10CE40003AF830216748FFF736F82000FEF7C4FAB9
:10CE500010227349734809F088FC0121122002F066
:10CE6000F1FF01210C2002F0EDFF01210D2002F065
:10CE7000E9FF01210F2002F0E5FF01210E2002F061
:10CE8000E1FF01210B2002F0DDFF00210C2002F068
:10CE9000F7FF00210D2002F0F3FF00210F2002F028
:10CEA000EFFF00210E2002F0EBFF01210B2002F02A
:10CEB000E7FF0021082002F0C5FF0021102002F04A
:10CEC000C1FF082002F0F2FF574C2070102002F042
:10CED000EDFF564B2178C0B2187030314000091870
:10CEE000C9B24B48FEF7E7FF0021052002F0AAFF78
:10CEF0000420002102F0A6FF4D48FEF785FC002823
:10CF00003DD000234B493370280002F0CFF931782F
:10CF100038003031C9B2FEF7CEFF00230020464969
:10CF20009A0001338850402BFAD18020C00009F0CC
:10CF3000E7FB424B18608020C00009F0E1FB404B4A
:10CF40001860092002F02CFF02F086FE3D4B3E4A9D
:10CF50001968002917D018339342F9D30124280007
:10CF60003A4902F08FF92C4B312124481C70FEF70E
:10CF7000A2FFFA2120008900FEF7CEFEF8BD0123B2
:10CF800033493370C0E7334A11680131002900D1B9
:10CF900001211160126898605A612F4A1A600022BC
:10CFA0005A601432DA60133A1A61D7E7D82A00209F
:10CFB00088240020789D02003029002041BD010016
:10CFC00081BD0100B9BD0100242A00208DBF0100F0
:10CFD0006DBA0100E026002005B90100602A00209A
:10CFE00045B9010040290020282700204C270020B7
:10CFF000482A00204C240020702400200427002010
:10D0000004230020C4290020E829002064290020EE
:10D0100084290020A8290020282900209820002009
:10D02000689D02001C240020C0290020C129002086
:10D03000002900208C9D02001C230020382900209C
:10D040003C2900206C270020EC280020AC9D020029
:10D050009A9D020068270020BDC9010052DF704779
:10D060000C4B37B51B78002B13D00B4C2568002DCB
:10D070000FD001A8FFF7F2FF05280AD0002804D03E
:10D0800000221100FEF73AFBF1E701982368984768
:10D09000EDE737BD9C2A0020A02A002010B5FFF73D
:10D0A000DFFF10BD70B5002504AC24780573A942DC
:10D0B00005D10A4B0A4A25210A4809F085FA016080
:10D0C0000949920052589B0002715B58A400837179
:10D0D0006358856043710223C37170BDB69D020021
:10D0E000189E0200C49D0200C8A10200037B002B11
:10D0F00004D14373837303610133037370470000EA
:10D100001FB50191A02100240068C900D2B244508B
:10D11000012A10D0A24209D0032A0AD0074A83501C
:10D12000074B019AC250012343501FBD02221343F3
:10D13000F4E70422FBE70622F9E7C04654050000A5
:10D140002405000010B50400FFF7D0FFA1222368DA
:10D15000A179D20099506179064A2000995021792D
:10D1600004329950044B19685A689B68FFF7C8FF4E
:10D1700010BDC0460C050000B82A0020A0220023E4
:10D180000168D2008B500373704770471FB5FFF7DB
:10D19000B7FF05B000BD70470368074A99501A00F1
:10D1A000FC32D1680029FCD0A321C90058580023C3
:10D1B000C0B2D3607047C0461C050000704770477E
:10D1C00007B58022074BD2051A6000229A6002320E
:10D1D0001A711823173200930349013B0348FFF7E4
:10D1E00061FF07BDB82A002000300040A42A0020BB
:10D1F000016082807047006870478088704737B54B
:10D20000062504002A000021684609F0CAFA2A000F
:10D21000201D694609F09AFA431E9841C0B23EBDEE
:10D2200010B5034C0430210000F0A8FC200010BD14
:10D23000C42A002010B50430062209F096FA10BD69
:10D2400010B504300622002109F0ABFA10BD10B56C
:10D2500004000160FFF7F4FF200010BD807A7047E2
:10D26000C0687047007C704700207047C368585CF6
:10D27000704770B50D00110002680400D6691A00ED
:10D28000B0470123A374A369002B02D0210028001A
:10D29000984770BD70B5040008000D000AF04EF903
:10D2A0002368C2B22900DB692000984770BD0000E6
:10D2B000054B10B5083304000360C068002801D096
:10D2C00009F028FA200010BD589E020010B5040095
:10D2D000FFF7EEFF200002F035FD200010BD10B575
:10D2E0000400807A031C904200D9131CDAB2237424
:10D2F000E06809F03AFA63690120002B04D01A684B
:10D30000210012681800904710BD0000F8B51D00FC
:10D31000040017000430104A00F06EF80F4B083379
:10D3200023602B1C142D00D9142300212000A3728C
:10D33000E16021746774A174E17461610C2218309A
:10D34000DEB209F02EFA002D03D0300009F0D8F932
:10D35000E0602000F8BDC04603280000589E02008F
:10D36000407C7047C07C704703000800DA7451426B
:10D370004A4107329200D25810B5002A01D0190054
:10D38000904710BD0B2902D8063189000A5070471A
:10D3900041617047704700697047007D70470369BD
:10D3A000585C704710B5040002F0CCFC200010BDA2
:10D3B00070B51500A42204009201043000F01CF89E
:10D3C000044B25610833280023600AF0B7F8207564
:10D3D000200070BD889E02000120704770B50400D7
:10D3E0001D00FFF793FF034B2574083320002360D3
:10D3F00070BDC046A49E020010B50400FFF7F8FE01
:10D40000024A200013780133137010BDD62A002081
:10D41000014B18787047C046D62A002010B5C06866
:10D4200003681B6A984710BD08B4024B9C46043839
:10D4300008BC60471DD4010010B5C06803685B6A72
:10D44000984710BD08B4024B9C46043808BC60479E
:10D4500039D4010010B5C06803689B6A984710BDB5
:10D4600008B4024B9C46043808BC604755D4010000
:10D4700010B5C0680368DB6A984710BD08B4024B5A
:10D480009C46043808BC604771D4010010B5C068E0
:10D4900003681B6B984710BD08B4024B9C460838C4
:10D4A00008BC60478DD4010010B5C06803685B6B91
:10D4B000984710BD08B4024B9C46083808BC60472A
:10D4C000A9D4010010B5C06803689B6B984710BDD4
:10D4D00008B4024B9C46083808BC6047C5D401001C
:10D4E00010B5C0680468E46BA04710BD08B4024BD7
:10D4F0009C46083808BC6047E1D4010010B5C068FC
:10D5000003681B6C984710BD08B4024B9C46083852
:10D5100008BC6047FDD4010010B5C06803685B6CAF
:10D52000984710BD08B4024B9C46083808BC6047B9
:10D5300019D5010010B5C06803689B6C984710BDF1
:10D5400008B4024B9C46083808BC604735D501003A
:10D5500010B5C0680368DB6C984710BD08B4024B77
:10D560009C46083808BC604751D50100030010B53F
:10D57000FC335B6F002B02D05D30FF30984710BD4D
:10D58000030010B5FC339B6F002B02D05D30FF30E1
:10D59000984710BD0100100010B504681A005D31F5
:10D5A00002AB1B78FF31646AA04710BD704770471B
:10D5B00070B5050004005D35FF3511002800FC340E
:10D5C000FFF738FEE36E002B01D02800984770BDAE
:10D5D000030010B5FC335D301B6FFF300400002BDF
:10D5E00000D098472000FFF72BFE10BD010010B5BA
:10D5F0005D311000FF311A00FFF7B6FE10BD0100CB
:10D6000010B510005D311A0002AB1B78FF3100F03D
:10D6100077FA10BD10B5C0680368DB68984710BD85
:10D6200010B5C06803681B69984710BD8830016059
:10D63000704798300160704770B50600A4363368B3
:10D6400004000D00002B05D100F030FA800009F035
:10D6500057F83060A834237832689B009D502378B7
:10D660000133237070BD10B50400FFF7D3FF200015
:10D670005D30FF30FFF7C3FD10BD0F2902D85A31CE
:10D6800089000A50704710B50400FFF7C1FE800002
:10D6900009F036F823009C331860103303600C3314
:10D6A0004360243383602033C3600C33036105235C
:10D6B000A034237010BD000030210023F0B5AFB0BE
:10D6C00002AA5218137003008C3319680400002951
:10D6D00000D1AAE008A800F095FA08A800F0BEFA68
:10D6E000022383429B415B4216AA1433050010704B
:10D6F000537008A800F0B0FA010052201A2602ABBD
:10D700002A00C018761B09F030F80125F6B2230074
:10D7100088331968002929D008A800F073FA08A8EE
:10D7200000F09CFA431C0700B3421FDA1F200300DD
:10D7300050216B4302AA5218D7540623022F00D857
:10D74000043B684316AA12185370079008A800F00B
:10D7500083FA079B0100981C16AB18183A0009F0D1
:10D7600004F8023E0135F61BEDB2F6B22300903309
:10D770001968002916D01A79002A13D0022E11D95F
:10D78000531CB34201DB023EF2B21F23FF276B435F
:10D7900016A81A54C61802337770C01808F0E5FFAF
:10D7A0000135EDB2230098331E68002E1BD03000E7
:10D7B00009F0C4FEC0B21D283AD8302202AB9B1833
:10D7C0001870302202AB9B181A78002382425B410A
:10D7D000312002A9091808330B70013002AB310067
:10D7E000C01808F0C2FF27009C373B68002B02D10D
:10D7F0002000FFF748FF002307932300A0331B7886
:10D80000079A93421ADD93003A689E583000FFF75A
:10D81000F4FC314B984205D1301E00D0301F211D41
:10D82000FFF7B6FD079B0133E6E71C260D006EE708
:10D8300030211D2302AA52181370C2E700272300CB
:10D84000A8331B78BB4213DD2300A4331B68BA0046
:10D85000D6583000FFF7D1FC1F4B984206D1301E3E
:10D8600000D0301F2100083100F05DF90137E6E7F4
:10D87000002B0BD021002931FF312000FFF7DCFE07
:10D8800021003531FF312000FFF7D6FE3022210084
:10D8900002AB9B18A8311B780978E0685A1E9341A7
:10D8A000026804912100A4310968DBB203912100D0
:10D8B000A0310978029121009C31096801910EA9DB
:10D8C00000919668290016AAB047E06803681B6DAE
:10D8D00098472FB0F0BDC0460328000070B5060081
:10D8E0009C36336804000D00002B01D1FFF7CBFEFE
:10D8F000A034237832689B009D5023780133237035
:10D9000070BD10B5FFF7EAFF10BD000010B50400B0
:10D91000164B0360164B4360164B8360FFF780FE87
:10D920002300A4331868002801D008F0F3FE230078
:10D930009C331868002801D008F0ECFE200031303C
:10D94000FF3000F0B9F8601DFF30FFF7B1FC200098
:10D95000D830FFF7ADFC2000B430FFF7A9FC200061
:10D96000103000F077FE200010BDC046009F02007E
:10D97000689F0200809F020010B50400FFF7C6FFF9
:10D98000200002F0DFF9200010BD07B56B46D980FA
:10D990000633D83002221900FFF7A1FC07BD0000B2
:10D9A000334BF7B50360334B04004360324B002523
:10D9B0008360030010331800009301F075FA230010
:10D9C000200088335D609D601D731D615D611D7663
:10D9D000DD611D6004331D772849AC3000F0ADF8DF
:10D9E0002300B43301930222132325490198FFF742
:10D9F0008DFC022320001A002249D830FFF786FC54
:10DA00002000214FFC30390000F097F81F4E601DB8
:10DA1000042331002022FF30FFF778FC200029305A
:10DA20003900FF3000F081F8200031303100202231
:10DA3000FF3000F049F820005D302100FF30FFF793
:10DA400006FC2000009B6930E36010222900FF30B3
:10DA500008F0A7FE0E490198FFF71CFC29002000E2
:10DA6000FFF793FFE068210001F0AAFA2000FEBD55
:10DA7000009F0200689F0200809F0200D49E020067
:10DA8000D99E0200DE9E0200E39E0200E89E020094
:10DA9000ED9E020010B50400FFF7AAFB024A200029
:10DAA00013780133137010BDD72A0020014B18786A
:10DAB0007047C046D72A0020704710B5040002F016
:10DAC00041F9200010BD000070B5040015000430BD
:10DAD000094AFFF7DFFF00212000084BA572083339
:10DAE0002360E31CE1720422D9772830616208F0D8
:10DAF00058FE200070BDC04603280000A09F020011
:10DB000070B50400C3720D000C3011001A0008F04B
:10DB10002CFE0122E31CDA77A36A002B02D021003D
:10DB20002800984770BD41627047A02210B50400DC
:10DB30009201FFF7AFFF200010BDA02210B5040036
:10DB40009201FFF759FC200010BD000013B504003E
:10DB50000123FFF743FC074B012223606B46D91DCD
:10DB6000002320000B70FFF7BAFB034B200023605B
:10DB700016BDC046F097020020980200F0B51E4C7A
:10DB80008BB005000E0001A8210001F016FF210056
:10DB900004A801F012FF05242B5D0F2B03D81749B1
:10DBA00001A801F0FAFF1022295D07A801F024FF67
:10DBB00007A904A801F08DFF07A801F0B6FE04A98B
:10DBC00001A801F0E4FF671E002C06D00C4901A853
:10DBD00001F0E3FF3C007B1CDED100231222310068
:10DBE00001A802F00AF804A801F09FFE01A801F0C4
:10DBF0009CFE0BB0F0BDC04658A20200C59C0200BE
:10DC00009D9C0200F7B50023050001AE2960037555
:10DC100008000F003380B37009F090FC441E002C04
:10DC200018DB2B7D0F2B15D83A5D2D2A02D101343C
:10DC3000023CF4E73B19013B1B7872700021102273
:10DC40003000337009F018FD2B7DEA180133107194
:10DC50002B75EDE72800FEBD04307047007D70474E
:10DC600071DF704772DF704773DF704775DF704791
:10DC700076DF704777DF704778DF70477ADF70476D
:10DC80007CDF70477EDF70477FDF704786DF70473D
:10DC900090DF704792DF704796DF704798DF7047DC
:10DCA00099DF7047A0DF7047A2DF7047A3DF70479E
:10DCB000A4DF7047A6DF7047A9DF704760DF7047B9
:10DCC00061DF704762DF704763DF704753DF704783
:10DCD00010DF704711DF70475C300078431E9841B9
:10DCE000C0B2704702000300002030B56D321478D6
:10DCF000844213DD1D6F0201AA1815688D420BD1F5
:10DD00000020D189814206D0127B920703D574335B
:10DD10001B780130584030BD0130E9E70020FAE7B8
:10DD20000300002270B56D331C7894421BDD056F33
:10DD30001301EB181D688D4213D10022D98991423D
:10DD40000DD0197B89070AD50100012474310C70AC
:10DD5000D989008FFFF7A0FF42424241D2B21000A2
:10DD600070BD0132E1E70022F9E702000300002064
:10DD700030B56D32147884421BDD1D6F0201AA1884
:10DD800015688D4213D10020D189814206D0127BC3
:10DD9000110704D574331B780130584030BD520749
:10DDA000FCD55C331878431E9841C0B2F6E70130C9
:10DDB000E1E70020F2E7F0B587B0040001936D3091
:10DDC00006780020864230DD276F05017D192F6817
:10DDD0008F4228D10020EF89874222D0297B0C2551
:10DDE00029421ED026005C363578854219D008239A
:10DDF00019404B424B4103A901330B706B469B8882
:10DE00008A60CB80230001227433013D1A70487070
:10DE10004F8088803570208FFFF740FF4342584184
:10DE2000C0B207B0F0BD0130CCE70020F9E7030035
:10DE3000002230B56D331C78944212DD056F13015A
:10DE4000EB181D688D420AD10020DA89824205D084
:10DE5000187B30231840431E9841C0B230BD0132B8
:10DE6000EAE70020FAE70300002230B56D33040032
:10DE7000187885B090422BDD256F1301EB181D68D3
:10DE80008D4223D10020DA8982421DD030211B7BB4
:10DE90000B4219D020390B4059424B41694601339E
:10DEA0004B800123881CD21801A94A80802292024B
:10DEB0000292220074320B8013708860208FFFF76B
:10DEC000EDFE43425841C0B205B030BD0132D1E74A
:10DED0000020F9E710B503681B6C984710BD0300DC
:10DEE000002230B56D330400187885B0904226DDED
:10DEF000256F1301EB181D688D421ED10020DA89B1
:10DF0000824218D0197B3023194214D06B465880B6
:10DF10009D1C012301A9D2184A80802292020292FC
:10DF2000220074320B8013708D60208FFFF7B6FED5
:10DF300043425841C0B205B030BD0132D6E700209F
:10DF4000F9E70B0010B527331ADB0B001D331ADB82
:10DF50000B00133319DB0B000F3318DB0B000B33F3
:10DF600017DBCB1D17DBCB1C17DBC817401AC00F04
:10DF7000800040B2FFF77EFE43425841C0B210BD60
:10DF800028204042F5E71E20FBE71420F9E7102087
:10DF9000F7E70C20F5E70820F3E70420F1E710B5D8
:10DFA0001321008FFFF764FE10BD13B5040068460F
:10DFB000FFF756FE2069002805D06A460368013243
:10DFC000DB692100984713BD37B50023050001A880
:10DFD0000193FFF77BFE2C69002C0ED0019808F00E
:10DFE00093F90022054B07F083FB08F04BFA2368F6
:10DFF000021C1B6A29002000984737BD0000D03F53
:10E00000704710B5040086B018220021684608F059
:10E01000C8FB0023A27A9A4200D103336A461370E8
:10E02000A0880A21000105F069FB6B46188268464A
:10E03000FFF71AFE06B010BD0300F0B55D330C000B
:10E040001A7806000023142193B09A4267DD0F006E
:10E050005F43306EC7193868A0425ED12000FFF7D9
:10E060007FF9012318425AD07B68002B57D0330028
:10E070003100333302931D7814312A000AA808F0C6
:10E0800074FB236820001B69984704352818C3B225
:10E09000039300230193039B1F2B3BD87868FFF762
:10E0A000AAF8010004A8FFF7ADFD236820001B6952
:10E0B00098471822029B03301D7804AB9B185855D3
:10E0C0000AAB5B19023A04A85A70FFF7C5FD023586
:10E0D0000AAB01000222581908F047FB029B2000FE
:10E0E0001D780AAB04355D192368DB6898472368FF
:10E0F00007001B692000984739000200280008F03B
:10E1000034FB002303991A000AA8FFF7ABFD012393
:10E1100074630193019813B0F0BD013395E70023B8
:10E12000F7E70A21F0B5D9B004ABC9188E2311AEB8
:10E130005B00040030000B80FFF7C2FD011E0ED112
:10E140003388302B00D190E139D8112B00D1BDE0BC
:10E1500007D8012B00D182E0102B00D185E059B007
:10E16000F0BD142B00D10DE1192B00D119E1132BB7
:10E17000F5D1E068002800D1FFE000F0BBFE0028E8
:10E1800000D0FAE007AD05220021280008F009FBC5
:10E190000122302313432B7007230021EA702A0049
:10E1A0006B700933AB70A36D0D9109930E910F91B4
:10E1B0000A910B91208F09ABFFF766FDCFE7382B53
:10E1C00000D11DE22AD8322B00D19BE1362BC6D1DB
:10E1D0002300743318700623F288FF339A4200D06C
:10E1E000F1E1E368002B00D1EDE109AD0522280043
:10E1F00008F0D7FA0123EA7829001A43EA702A784E
:10E20000134370229343403A13432B7007236B70E0
:10E210000933AB70208FFFF735FDA0E7502B00D1FD
:10E22000D4E0522B00D11AE1392B00D097E7B37B11
:10E23000B589022B03D1208F2900FFF731FD230080
:10E240006D3319780023994200DC88E7206F1A01AA
:10E250008218D089A84200D1C3E10133F3E75C34CE
:10E260002378327A9B18237079E7B08809AD20872C
:10E270002900FFF727FD23002A785C331A702069F4
:10E28000002806D03D22036804A952181B6821000B
:10E290009847E288052A0DD9C821238909018B42B4
:10E2A00008D86B80C8235B042A800A93208F29003A
:10E2B000FFF7DCFC230064331B78002B00D14EE712
:10E2C00000220121208FFFF7E3FC48E701235B4296
:10E2D0002387230005005C33187023005D331B780F
:10E2E000AB4218DD142600276E43236E9E19377447
:10E2F00077743068FFF736F8B8420AD02069B84220
:10E3000007D0036832685B6921009C463B00664683
:10E31000B0470135E1E72069002803D003682100F8
:10E320005B68984700250C26230064331B78AB42BA
:10E330000ADD30006843A36E04221818083000215B
:10E3400008F02FFA0135EFE70023250018006D359E
:10E350002A789A4208DD216F1A0189180873216F03
:10E3600001338A18D081F3E72300002274331A7036
:10E37000236820009B699847F1E60023208F1A004C
:10E38000852119E7A56D338A6A8A208F9A4205D1C3
:10E390000B000A002900FFF779FCE0E60B000A00F9
:10E3A000F9E7327A002A00D0D9E6E068002804D0E4
:10E3B00021001C233C3100F0B2FD2069002800D16F
:10E3C000CDE603689B6821009847C8E60500F388FE
:10E3D000049323005D331B78AB4200DCBFE61427B7
:10E3E0006F43236E049ADF193B8993420ED1206953
:10E3F000002800D1B3E6327C036800921D694623F1
:10E4000004AA9B183A682100A847A8E6BB89049A89
:10E41000934222D10121F27CB37C120213431BB23E
:10E420009AB20B403B7453080B407B7403231A4091
:10E43000531E9A413868D3B20393FEF793FF039BB0
:10E4400098420AD02069002800D188E603683A681B
:10E450005D692100039BA84781E60135B9E7208F5C
:10E460000B000A00FFF728FC79E6F588002D18D08C
:10E47000230005000C2164331A78AA4200DC6EE602
:10E480000B006B43A06EC3181889002838D0588938
:10E49000002835D02200083319006C321570208F07
:10E4A00072E04227B389039304ABFF18039BAB428E
:10E4B0001DDD230064331A7800239A4212DD0C20FC
:10E4C0005843A16E0818B9788C4681798C450CD1D7
:10E4D00039888C4681888C4507D10830391D042243
:10E4E00008F043F901350837E0E70133E5E7039B1E
:10E4F000208FDB00F618B1890022013189B2E2E6F3
:10E500000135BAE72000F1886C3002780C2300292D
:10E510003DD15A43A16E8A18926804A909924222F9
:10E5200052180A21B589049069438918039105930B
:10E530000399914226D0260000206D363178814221
:10E540001BDD049F059B3F78216F5F430501A36E90
:10E550004919FF584B689F420DD193788F7ABB427F
:10E5600009D113880F89BB4205D117790F73236F27
:10E5700011895D19E9810130E0E7108909A9088056
:10E580000A32D5E7208F09A9FFF784FBE7E52100D0
:10E590000132534364310D7895420DDDA16EC918E7
:10E5A0000E89002E05D04E89002E02D0027008314F
:10E5B00075E701320C33EFE72069002800D1CEE582
:10E5C0000368DB68FFE623006D3319780023B08908
:10E5D000994200DCC3E5256F1A01AA18D589854246
:10E5E0000CD12069002800D1B9E5317C0368009185
:10E5F0009D69462304A95B18126804E70133E7E725
:10E600002300743318700623F288FF339A4200D037
:10E61000A5E5E368002B00D0E7E5A0E510B5040010
:10E62000FFF758FB206F002801D008F073F8A06EA8
:10E63000002801D008F06EF8206E002801D008F004
:10E6400069F8220000235D326D341370D37123709A
:10E6500010BD000010B50400044B08330360FFF741
:10E66000DDFF200000F096FC200010BDC49F0200DA
:10E6700010B50400FFF7EEFF200001F063FB20005F
:10E6800010BD000013B56C46128861802280010025
:10E690006A4602480193FFF70BFB16BDFFFF00001F
:10E6A000F0B5F3B01C007AAB1B78060007937CAB87
:10E6B0001B78019115009B4904220EA8099308F0CC
:10E6C00054F800210EA8FFF703FB2620964B1222D8
:10E6D0000F930AAB0021C01808F063F80A2313AFA8
:10E6E0000FA93B803800093B3B733B72FFF7E6FA0A
:10E6F0008E4B11A81193C8235B041293FFF7BEFA47
:10E700000020FFF7B7FA81235B00B382FC3BB375AF
:10E710003300032233331A70019B002B21D0002DCC
:10E720001FD01F23019A5343EB1801933700019B1D
:10E7300033373878AB4214D02B7832180133137545
:10E740006B780230C0B25375387014302A78A91C27
:10E75000301808F00AF82A783B781F359B183B7070
:10E76000E4E7002C1ED0789B002B1AD01F277C4397
:10E770001D001B1900240193019BAB4212D02F787E
:10E780002AA87B1C03556A7803190234E4B25A7034
:10E790000019A91C3A003C1907F0E7FFE4B21F3545
:10E7A000EAE7789C33003000333319782AAA230033
:10E7B0001430FFF757FA0020FFF75EFA0024079B9A
:10E7C000A3420EDD799AA300D058FEF716FD584BF0
:10E7D000984204D132005D32137801331370013452
:10E7E000EDE733005D3318780338C0B21870142396
:10E7F000584307F085FF00230BAA1380799A3066EF
:10E800000392029308930593079B029A934200DCBC
:10E8100011E2039B1D682800FEF7EDFC01001DA816
:10E82000FFF7F0F91DA8FFF717FA04001DA8FFF77E
:10E8300015FA02282BD162782378120210A913430B
:10E840000B8001238B702800FEF7D7FCA0239B01CF
:10E85000984231D12800FEF7CEFC364908F05CFE24
:10E8600000280DD02800FEF7C6FC334908F054FEFE
:10E87000002805D00BAA10A90120FFF713FA08956C
:10E88000029B01330293039B04330393BCE732AF33
:10E8900021001022380007F068FF627B237B120200
:10E8A000134310AA138000231A21BB810AABC91895
:10E8B0003800FFF709FAC6E72800FEF79EFC1C4B5C
:10E8C000984200D032E12F1E00D02F1F3C1D2000A7
:10E8D000FEF791FC194908F01FFE002811D1112301
:10E8E00032AC23703B683800DB6898473B68050012
:10E8F0001B6938009847290082B22000FFF7C0F951
:10E90000BEE72000FEF777FC0D4908F005FE002861
:10E9100018D13B683800DB6898470088FFF7ACF9EE
:10E92000AEE7C046B09F02008020002028005000C3
:10E9300003280000D49E0200E39E0200D99E02003C
:10E94000DE9E02002000FEF756FCCD4908F0E4FDF3
:10E95000002895D03800FEF703FD3B6804901B6942
:10E96000380098470AABD88014230025059A29005F
:10E970005A43336E01929F50336E23A89B181D7427
:10E98000336E9B185D74336E9B18089A5A601C2274
:10E9900007F007FF01226421049B93430AAA52183F
:10E9A00013703023049A1A420FD00CAC03222900B2
:10E9B000200007F0F6FE0622B24B2380A378934393
:10E9C0001A0002231343A37028940DAC03220021E4
:10E9D000200007F0E6FE3223049A1A4204D0F368BE
:10E9E000002B52D0212323700C23049A1A4205D005
:10E9F000F2680DAB002A4AD021225A7006220DACD3
:10EA0000A378380093431A0002231343A3703B6892
:10EA10009B69984701210122A37882438B431343CA
:10EA2000A370029B5B180493039B0693049A079BB5
:10EA300093423CDD069B5D682800FEF7DEFBA423C5
:10EA40009B01984233D12C1E00D02C1F251D28007D
:10EA5000FEF7D1FB8C4908F05FFD002819D123682F
:10EA600020009B68984723682490DB682000984723
:10EA7000236823AD2881DB68200098476881049BC8
:10EA800001330493069B0433CFE71123ABE7112234
:10EA9000B3E72800FEF7AFFB7C4908F03DFD0028F6
:10EAA000EDD1236820009B6898472690E7E7422035
:10EAB0000AAB0A220021C01807F073FE10AB18AD94
:10EAC00018930DAB6B600AABDB8838002B813B6879
:10EAD00000249B689847019A336EA8819B180833DD
:10EAE0002A0023A920002C61FFF7DEF80AABDB889F
:10EAF000A34216D00AAB9A1D1388A34208DD3B68D7
:10EB000021005B693800984732ABE0540134F1E7EB
:10EB1000316E019B8C4663441889002132ABFFF7AC
:10EB2000B1FD059B0133DBB20593A9E62800FEF792
:10EB300064FBA4239B01984200D0A1E62C1E00D0C8
:10EB40002C1F251D2800FEF756FB4F4908F0E4FC5A
:10EB5000002800D194E62800FEF74DFB4C4908F050
:10EB6000DBFC002800D18BE62800FEF744FB494976
:10EB700008F0D2FC002800D182E62800FEF73BFB1B
:10EB8000424908F0C9FC002800D179E6236820003A
:10EB9000DB68984723AD0AAB988118AF1422002197
:10EBA000280007F0FEFD03220021380007F0F9FDE0
:10EBB0000223BB7023682000DB6898470AAB9B895F
:10EBC00080B2C01A0121421E9041BA788A43104394
:10EBD000F268B870002A25D021223A702B8110AA41
:10EBE00023682A6018AADB686A602000984700271B
:10EBF000A8810BAA23A938002F61FFF757F80DABA6
:10EC00001B88BB4200D13BE63D000DAA1388AB42F6
:10EC10000ADD236829001B692000984732ABE854BD
:10EC20000135F2E71122D8E70BAB1888002132AB8F
:10EC3000FFF728FD24E60025099BAB422ED01C00DF
:10EC40002F00023CE4B22500BC4227DD7B9ABB00CA
:10EC5000D5582800FEF7D1FAA0239B01984206D18F
:10EC6000320064321378013313700137EBE7280068
:10EC7000FEF7C3FA084B9842F7D132006D32F1E744
:10EC8000E89E020011110000B2950200B49F02003C
:10EC9000B99F0200BE9F02000328000033000C2031
:10ECA00064331B78AD00584307F02AFD3300B0668B
:10ECB0006D331878000107F023FD7B9F30677B19C7
:10ECC00004930023029301930393049BBB426ED0F1
:10ECD0003C682000FEF78FFA010032A8FEF792FF91
:10ECE00032A8FEF7B9FF050032A8FEF7B7FF0228E9
:10ECF00025D16A782B7812021DA913430B800123BA
:10ED00008B702000FEF779FAA0239B0198422DD149
:10ED10000C20019B1D9A5843B36E00211C50B36E0A
:10ED20001B185A60B36E04221818083007F039FD1A
:10ED3000019B03940133DBB201930437C5E729003B
:10ED4000102223A807F011FD6A7B2B7B12021343CC
:10ED500070211DAA138000230AAA52181380223999
:10ED60000AABC91823A8FEF7AFFFCAE72000FEF7D9
:10ED700044FA194B9842E0D1221E00D0221F029B78
:10ED8000316F1B01CA50326F0399D2185160326F34
:10ED90001D99D21891600021326FD2181173326F11
:10EDA000D318D981029B0133DBB20293C5E7F06827
:10EDB00000280AD000F09EF8002806D031001C235D
:10EDC00000223C31F06800F0B9F8336830009B69EC
:10EDD000984773B0F0BDC046032800000123F0B58A
:10EDE000040000278BB00291019323005D331B7850
:10EDF000BB4255DD14257D43236E5D192E68029BB1
:10EE00009E4247D1626B934204D1236802995B6AA8
:10EE100020009847336830001B69984704ABD880BE
:10EE20002B8930000393336806AEDB68984704AA49
:10EE30000300063200210398FFF724FC0A2004ABEC
:10EE4000C0180E22002107F0ACFC2B89338004ABE4
:10EE50000633B3602B7C002B0CD022005C3213787D
:10EE6000002B19D0013B13700123B370208F3100A8
:10EE7000FEF720FF6B7C002B0CD022005C32137855
:10EE8000002B0BD0013B13700223B370208F310095
:10EE9000FEF710FF0137A8E70193EBE70193F9E7CD
:10EEA00001980BB0F0BD000010B5040000F07AF836
:10EEB0000D4B0021083323602300333319700123E5
:10EEC0005B422387200023003C305C3361631C22BB
:10EED000198021661972A166198221671976A065C9
:10EEE00007F05FFC200010BDC49F020029DF7047BF
:10EEF00028DF7047036818680130431E9841C0B28C
:10EF0000704780235B0510B51969006804F06CFB3D
:10EF100004002000FFF7ECFF1128FAD010BD70B5F7
:10EF20001C0005000E00FFF7ECFFA40822003100D2
:10EF30002868FFF7DBFF1128F8D070BD002210B55C
:10EF400000689A4203D284588C500432F9E710BD0D
:10EF50007047704770470020704770477047002027
:10EF60007047002070470020704700207047002045
:10EF70007047002070470020704700207047002035
:10EF8000704700207047002070470020704770478E
:10EF900070477047704710B5040000F0D3FE2000A2
:10EFA00010BD0000054B0122083303606423436059
:10EFB000002382720381C3600361704728A00200AE
:10EFC00001617047012070470379032BFCD00120B9
:10EFD0007047002070478171704741717047C1725E
:10EFE00070470173704741737047837B93431943A4
:10EFF00081737047C079C0B27047007AC0B2704761
:10F00000407AC0B27047807AC0B27047008A00B2BE
:10F0100070470079C0B2704701717047408A80B272
:10F020007047808A80B27047C08A80B2704770B5DE
:10F0300005000C002B682800DB689847002805D1E4
:10F04000002CF7D0200000F01FFEF3E770BDF8B5EC
:10F0500005000F00140000F0FFFD060000F0FCFDAD
:10F06000801BB8420BD22B682800DB689847002829
:10F0700006D1002CF2D0200000F006FEEEE70020C2
:10F08000F8BD70B504000E0000F0E6FD050000F0CC
:10F09000E3FD401BB04204D22379032BF7D00120BB
:10F0A00070BD0020FCE7C36970B50400002B17D0C9
:10F0B00000F0D2FD64250600236820001B6B9847F2
:10F0C00000280DD000F0C8FDE369801B984209D8E4
:10F0D0000A21012000F01FFC684300F0D5FDEBE79A
:10F0E000012070BD0020FCE7074BFF2203600023D6
:10F0F00042710371C27243820273838243738373CA
:10F10000C382C3617047C04694A002007047704735
:10F110007047704770474171704781717047017146
:10F120007047000010B5034C01710834046042714F
:10F13000837110BD0CA1020010B50400006A0368C1
:10F14000DB689847631DD87FFF2802D0012100F0BB
:10F1500079FE23682000DB6F9847642000F094FD5F
:10F16000012010BD10B50530C07F002100F088FEE1
:10F1700010BD10B50530C07F012100F081FE10BD2B
:10F1800070B504000D001600FFF7AEFF034B2662BA
:10F190002360631DDD77200070BDC04648A10200DA
:10F1A00070B50400006A150003680E001B6A9847DA
:10F1B000236820009B6F98471021206A3143036821
:10F1C0001B6898470600206A290003681B68984757
:10F1D00001200138C046C046C046C046C046C046B1
:10F1E000C046C046C046C046C046C046F1D12368AE
:10F1F0002000DB6F9847206A03685B6A98473000FD
:10F2000070BDF7B506000D000C008B180193019B33
:10F21000671B9C4207D0336821781B6830009847F1
:10F2200001340028F3D13800FEBD70B50400080099
:10F230000D0008F083F92368020029005B682000B4
:10F24000984770BD10B50B1E02D0FFF7EEFF03000C
:10F25000180010BD10B5FFF7F5FF10BD10B503681D
:10F260008A685B680968984710BD10B503681B6819
:10F27000984710BD10B50249FFF7D7FF10BDC04633
:10F2800056A2020070B50400FFF7DCFF0500200065
:10F29000FFF7F0FF401970BD70B50500FFF7DEFF06
:10F2A00004002800FFF7E6FF201870BD70B50400C9
:10F2B000FFF7C8FF05002000FFF7DCFF401970BD15
:10F2C000F0B58BB06B461500002205330600DA77E7
:10F2D0000800012D00D80A2509AC290004F00AFA1B
:10F2E000CAB2130037330700DBB2092902D8130072
:10F2F0003033DBB2013C2370002FEED1210030000F
:10F30000FFF7A0FF0BB0F0BDF8B506000C00151E0E
:10F3100004D10368C9B21B689847F8BD0A2A0CD10A
:10F3200000290BDA2D21FFF7A0FF614207002A0018
:10F330003000FFF7C5FF3818EFE7D2B221003000E8
:10F34000FFF7BEFFE9E770B50400FFF7DDFF05003A
:10F350002000FFF78FFF401970BD10B5002A04D1BF
:10F360000368C9B21B68984710BDD2B2FFF7A8FF67
:10F37000FAE770B50400FFF7F0FF05002000FFF783
:10F3800079FF401970BD70B50500FFF7E6FF040076
:10F390002800FFF76FFF201870BD0000F7B51E00B2
:10F3A00008AB1B78310001930500330010001700F3
:10F3B00006F058FF4B49002814D10122740064085C
:10F3C0005242494B3800210006F04CFF00280FD173
:10F3D0000122454B52423800210004F09BFA0028DC
:10F3E00006D142492800FFF720FF04002000FEBD9F
:10F3F000E0223F4B12063800310004F095FA002855
:10F4000001D03C49EEE7E0223B4B120638003100C8
:10F4100004F076FA0028F4D10022002338003100ED
:10F4200004F06EFA041E07D02D212800FFF71DFFFF
:10F43000802304001B06F618002300202F490093A8
:10F44000019B009A934208D02D4B002205F046FD07
:10F45000009B0133DBB20093F2E733003A0005F082
:10F4600021FA0F00060004F0D7FA0A2201900100E9
:10F470002800FFF725FF009B0419002BB6D0019848
:10F4800006F07CFF02000B003000390006F0A2FB02
:10F4900006000F0028001B49FFF7C7FE2418009B39
:10F4A000013BDBB20093FF2BA0D0154B00223000B4
:10F4B000390006F01DF90F00060006F0EFFE0A22E3
:10F4C000010001902800FFF71FFF2418019806F0A3
:10F4D0001BFF02000B003000390006F07BFB06002A
:10F4E0000F00DCE748A20200FFFFEF7F4CA2020002
:10F4F000FFFFEF4150A20200FFFFEFC10000E03F1D
:10F500000000244054A2020037B519000400069BF5
:10F510002000DBB200930B00FFF740FF0500200046
:10F52000FFF7A8FE40193EBD03210A4802680A43BE
:10F530000260094802680A4302600849084A094B08
:10F540009B1A03DD043BC858D050FBDC00F012F8D6
:10F55000FBF7DAFD240500405405004088AE0200A8
:10F5600080200020CC220020FEE7FEE7FEE7FEE739
:10F57000FEE7FEE7014B024A1A6070479C2000201C
:10F580000024F4000120704710B503681322DB69E2
:10F59000984710BD70470000054B0269D1500369C0
:10F5A000FC331A6A002AFCD0002201201A6270473C
:10F5B0001C050000030010B55C331A781F231A40A5
:10F5C0001E3B19009140114AD167C22204210469EF
:10F5D0009200A150026953600269D360A023002207
:10F5E0000169DB00CA5001230169094A5B428B5063
:10F5F0000169084A8B5001690C3A8B500169083245
:10F600008B50143000F07AFC10BDC04604E100E0DD
:10F610000C0500001405000010B5143000F080FC4B
:10F6200010BD10B5143000F081FC10BD10B51430C1
:10F6300000F068FC10BD0000030070B55E331A785E
:10F640000469724BE25003005D331A780469704B11
:10F65000E250030061331C7802696E4B012C00D02C
:10F660009EE005005F352E78A225ED005651020080
:10F6700060321578A1220669D200B5500269D450D3
:10F680009623DB00994200D88CE096231B01994217
:10F6900000D88AE096235B01994200D888E096233F
:10F6A0009B01994200D885E0E1239B01994200D853
:10F6B00082E09623DB01994200D880E0E123DB0160
:10F6C000994200D87DE096231B02994200D87AE047
:10F6D000E1231B02994200D877E096235B0299420E
:10F6E00000D874E0E1235B02994200D871E0E12385
:10F6F0009B02994200D86EE0474B994200D86CE0DB
:10F70000E123DB02994200D86AE0E12200231203E0
:10F710008A425B41414A5B421340802252059B185A
:10F7200001693F4A8B50A02304220169DB00CA50C3
:10F7300000210369FC33D9600369FC33196201239A
:10F7400001690B6001698B60C12104698900625005
:10F750001F215C3002780A4093406231314AFF3108
:10F7600053500021415600293CDA0F230B40083B3F
:10F770002D4C9B089B001B1903242140A140FC3405
:10F780008C40DD69A5432C00C0258D402900214314
:10F79000D9611F23017819401E3B8B40136070BD57
:10F7A00000246CE79E23DB02BAE79D231B03B7E727
:10F7B0001E4BB5E71E4BB3E7EC239B03B0E71D4B95
:10F7C000AEE71D4BACE71D4BAAE71D4BA8E71D4B51
:10F7D000A6E71D4BA4E71D4BA2E78023DB049FE7B0
:10F7E0001B4B9DE78C080F4BA400E41803230B4030
:10F7F000FF21C025DB009940AD0066598E433100E2
:10F80000C0269E4033000B436351C2E70C05000045
:10F81000140500006C05000090D0030000D0BEFE6F
:10F820002405000000E100E000ED00E000B013005E
:10F830000050270000A04E0000F0750000509D0011
:10F8400000F0EB0000903A0100E0D70100B0AF03F8
:10F8500000705F07F7B5009308AB1B780025019394
:10F86000FA2304009B0083600E4B4560083303605D
:10F8700014300F00160000F02BFB23005C332761CF
:10F880001E70009B084A9B00995823005D33197035
:10F89000019B20009B009A5823005E33DD701A7094
:10F8A000FEBDC0465CA20200C8A10200036910B5FB
:10F8B0001A00FC32D2680400002A0AD0A322D20027
:10F8C00099581430C9B200F00EFB00222369FC33B2
:10F8D000DA6010BD10B50248FFF7E8FF10BDC04662
:10F8E000D82A0020092307B50222009302490D33CC
:10F8F0000248FFF7AFFF07BD00200040D82A0020D4
:10F9000010B5041E05D007F099FD210003F0DCFFBF
:10F910000C00200010BD10B50400884203DA081A5C
:10F92000FFF7EEFF2418200010BD10B5040000689A
:10F9300006F0F0FE200010BD10B50400006800289D
:10F9400001D006F0E7FE00232360A360636010BDD2
:10F9500070B504000D000068013107F0A1FD031E21
:10F9600001D0012028C470BD036810B50400002B2D
:10F9700004D043688B4201D3012010BD2000FFF763
:10F98000E7FF0028F9D0A368002BF5D12268137097
:10F99000F2E770B50E00110004001500FFF7E4FF58
:10F9A000002804D12000FFF7C7FF200070BDA5602C
:10F9B0003100206807F0BAFDF7E7002370B50400B6
:10F9C0000D00036043608360994207D0080007F090
:10F9D000B5FD290002002000FFF7DBFF200070BD0D
:10F9E00070B5050008000C0007F0A8FD210002001A
:10F9F0002800FFF7CEFF70BD1FB5040000230800EC
:10FA000023606360A36001A907F07CFE200001A9C8
:10FA1000FFF7E6FF200004B010BD10B5002304007E
:10FA20008AB023606360A360080001A906F060FE4D
:10FA3000200001A9FFF7D4FF20000AB010BD10B5C7
:10FA4000002304008AB023606360A360080001A95A
:10FA500000F037F9200001A9FFF7C2FF20000AB02B
:10FA600010BD70B5050000680C0000280DD06B6853
:10FA70008A68934207D3096807F058FDA368AB6012
:10FA80000023A36070BD06F045FE23682B60636809
:10FA90006B60A368AB60002323606360F1E710B57F
:10FAA0000B000400884205D00968002904D09A6838
:10FAB000FFF76FFF200010BDFFF73EFFFAE70023BE
:10FAC00010B50400036043608360FFF7E8FF200087
:10FAD00010BD10B50400884201D0FFF7C2FF20001E
:10FAE00010BD10B50400002903D0FFF779FF2000F6
:10FAF00010BDFFF721FFFAE7002370B516008CB0A8
:10FB00000400036043608360951C081C06F068FCD9
:10FB10006DB203AB00932A00330000F089F80100B6
:10FB20002000FFF7DEFF20000CB070BD30B50400F0
:10FB3000100000228DB0190010AB1B7822606260AB
:10FB4000A26003AD9A1C52B2009500F071F801005A
:10FB50002000FFF7C6FF20000DB030BDF8B504004F
:10FB60000F1E02D100263000F8BD0126002AFAD06F
:10FB70008368D5182900FFF7F7FE0028F2D0236824
:10FB8000A2683900981807F0D1FCA560EBE710B522
:10FB90008A680968FFF7E2FF10BD70B50500002014
:10FBA0000C00814207D0080007F0C8FC21000200C9
:10FBB0002800FFF7D3FF70BD10B58A6809680400FC
:10FBC000FFF7CCFF002802D12000FFF7B5FE200090
:10FBD00010BD70B504000D1E04D12000FFF7ACFE6F
:10FBE000200070BD080007F0A9FC290002002000D9
:10FBF000FFF7B4FF0028F0D0F2E770B50D00002A3F
:10FC000006D0002904D084689C4202D800230B70DF
:10FC100070BD013AE41A944200D914000168220030
:10FC2000C918280007F091FC00232B55F0E7FEE7E8
:10FC300030B5040087B00D00064901A807F04CFC60
:10FC400022002B0001A90A9807F046FC0A9807B089
:10FC500030BDC0468CA202000849094A094B10B5C4
:10FC60001B688858FA22190A1B06184392000023C1
:10FC700003F0A8FE4904C00B084310BD001001406A
:10FC8000040500003C2B002070B5041E09D0FFF7CE
:10FC9000E3FF050000F014F8FFF7DEFF401BA04271
:10FCA000F8D370BD0022044B9A60044A13680133F4
:10FCB000DBB213607047C046FC1001403C2B0020B3
:10FCC0007047F0B50D008BB0170000290ED0931EC1
:10FCD000222B1FD801AC26002300002809D1A64200
:10FCE00007D02A00B34210D80023137028000BB0AD
:10FCF000F0BD390003F0FEFCCBB2092903D8303344
:10FD000023700134E8E75733FAE7013B19781170A3
:10FD10000132E7E70025E9E77047000010B500F081
:10FD200015F8FFF7F9FF0120FFF7AEFFFCF7E4FF3E
:10FD3000FCF77CFE024B002BFAD000E000BFF7E797
:10FD40000000000010B506F0E5FC10BDC420114B0A
:10FD500080001A5810491140C02212020A431A505A
:10FD6000C0218022490092025A501A60A3218023A8
:10FD700001220020DB05C9005A509A60074B103958
:10FD80005850C120022180001950403019501A608B
:10FD90007047C04600E100E0FF00FFFF0010014097
:10FDA000014B18607047C046DC2000202149F0B5A7
:10FDB0004A6C2148002A14D0A025A1260023012442
:10FDC000ED05F600C258571C06D0C7187F68002FF3
:10FDD00002D027009740AF5114333C2BF2D10023BF
:10FDE0004B64A0230121DB0500260F009C46142351
:10FDF0004B43C3181A1F1268104C0E4D9200141971
:10FE00005219526C002A10D01A00143A1268551C6C
:10FE100009D0103B1B68FF2B05D03B009340654683
:10FE20001A00074BEA50FC34666401310429DED124
:10FE3000F0BDC046FC900040A02000200090004093
:10FE40000C05000000B51E2810D80C4A800083580D
:10FE500003290BD8A0220800C133FF33D2059B0031
:10FE600003F0B8FB020905070021D15000BD0C21A9
:10FE7000FBE70421F9E70321F7E7C046C8A1020028
:10FE80001E280AD8074B8000C25801239340A022A5
:10FE9000D205002902D1044953507047A121C9005D
:10FEA000FAE7C046C8A102000C05000003000020CC
:10FEB0001E2B0AD8A021A222C905D2008858034AC5
:10FEC0009B009B58D840012318407047C8A10200EE
:10FED00010B540220021040006F063FC002320003E
:10FEE0002364636410BD10B53F24026C531C23408F
:10FEF000446C9C4201D08154036410BD0023036410
:10FF000043647047436C026C934206D03F21C25C4D
:10FF100001330B4043641000704701204042FBE76F
:10FF2000036C406C181A00D540307047436C026C6B
:10FF3000934201D0C05C704701204042FBE70000C3
:10FF4000F0B5DE4657464E464546E0B585B00193CE
:10FF5000030010CB03919A460B00013B9B469B0884
:10FF6000009202936ED001339B00994600235546C0
:10FF7000042698462F68201C391C03F00FFD00282A
:10FF800002D0F31E98463C1C6F68201C391C03F0FD
:10FF900005FD002802D0B31E98463C1CAF68201C0B
:10FFA000391C03F0FBFC002802D0731E98463C1C51
:10FFB000EF68201C391C03F0F1FC002801D0B0468A
:10FFC0003C1C043610354E45D4D1029B1B019A448B
:10FFD00003235D465A461D40134222D053461E68F5
:10FFE000211C301C03F0C6FC002826D16E1E012DFA
:10FFF00017D053465D68201C291C03F0CFFC002855
:020000022000DC
:1000000003D0039B2C1C9B1B9846012E09D0534602
:100010009D68201C291C03F0C1FC002801D0D84693
:100020002C1C4246009B1C60019B1A6005B03CBC26
:1000300090469946A246AB46F0BD039B341C5B1B21
:100040009846D3E700239846C2E7C046F0B5DE469F
:1000500057464E464546E0B585B00193030010CBA8
:1000600003919A460B00013B9B469B08009202932A
:100070006ED001339B0099460023554604269846CE
:100080002F68201C391C03F075FC002802D0F31ED9
:1000900098463C1C6F68201C391C03F06BFC002840
:1000A00002D0B31E98463C1CAF68201C391C03F0DC
:1000B00061FC002802D0731E98463C1CEF68201C8F
:1000C000391C03F057FC002801D0B0463C1C043614
:1000D00010354E45D4D1029B1B019A4403235D4643
:1000E0005A461D40134222D053461E68211C301C24
:1000F00003F054FC002826D16E1E012D17D0534664
:100100005D68201C291C03F035FC002803D0039BEC
:100110002C1C9B1B9846012E09D053469D68201C21
:10012000291C03F027FC002801D0D8462C1C42468D
:10013000009B1C60019B1A6005B03CBC9046994630
:10014000A246AB46F0BD039B341C5B1B9846D3E72D
:1001500000239846C2E7C046F0B54E46DE465746F5
:100160004546E0B503888C469A00160066440C00AC
:10017000B44693B0119159081091890042680E90CD
:100180000F966018DB086144002B00D119E1A246EC
:100190001B015344B146A0468A46834600920D9304
:1001A00048464246406852680290584601925A4674
:1001B000406812680990584603925A46C06892688F
:1001C0000B9050460A925246414640681268434698
:1001D000059050468E68CC68049249465246C068E5
:1001E0001B68926809680C90181C06924D4608918D
:1001F000079303F02FFC4346AF680299ED6818603F
:10020000019803F027FC4346391C5860301C03F06A
:1002100021FC4346291C9860201C03F01BFC43462C
:100220000899D860079804F0B9F8029907900198E6
:1002300004F0B4F8391C0190301C04F0AFF8291C0C
:100240000290201C04F0AAF804990890039803F087
:1002500001FC5B46099D05991860281C03F0FAFB18
:100260005B460A9F06995860381C03F0F3FB5B4617
:100270000C9E0B9C9860311C201C03F0EBFB5B4632
:100280000399D860049804F089F8291C0390059814
:1002900004F084F8391C051C069804F07FF8211C32
:1002A0000490301C04F07AF8009F05903C68079891
:1002B000211C03F041FF7E68071C311C019803F0EC
:1002C0003BFF011C381C03F0C5FB4B46211C18608A
:1002D000019803F031FF311C071C079803F02CFF35
:1002E000011C381C04F05AF84B46311C5860039826
:1002F00003F022FF211C071C281C03F01DFF011C1A
:10030000381C04F04BF85346311C1860281C03F0CD
:1003100013FF211C051C039803F00EFF011C281C71
:1003200003F098FB5346009F5860BC680298211C5C
:1003300003F002FFFD68061C291C089803F0FCFE70
:10034000011C301C03F086FB4B46211C986008986A
:1003500003F0F2FE291C061C029803F0EDFE011CBE
:10036000301C04F01BF84B46291CD860049803F09D
:10037000E3FE211C061C059803F0DEFE011C301C68
:1003800004F00CF85346291C9860059803F0D4FE3D
:10039000211C051C049803F0CFFE011C281C03F04F
:1003A00059FB5346D86010239C46103700970D9B8D
:1003B000E044E344E244E144984500D0F0E60E9B7B
:1003C0005A686B4640215B181C8811982100022353
:1003D00001F014FA0E9B21005A680F98022301F0D5
:1003E0000DFA13B03CBC90469946A246AB46F0BD10
:1003F000F0B5DE4657464E4645468C46E0B5038886
:10040000A5B05B089E00B4446746B4446546B44456
:1004100062460C682290029540682D685B0819902E
:100420000791201C291C0392219303F013FB291C24
:100430000190201C03F0B2FF079C029D64686D6868
:100440008246291C201C03F005FB291C8146201C28
:1004500003F0A4FF3B00039A1D6814687F6883467D
:100460000199281CB8460593576803F0F3FA211C3C
:1004700003F0F0FA0799059B086008311D91484682
:10048000596803F0E7FA039A516803F0E3FA079911
:1004900048605146404603F0DDFA391C03F07EFF08
:1004A000059B291C1A001860083258461B9203F05D
:1004B00075FF211C03F0CEFA059A291C50600198A3
:1004C00003F06CFF211C03F069FF029B1900083147
:1004D00018601C914846414603F060FF391C03F048
:1004E0005DFF029948604146504603F057FF391CB2
:1004F00003F0B0FA039F59463A0038600832281CCE
:100500001A9203F0A7FA211C03F048FF78601998AB
:10051000219B0100023B08311F91183008315C0813
:1005200020911E90239400D11AE23300BB460C3B6D
:100530009B4408235B420493043308220693103340
:100540009846D9460E940D900C910192019B079EFE
:10055000F458029E201CF558291C03F07BFA291C34
:10056000071C201C03F01AFF4146079A02965558B3
:1005700076580890311C281C03F06CFA311C041CBE
:10058000281C03F00BFF4146059D039A695809900A
:100590008B464146515858468A46089903F05AFA04
:1005A000514603F0FBFE019B039AEE580595D55882
:1005B000311C0F90099803F0F1FE291C03F04AFA50
:1005C000311C1090381C03F0E9FE291C03F0E6FEF4
:1005D00059461190201C03F0E1FE514603F0DEFE67
:1005E00059461290089803F0D9FE514603F032FAAA
:1005F00009991390301C03F02DFA291C03F0CEFE4C
:10060000391C1490301C03F025FA291C03F022FA3F
:100610004146019B079E059DF0506958201C03F040
:1006200019FA4146039F4446795803F013FA3051B2
:100630002E00049D039774597D59201C291C03F03A
:1006400009FA291C0890201C03F0A8FE069A0399B9
:10065000B55805968E58071C311C281C140003F051
:10066000F9F9311C0990281C03F098FE4946029EB6
:10067000069435598C680A90211C281C03F08EFEC4
:10068000391C061C03F0E6F91590029A04990A98A1
:1006900051588B46494649688A46594603F07EFEC2
:1006A000514603F0D7F959461690089803F076FEA4
:1006B000514603F073FE291C1790099803F06EFE53
:1006C000211C03F06BFE391C0B90301C03F066FEFE
:1006D00059461890504603F061FE0A9903F05EFEF9
:1006E0000999071C281C03F0B5F9211C03F0B2F985
:1006F000069A059C049D029EA0507159089803F02B
:10070000A9F94946496803F0A5F905946051049593
:100710001999019BCC584346CD580F9B211C181C9E
:100720009B4603F009FD109B061C291C181C9A46C9
:1007300003F002FD011C301C03F08CF9019B0599AC
:10074000C850211C504603F0F7FC291C061C5846D3
:1007500003F0F2FC011C301C03F020FE4346059917
:10076000C850169B291C181C9B4603F0E5FC159BE2
:10077000061C211C181C9A4603F0DEFC011C301CD0
:1007800003F00CFE069A029E291CB050504603F05E
:10079000D3FC211C051C584603F0CEFC011C281C70
:1007A00003F058F9049D0C9970510C684D68103194
:1007B00002960C91119B211C181C9B4603F0BCFC5B
:1007C000129B061C291C181C9A4603F0B5FC011C40
:1007D000301C03F03FF9019B029E211CF050504653
:1007E00003F0AAFC291C061C584603F0A5FC011CBA
:1007F000301C03F0D3FD4146029E70500B998A468F
:10080000802109068C46E244211C504603F094FCEA
:10081000179B061C291C181C9B4603F08DFC011C11
:10082000301C03F0BBFD069A039E291CB0500B98A8
:1008300003F082FC211C051C584603F07DFC011CC2
:10084000281C03F0ABFD049D0D9970510C68139B9F
:100850004D6818310D91181C211C9A46039603F01F
:100860006BFC149B061C291C181C9B4603F064FCA3
:10087000011C301C03F0EEF8039E019B211CF0507C
:10088000584603F059FC291C061C504603F054FC42
:10089000011C301C03F082FD4146039E7050291C50
:1008A000381C03F049FC189B061C211C181C9A4696
:1008B00003F042FC011C301C03F070FD49468860C7
:1008C000291C504603F038FC211C051C381C03F081
:1008D00033FC011C281C03F0BDF849464860082081
:1008E000019B40420833844601930823E1449C461F
:1008F0000E99069A049D013912182D180E91E044A4
:1009000006920495002900D020E61D99239A8C4672
:10091000D3009C4461461D911F9920988C469C44AD
:1009200061461F911B998C469C44614684461B91ED
:10093000110012019444624620921C9A94469C44F1
:1009400062468C461C924A001E9962448C46D20034
:10095000944462461E921A9A94469C4463461A93A3
:100960001D9E1C9F34683D68201C291C03F072F8F2
:10097000291C0190201C03F011FD74687D688146DC
:10098000291C201C1D961C9703F064F8291C834623
:10099000201C03F003FD1B9C061C63684946984617
:1009A0001A9B40465F6803F055F8391C03F0F6FCCB
:1009B0001A9B25681B941C680490291C301C03F0AA
:1009C000EDFC211C03F046F8291C8246019803F037
:1009D000E5FC211C03F0E2FC41460690584603F07A
:1009E000DDFC391C03F0DAFC41460890484603F070
:1009F000D5FC391C03F02EF8311C8046281C03F06E
:100A000029F8211C03F0CAFC0199061C281C03F0DC
:100A100021F8211C03F01EF81D9D1B9C28606168B5
:100A2000584603F017F81A9B596803F013F81F99FA
:100A30006860049B0F684D68181C391C9B4603F0C6
:100A40007BFB291C041C504603F076FB011C201C78
:100A500003F000F81B9C391C2060504603F06CFB2F
:100A6000291C041C584603F067FB011C201C03F0E2
:100A700095FC1B9C20996060069B0F684D68181CB4
:100A8000391C9A4603F058FB089B041C291C181CAF
:100A9000994603F051FB011C201C02F0DBFF1C9A5D
:100AA000391C1060484603F047FB291C041C5046C3
:100AB00003F042FB011C201C03F070FC1C9A5060E8
:100AC0001E9A404617685568391C03F035FB291CEF
