:020000021000EC
:10B000000040002009EF010049EF01004BEF010073
:10B010000000000000000000000000000000000030
:10B020000000000000000000000000004DEF0100E3
:10B0300000000000000000004FEF010051EF010090
:10B0400053EF010053EF0100B5F2010053EF01008F
:10B0500053EF01000000000053EF010053EF010027
:10B0600053EF01008DF7010053EF010053EF010092
:10B0700053EF010053EF010053EF010053EF0100C4
:10B0800053EF010085F6010053EF010053EF01007B
:10B0900053EF010053EF010091CA010053EF01008B
:10B0A00053EF010053EF010000000000000000001A
:10B0B0000000000000000000000000000000000090
:10B0C00010B5064C2378002B07D1054B002B02D07E
:10B0D000044800E000BF0123237010BDC8220020F7
:10B0E00000000000FC900200044B10B5002B03D0C0
:10B0F0000349044800E000BF10BDC0460000000046
:10B10000CC220020FC900200164B002B00D1144BE7
:10B110009D46402292029A1A924600218B460F4683
:10B120001348144A121A09F01AFE0F4B002B00D0D4
:10B1300098470E4B002B00D09847002000210400B8
:10B140000D000D48002802D00C4800E000BF09F0B7
:10B1500071FD2000290004F0D1FA09F045FDC04638
:10B160000000080000400020000000000000000077
:10B17000C8220020582A0020000000000000000023
:10B1800010B5040001F040FFC6235B00E058043313
:10B19000E3581430C01A142106F0AAFD080010BDAF
:10B1A00008B4034B9C46034BC01A08BC6047C0461A
:10B1B00081B101007801000010B5040001F024FF06
:10B1C000C823C6225B005200E358A258934204D021
:10B1D000E4189534FF34207810BD01204042FBE78D
:10B1E00008B4034B9C46034BC01A08BC6047C046DA
:10B1F000B9B101007801000070B50400C82501F064
:10B2000003FFC6236D005B006059E358984209D0E4
:10B210000130142106F06CFD615164189534FF343F
:10B22000207870BD01204042FBE7000008B4034BCA
:10B230009C46034BC01A08BC6047C046F9B10100E8
:10B240007801000010B501F008FF10BD70B50400D2
:10B250000D0001F0D9FE87239B00E01801F07CFD72
:10B260000026B0420FD0D4214900635801365A1C41
:10B27000E318AD33FF3362501D70142A03D12368E5
:10B280002000DB6E9847300070BD000008B4034B0F
:10B290009C46034BC01A08BC6047C0464DB2010033
:10B2A00078010000F7B5040002F074F82300FA22D8
:10B2B00000257933FF3392005D609A60394B260098
:10B2C0002360394B394A6360394BC136A360230090
:10B2D000FF36FC33DA673000364902F028F92000E7
:10B2E000354FC9303900354AFF3001F05BFD23008E
:10B2F000E133FF330193042214233149019801F013
:10B30000FFFC81239B003900E0182E4A01F04AFD22
:10B3100087239B00E018102214232B4901F0F0FC36
:10B3200090239B00294A3900E01801F03BFDD4230B
:10B330005B00E550183BE550043BE550043BE5500D
:10B34000234B310020001C6001F0D5FF2100CD31DE
:10B35000FF31200001F0CFFF300001F046FC01007A
:10B36000200001F05DFE2100E5312000FF3101F0F9
:10B37000C2FF82239B00E118200001F0BCFF154AA8
:10B380002900019801F0F8FC88239B00E1182000B7
:10B3900001F0B1FF91239B002000E11801F0ABFF09
:10B3A0002000FEBDFC7B02007C7C0200BC7C020015
:10B3B000947C0200447B02006E7B0200697B0200E9
:10B3C000737B0200987B0200B27B0200D77B0200F5
:10B3D000E42200203DB401000FB410B5029801F042
:10B3E00065FE10BC08BC04B0184710B5040004F09A
:10B3F00023F9C4235B00E3586433984203D32368E2
:10B400002000DB6E9847200001F0FEFD10BDF8B56E
:10B41000C62705000C008E187F00B4420CD0EB59F3
:10B420001421581C06F064FCE95169182378953101
:10B43000FF310B700134F0E7F8BD0000094B70B527
:10B440001D680B680C000800DB689847236806003D
:10B450001B6920009847310002002800FFF7D7FF42
:10B4600070BDC046E422002070B5D4256D0042595D
:10B470000400002A12D001008723AD319B00C018C0
:10B48000D2B2FF3101F025FC04F0D6F8C4235B00F2
:10B49000E05000232000635101F0B6FD70BD0000B4
:10B4A00008B4034B9C46034BC01A08BC6047C04617
:10B4B00069B4010078010000144B10B50360144B0F
:10B4C000144A4360144B040083600300FC33DA67C2
:10B4D00090239B00C01801F057FC87239B00E018C5
:10B4E00001F0E0FB81239B00E01801F04DFC2000FF
:10B4F000E130FF3001F0D6FB2000C930FF3001F011
:10B5000043FC200001F0FCFE200010BDFC7B02008B
:10B510007C7C0200BC7C0200947C020010B504001C
:10B52000FFF7CAFF200004F0FDF8200010BD000066
:10B5300010B5024801F02AFB10BDC046AC2900201E
:10B5400010B5024801F034FB10BDC046AC29002004
:10B5500010B5024801F02DFB10BDC046AC290020FB
:10B5600010B5024801F004FB10BDC046AC29002014
:10B5700010B508300EC8024801F002FB10BDC046ED
:10B58000AC29002010B5024801F0FFFA10BDC046FA
:10B59000AC29002010B5024801F0F1FA10BDC046F8
:10B5A000AC29002010B5164CA14208D8802189048E
:10B5B000013A0160511E8A418260037110BD114C35
:10B5C000A14202D88021C904F2E70F4CA14202D85F
:10B5D00080210905ECE70D4CA14202D880214905E4
:10B5E000E6E70B4CA14202D880218905E0E7094C2F
:10B5F000A14202D88021C905DAE780210906D7E7F0
:10B6000048E8010090D0030020A1070040420F004D
:10B6100080841E0000093D00F0B587B000900479D9
:10B62000042C3BD0032C3BD0022C3BD0013C63428A
:10B630005C411F4B64421C40E418009B02275B796D
:10B640000193009B9B79002B0AD00027012B07D088
:10B650000337022B04D0033B1F007B1E9F410137A1
:10B6600003AD3B00002221002800FFF79BFF2A00CA
:10B67000009B083343CA43C3009E019B0836012B3D
:10B6800012D13B00002221002800FFF78BFF0ECDD6
:10B690000EC6084801F050FA07B0F0BD064CCCE7E2
:10B6A000064CCAE7064CC8E73B000122EBE7C04660
:10B6B00040420F00AC2900200024F40000127A0060
:10B6C00000093D0010B5040003F026FA054B2000E8
:10B6D000083323608023DB05A3600023236102334A
:10B6E000237310BDD47C0200002310B51A0019008A
:10B6F0000148FFF7E7FF10BDE8220020BFF34F8F9E
:10B70000034B044ADA60BFF34F8FC046FDE7C046E3
:10B7100000ED00E00400FA050120704701207047A9
:10B720000120704732207047704710B5040003F0C5
:10B73000F9FF200010BD000010B504001A0003F04E
:10B7400019FA044BA21D23600023D377E21D2000C9
:10B75000D37710BD247D020070B504001A491B4840
:10B7600003F09EFA206A03681B6A9847236820004A
:10B770009B6F9847206A302103681B689847050033
:10B78000206A002103681B68984701200138C046E1
:10B79000C046C046C046C046C046C046C046C04679
:10B7A000C046C046C046F1D123682000DB6F9847F1
:10B7B000206A03685B6A9847642003F055FF681E9F
:10B7C0008541E8B270BDC046157D0200E029002029
:10B7D00070B5012603250400831DDE77C31DDD77C8
:10B7E000E622002103F0D6F931004022200003F0C8
:10B7F000D1F906220221200003F0CCF9290084228D
:10B80000200003F0C7F970BD70B5040003F08EF995
:10B81000051E09D02000FFF79FFF0449044803F0EC
:10B820003FFA2000FFF7D4FF280070BD107D020012
:10B83000E029002070B5012503260400831DDD7773
:10B84000C31DDE777822002103F0A4F929006022CD
:10B85000200003F09FF92A000221200003F09AF94A
:10B8600031008422200003F095F970BD70B5050009
:10B8700014200C0003F0F8FE012C08D109490A48F5
:10B8800003F00EFA2800FFF7A3FF012070BD00208F
:10B89000022CFBD10549044803F002FA2800FFF707
:10B8A000C9FFF2E7087D0200E02900200C7D0200BC
:10B8B00039DF70473ADF70474DDF704710B504003D
:10B8C000024B036001F0EEF9200010BD048302007A
:10B8D00010B50400024B0360FFF7F0FF200010BD1D
:10B8E000AC7D020010B50400FFF7F2FF200003F06A
:10B8F00019FF200010BD000010B50400024B0360CA
:10B90000FFF7E6FF200010BDDC7D020010B504004B
:10B91000FFF7F2FF200003F005FF200010BD00003C
:10B920000B6870B5DB68080098470F4D04780F4925
:10B93000280003F0B5F921000A22280003F009FAD3
:10B94000210030394C1EA1412822094B0131094800
:10B950001A70FFF78BFF0849002800D1074928001B
:10B9600003F09EF970BDC046E02900206F7F020001
:10B9700060270020FC2800208A7F0200A57F0200AB
:10B9800010B50400FFF79AFF200003F0CBFE200063
:10B9900010BD13B56B46DC1C002323702378032BEA
:10B9A00009D82000FFF784FF0028F7D000221100FB
:10B9B000FFF7A4FEF2E7042101A8FFF77BFF0028B0
:10B9C00003D000221100FFF799FE019816BD000078
:10B9D000F0B58DB0FFF7DDFF04002D4E2D4930008E
:10B9E00003F05EF921000A22300003F0BCF92A4F6F
:10B9F00003AD2200390028000AF04CF8290030007D
:10BA000003F04EF9254C2B7823706B786370AB787C
:10BA1000A370EB78E3702B7923716B796371AB7949
:10BA2000A371EB7906ADE371FFF7B3FF0A22019032
:10BA30000100300003F097F9019A390028000AF05C
:10BA400029F82900300003F02BF92B78210023720C
:10BA50006B7809A86372AB78A372EB78E3722B79E9
:10BA600023736B796373AB79A373EB79E37303F09F
:10BA700094FC09A9300003F009F909A803F045FC7A
:10BA800010222100064801F024F90DB0F0BDC04697
:10BA9000E0290020597F0200697F020084200020F5
:10BAA0002427002070B594B007AD10220021280093
:10BAB00009F055F900223C49535CAB540132102A7D
:10BAC000FAD13A4E29003000103009F02CF930003C
:10BAD000FFF7F2FE364C3749200003F0E1F800236F
:10BAE000F218127CEA540133102BF9D129000BA86B
:10BAF00003F053FC0BA9200003F0C8F80BA803F0D7
:10BB000004FC2D49200003F0CBF80023F25CEA543A
:10BB10000133102BFAD129000BA803F03EFC0BA92E
:10BB2000200003F0B3F80BA803F0EFFB234920003B
:10BB300003F0B6F800252B002033F25C68000BAB55
:10BB400018181F49013509F0A5FF102DF3D10BA9D5
:10BB500004A803F022FC04A9200003F097F804A82D
:10BB600003F0D3FB174D0BA92022280009F0DBF8C6
:10BB700000226B1C144904A8DA7703F00EFC29009C
:10BB800001A803F00AFC01A904A803F005FD0100C7
:10BB9000200003F07BF801A803F0B7FB04A803F032
:10BBA000B4FB14B070BDC0468420002018240020CF
:10BBB000E0290020297F0200347F02003D7F02003F
:10BBC000447F020044290020497F020070B506002E
:10BBD0000D000024B4420CDA0121122003F040FED3
:10BBE000280003F041FD0021122003F039FE01344A
:10BBF000F0E770BD70B505000B4C0C49200003F058
:10BC000023F8280001F006F80100200003F048F8AE
:10BC10000022074B1A70FFF7DBFEFFF743FFC82136
:10BC20000520FFF7D3FF70BDE0290020C47F02008C
:10BC3000FC22002070B50500094C0A49200003F0E1
:10BC400003F8280000F0E6FF0100200003F028F8C8
:10BC5000C8210120FFF7BAFF0022034B1A7070BD04
:10BC6000E02900209E800200FC22002070B5050023
:10BC7000084C0949200002F0E7FF280000F0CAFF45
:10BC80000100200003F00CF8C8210120FFF79EFFFF
:10BC900070BDC046E029002095810200A02210B5A9
:10BCA0000124114BD2009C50104A11489958084069
:10BCB000802189010143FF209950995800020840D2
:10BCC0006921014399500B491C604A68002AFCD045
:10BCD00000224A60A121C900585801215960A021C1
:10BCE000C90000B25A5010BD0070004004050000A9
:10BCF000FF00FFFFFC70004007B56B46D9710733AA
:10BD00000122190000F0E5FF0EBD0000F0B5404C27
:10BD10008DB00E0020003F4907AF02F0C1FF112295
:10BD20000021380009F01BF8002533683000DB687B
:10BD30009847435D7B550135102DF6D1364904A84F
:10BD400003F02BFB390001A803F027FB01A904A88D
:10BD500003F022FC0100200002F098FF01A803F08C
:10BD6000D4FA04A803F0D1FA2C4904A803F015FB77
:10BD70002B4901A803F011FB01A904A803F00CFC56
:10BD80000100200002F082FF01A803F0BEFA04A81F
:10BD900003F0BBFA234B1E78002E19D12249200054
:10BDA00002F07EFF1E4BBA5D9B5D9A4205D01F4993
:10BDB000200002F075FF0DB0F0BD0136102EF1D15C
:10BDC0001B49200002F06CFF0123164A1370F2E7B2
:10BDD000012EF0D11749200002F062FF2B00103B2A
:10BDE000FA5C0F4B5B5D9A4201D01349E0E70135E5
:10BDF000202DF3D11149200002F052FF10492000FC
:10BE000002F04EFF31210F48FFF776FF0223DCE7F7
:10BE1000E0290020DF7F0200FD7F02000D8002008C
:10BE200044290020FC2200202080020034800200EF
:10BE300045800200588002006C8002007D80020074
:10BE40009080020048240020F0B5ADB003F0F4FB70
:10BE50000024059004940420FFF720FFEA4B029091
:10BE6000186006F073FF0027E84E029B35682851E2
:10BE70002D196F606C2B02DD049B013304930121AB
:10BE8000122003F0EDFC0021122003F0E9FC8023D6
:10BE90000834DB009C42DED103F0CEFB059B00247E
:10BEA000C01A08F049FD029003910021122003F00E
:10BEB000D7FC049B373B05933368D549185906F0E6
:10BEC0006BF8431E9841012540420540290012208D
:10BED00003F0C6FC02980399FE2300229B0507F09D
:10BEE000E5FE08F0B9FC00280DD00138C046C04678
:10BEF000C046C046C046C046C046C046C046C04612
:10BF0000C046C046F1D180230834DB009C42D3D127
:10BF10000021122003F0A4FC059B122B00D94DE256
:10BF2000BA4BBC4C1D682668012329000022BA4880
:10BF300004F0F0FA31002800802204F079FF206834
:10BF400007AB076006AA402103F05EFD079B08AA25
:10BF5000206805934021002303F0D0FC089D06983B
:10BF6000291C06F019FD802322681B06061CE9180F
:10BF70001000402305F080F8FE20311C800506F0FB
:10BF800001FA2568011C2A002800402305F012F858
:10BF900023AA1100A14B61CB61C161CB61C161CB0F
:10BFA00061C14025236809210133FF3300950BA8A7
:10BFB00004F05AFB236821685A1CFF322B000BA89F
:10BFC00004F062FB2468651C2200FF352E002B0064
:10BFD000F132FF32196902C39342FBD1F8235B00AF
:10BFE000E7500433E7500433E7500433E7500027A9
:10BFF0000433E41801CE08F0D1FC894B894A05F0DE
:10C000007DFF431E98413F18A642F3D1380006F049
:10C01000E7FEF221890506F08DFB0AAB09AA041C94
:10C020004021280003F0F0FC201C08F0B7FC7D4AFA
:10C030007D4B05F077FF002800D1BFE1029A039BFA
:10C0400000207A4907F028FA08F0FAFC02900598D7
:10C0500006F0C6FE029906F06DFB08F09FFC002278
:10C06000734B07F023FEFE2300229B0507F01EFE04
:10C0700008F0E6FC6F49059020A803F08EF9022233
:10C0800005991DA803F028FA1DA920A803F084FA39
:10C09000694903F08EFA05000A2204991AA803F0F0
:10C0A000ACF91AA9280003F077FA644903F081FA81
:10C0B00063490600029806F03DFB0222051C011CA4
:10C0C00017A803F009FA17A9300003F065FA5D49D3
:10C0D00003F06FFA5C4903F06CFA06000222211C9F
:10C0E00014A803F0F9F914A9300003F055FA5749E0
:10C0F00003F05FFA06000222069911A803F0ECF99A
:10C1000011A9300003F048FA0100514802F0BEFDC9
:10C1100011A803F0FAF814A803F0F7F817A803F031
:10C12000F4F81AA803F0F1F81DA803F0EEF820A81F
:10C1300003F0EBF8474920A803F02FF902220599F4
:10C140001DA803F0C9F91DA920A803F025FA42494A
:10C1500003F02FFA06000222291C1AA803F0BCF9EA
:10C160001AA9300003F018FA3C4903F022FA05003E
:10C170000222211C17A803F0AFF917A9280003F029
:10C180000BFA374903F015FA04000222069914A8A5
:10C1900003F0A2F914A9200003F0FEF9314903F0DD
:10C1A00008FA04000A22079911A803F038F911A926
:10C1B000200003F0F1F92C4903F0FBF901000EA86F
:10C1C00003F06DF911A803F0A0F814A803F09DF88E
:10C1D00017A803F09AF81AA803F097F81DA803F01F
:10C1E00094F820A803F091F80EA9204802F04EFD23
:10C1F00080251422802702261D4B6D001A70BF0077
:10C20000044C2368585935E028290020342900209F
:10C210000000D84238290020F0860200047E020087
:10C220009999C93F9A9999999999E93F0000604075
:10C2300000408F40BC800200C2800200CA80020021
:10C2400000007A44D7800200DB800200E780020011
:10C25000E0290020F2800200F8800200FE80020047
:10C26000048102000A81020010810200FC250020E6
:10C270006027002008F092FB043502000B000096B6
:10C28000B84802F031FEBD42BAD1B74D2B78002B31
:10C290001FD0022B33D123680024B44F0493049A97
:10C2A000631CFF33E619D058316805F0D1FEFC213C
:10C2B000890506F03FFA8023043430605B009C421D
:10C2C000EDD1FD3B3321AA482B70FFF715FDA9499D
:10C2D00011E080222468A5495200581CFF302058E4
:10C2E000C85004339342F8D102233221A0482B7066
:10C2F000FFF702FDA0499B4802F0D2FC5BE0032B54
:10C300005ED127680024994D631CFF336619F858E5
:10C31000316805F09DFEFC21890506F00BFA8023AB
:10C32000043430605B009C42EED117AA28001AAB9F
:10C33000402103F069FB914D1A9B914C2B60179B98
:10C34000904920A8236003F028F8022221681DA844
:10C3500003F0C2F81DA920A803F01EF9814C0100CA
:10C36000200002F093FC1DA802F0CFFF20A802F0ED
:10C37000CCFF854920A803F010F80A2229681DA8DF
:10C3800003F04DF81DA920A803F006F901002000D4
:10C3900002F07CFC1DA802F0B8FF20A802F0B5FF57
:10C3A0007A49200002F07CFC04226F4B3421704853
:10C3B0001A70FFF7A1FC0EA802F0A7FF2DB0F0BD88
:10C3C000042BF8D16D4B0A9A1B68991E9142F2D842
:10C3D00002339A42EFD88024002564006C4E336803
:10C3E000185905F047FB614A631EFF3B071CD058F4
:10C3F00005F040FB011C381C06F0CEFA011C06F0CB
:10C4000099F93368011C1851281C05F021FE80237E
:10C410000434051C9B009C42E0D105F02BFB5D4FD2
:10C42000041C3D68291C05F0ADFD002800D190E0FA
:10C43000594920A802F0B1FF022205991DA803F076
:10C440004BF81DA920A803F0A7F8544903F0B1F850
:10C4500005000A2204991AA802F0CFFF1AA92800A1
:10C4600003F09AF84E4903F0A4F80500029808F08A
:10C4700095FA00224B4B07F019FC02260B00020034
:10C48000009617A803F042F817A9280003F084F8D3
:10C49000454903F08EF8334D0100280002F0F6FB09
:10C4A00017A802F032FF1AA802F02FFF1DA802F011
:10C4B0002CFF20A802F029FF3C4920A802F06DFFC4
:10C4C0000A220A991DA802F0AAFF1DA920A803F0BC
:10C4D00063F8374903F06DF83200049009991AA8FF
:10C4E00002F0FAFF1AA9049803F056F80100280098
:10C4F00002F0CCFB1AA802F008FF1DA802F005FF0D
:10C5000020A802F002FF3F682A4920A802F045FF58
:10C51000211C381C06F040FA391C05F033FF26496F
:10C5200006F008F93200011C1DA802F0D5FF1DA974
:10C5300020A803F031F8214903F03BF8010028005E
:10C5400002F0A4FB1DA802F0E0FE20A802F0DDFE30
:10C5500031E7291C201C05F01FFD002800D12AE727
:10C560001749C8E6E02900202429002018230020CC
:10C570000027002020810200128102003C290020B7
:10C58000402900202E8102003E8102004E810200DF
:10C59000382900209420002059810200C280020026
:10C5A0006081020000408F40D78002006C81020051
:10C5B000768102007F8102000000C842898102006A
:10C5C0008B81020010B5054A1378002B03D0013B84
:10C5D0001370012010BDFFF737FCFAE76027002039
:10C5E000F8B505000126041D2B008533FF339C425E
:10C5F0001ED22368002B11D003F01EF8A368E26856
:10C600000700C31A9A4209D860682368984700282F
:10C6100006D02369002B03D02661A7601834E3E716
:10C62000002323606360A360E36023616361F5E737
:10C63000F8BD000010B50D48FFF7D2FF02F0FCFF77
:10C640000B4C2368002B09D10A4B18349C42F8D3B9
:10C6500002F0F2FF0848FEF7C8FE10BD02F0ECFF42
:10C66000A368C01AE3689842EED3F1E7642700207C
:10C6700068270020E828002084240020F8B5002343
:10C68000494C1A0019002000FFF71CF8474D230001
:10C690001C221E212800FFF74FF8454C4549220077
:10C6A000280005F0DFF9444D092302220A21280061
:10C6B000FEF7F8FD22004149280005F0D3F9404972
:10C6C000404800F034FF404D142312223F49280017
:10C6D00000F07EFB3E4F22003900280005F0C2F931
:10C6E0003C4D3D4E29003D4A300000F05BFB2200EE
:10C6F0003B49300005F0B6F93A4E142308223A4976
:10C70000300000F065FB22003900300005F0AAF986
:10C71000364E2900364A300000F044FB22003049F2
:10C72000300005F09FF9334F12223349380000F0F2
:10C7300007FF324E22003100380005F093F9304FE8
:10C740002900304A380000F02DFB2200244938002F
:10C7500005F088F92C4F1A222C49380000F0F0FE21
:10C7600031002200380005F07DF9294F29003800FA
:10C77000284A00F017FB22003800194905F072F929
:10C78000254D1A222800254900F0DAFE310022004A
:10C79000280005F067F90021C0222148520002C09C
:10C7A00008F0DDFAF8BDC046E8280020FC2800208B
:10C7B0008020002029B7010084240020B9B40100A2
:10C7C000287E02002C290020242700204D7E020014
:10C7D000BDB801006E7B0200482700205F7F020089
:10C7E00089CD010068290020727E02008C2900207A
:10C7F000977E020048240020A07E0200F9B80100C4
:10C800006C240020C57E020000270020CA7E0200A2
:10C8100000230020EF7E0200DC260020047F0200BF
:10C8200064270020E121F8B5694D4902280002F093
:10C830009BFBC021674C4900200000F0A0FD664929
:10C84000200000F0F0FB654E300000F0CEF9010052
:10C85000200000F0E5FB624A0021200000F007FC08
:10C86000604A0121200000F002FC5F4A0321200001
:10C8700000F0FDFB5D4A00215D4800F07DFA5D4F50
:10C880005D4A0021380000F077FA3100200000F006
:10C8900032FD5A492000043100F02DFD5849200096
:10C8A000043100F028FD524B2000191D00F023FD3B
:10C8B00054492000043100F01EFD534B2000191D87
:10C8C00000F019FD51492000043100F014FD504ED4
:10C8D0002000311D00F00FFD4E492000043100F012
:10C8E0000AFD391D200000F006FD30214648FFF703
:10C8F00003FA494B300019783031C9B2FFF7FCF91F
:10C9000030213800FFF7F8F92000FEF765FD10220E
:10C910004249434808F007FA0121122002F082FF41
:10C920000021042002F07EFF0021052002F07AFFA2
:10C930003C48FEF769FF3C49002800D13B492800EC
:10C9400002F0AEF90023002039499A0001338850E3
:10C95000402BFAD18020C00008F0B0F9354B1860A8
:10C960008020C00008F0AAF9334B1860092002F0BB
:10C9700007FF02F061FE314B314A1968002913D0DC
:10C9800018339342F9D3012428002E4902F074F998
:10C99000214B300031211C70FFF7AEF9FA21200045
:10C9A0008900FFF713F9F8BD274A11680131002902
:10C9B00000D101211160126898605A61234A1A60FF
:10C9C00000225A601432DA60133A1A61DBE7C0467B
:10C9D000E029002084240020D18102002C2900209D
:10C9E000F5BB010035BC01006DBC01000DBD0100AF
:10C9F00068290020DC26002021B90100242700201E
:10CA0000482700208C290020482400206C24002086
:10CA1000002700200023002024290020C1810200DB
:10CA200018240020FC280020E5810200F381020088
:10CA300018230020342900203829002068270020EE
:10CA4000E82800200582020064270020C5C50100F7
:10CA500052DF70470C4B37B51B78002B13D00B4CB3
:10CA60002568002D0FD001A8FFF7F2FF05280AD096
:10CA7000002804D000221100FEF740FEF1E70198E3
:10CA800023689847EDE737BDA4290020A829002096
:10CA900010B5FFF7DFFF10BD70B5002504AC24789A
:10CAA0000573A94205D10A4B0A4A25210A4808F014
:10CAB00069F801600949920052589B0002715B5865
:10CAC000A40083716358856043710223C37170BDF4
:10CAD0000F820200718202001D8202002086020085
:10CAE000037B002B04D1437383730361013303730E
:10CAF000704700001FB50191A02100240068C90003
:10CB0000D2B24450012A10D0A24209D0032A0AD03E
:10CB1000074A8350074B019AC250012343501FBD5F
:10CB200002221343F4E70422FBE70622F9E7C0469A
:10CB3000540500002405000010B50400FFF7D0FFE5
:10CB4000A1222368A179D20099506179064A200078
:10CB50009950217904329950044B19685A689B689E
:10CB6000FFF7C8FF10BDC0460C050000C02900201B
:10CB7000A02200230168D2008B50037370477047D6
:10CB80001FB5FFF7B7FF05B000BD70470368074A40
:10CB900099501A00FC32D1680029FCD0A321C900A9
:10CBA00058580023C0B2D3607047C0461C0500002F
:10CBB0007047704707B58022074BD2051A600022E4
:10CBC0009A6002321A711823153200930349013317
:10CBD0000348FFF761FF07BDC02900200030004077
:10CBE000AC2900200160828070470068704780880F
:10CBF000704737B5062504002A000021684608F072
:10CC0000AEF82A00201D694608F07EF8431E9841C0
:10CC1000C0B23EBD10B5034C0430210000F0A8FCAA
:10CC2000200010BDCC29002010B50430062208F0E9
:10CC30007AF810BD10B504300622002108F08FF8F4
:10CC400010BD10B504000160FFF7F4FF200010BD17
:10CC5000807A7047C0687047007C7047002070473A
:10CC6000C368585C704770B50D001100026804007D
:10CC7000D6691A00B0470123A374A369002B02D020
:10CC800021002800984770BD70B5040008000D0011
:10CC900008F032FF2368C2B22900DB692000984700
:10CCA00070BD0000054B10B5083304000360C06878
:10CCB000002801D008F00CF8200010BDB08202005E
:10CCC00010B50400FFF7EEFF200002F02BFD20005E
:10CCD00010BD10B50400807A031C904200D9131CCB
:10CCE000DAB22374E06808F01EF863690120002BB3
:10CCF00004D01A68210012681800904710BD000087
:10CD0000F8B51D00040017000430104A00F06EF85A
:10CD10000F4B083323602B1C142D00D91423002142
:10CD20002000A372E16021746774A174E1746161F1
:10CD30000C221830DEB208F012F8002D03D03000BB
:10CD400007F0BCFFE0602000F8BDC04603280000EB
:10CD5000B0820200407C7047C07C7047030008002E
:10CD6000DA7451424A4107329200D25810B5002A73
:10CD700001D01900904710BD0B2902D80631890057
:10CD80000A50704741617047704700697047007DE5
:10CD900070470369585C704710B5040002F0C2FC8C
:10CDA000200010BD70B51500A422040092010430CB
:10CDB00000F01CF8044B256108332800236008F0BC
:10CDC0009BFE2075200070BDE082020001207047AC
:10CDD00070B504001D00FFF793FF034B2574083363
:10CDE0002000236070BDC046FC82020010B5040024
:10CDF000FFF7F8FE024A200013780133137010BDCC
:10CE0000DE290020014B18787047C046DE2900203B
:10CE100010B5C06803681B6A984710BD08B4024B80
:10CE20009C46043808BC604711CE010010B5C068AC
:10CE300003685B6A984710BD08B4024B9C460438EF
:10CE400008BC60472DCE010010B5C06803689B6A1E
:10CE5000984710BD08B4024B9C46043808BC604794
:10CE600049CE010010B5C0680368DB6A984710BD61
:10CE700008B4024B9C46043808BC604765CE0100EC
:10CE800010B5C06803681B6B984710BD08B4024B0F
:10CE90009C46083808BC604781CE010010B5C068C8
:10CEA00003685B6B984710BD08B4024B9C4608387A
:10CEB00008BC60479DCE010010B5C06803689B6B3D
:10CEC000984710BD08B4024B9C46083808BC604720
:10CED000B9CE010010B5C0680468E46BA04710BD6E
:10CEE00008B4024B9C46083808BC6047D5CE010008
:10CEF00010B5C06803681B6C984710BD08B4024B9E
:10CF00009C46083808BC6047F1CE010010B5C068E7
:10CF100003685B6C984710BD08B4024B9C46083808
:10CF200008BC60470DCF010010B5C06803689B6C5A
:10CF3000984710BD08B4024B9C46083808BC6047AF
:10CF400029CF010010B5C0680368DB6C984710BD9D
:10CF500008B4024B9C46083808BC604745CF010026
:10CF6000030010B5FC335B6F002B02D05D30FF3047
:10CF7000984710BD030010B5FC339B6F002B02D007
:10CF80005D30FF30984710BD0100100010B50468F7
:10CF90001A005D3102AB1B78FF31646AA04710BDF7
:10CFA0007047704770B5050004005D35FF3511000E
:10CFB0002800FC34FFF738FEE36E002B01D0280078
:10CFC000984770BD030010B5FC335D301B6FFF3018
:10CFD0000400002B00D098472000FFF72BFE10BD67
:10CFE000010010B55D311000FF311A00FFF7B6FEE9
:10CFF00010BD010010B510005D311A0002AB1B78A6
:10D00000FF3100F077FA10BD10B5C0680368DB6827
:10D01000984710BD10B5C06803681B69984710BDDC
:10D0200088300160704798300160704770B5060025
:10D03000A436336804000D00002B05D100F030FA4F
:10D04000800007F03BFE3060A834237832689B00F4
:10D050009D5023780133237070BD10B50400FFF795
:10D06000D3FF20005D30FF30FFF7C3FD10BD0F2957
:10D0700002D85A3189000A50704710B50400FFF7F2
:10D08000C1FE800007F01AFE23009C3318601033A5
:10D0900003600C334360243383602033C3600C335C
:10D0A00003610523A034237010BD0000302100234C
:10D0B000F0B5AFB002AA5218137003008C33196890
:10D0C0000400002900D1AAE008A800F095FA08A8F9
:10D0D00000F0BEFA022383429B415B4216AA14333E
:10D0E00005001070537008A800F0B0FA010052203B
:10D0F0001A2602AB2A00C018761B07F014FE012581
:10D10000F6B2230088331968002929D008A800F056
:10D1100073FA08A800F09CFA431C0700B3421FDA18
:10D120001F20030050216B4302AA5218D754062334
:10D13000022F00D8043B684316AA121853700790B8
:10D1400008A800F083FA079B0100981C16AB18187A
:10D150003A0007F0E8FD023E0135F61BEDB2F6B2EB
:10D16000230090331968002916D01A79002A13D0A9
:10D17000022E11D9531CB34201DB023EF2B21F232F
:10D18000FF276B4316A81A54C61802337770C018CD
:10D1900007F0C9FD0135EDB2230098331E68002E5B
:10D1A0001BD0300008F0A8FCC0B21D283AD83022AD
:10D1B00002AB9B181870302202AB9B181A78002320
:10D1C00082425B41312002A9091808330B700130FB
:10D1D00002AB3100C01807F0A6FD27009C373B6862
:10D1E000002B02D12000FFF748FF00230793230004
:10D1F000A0331B78079A93421ADD93003A689E5831
:10D200003000FFF7F4FC314B984205D1301E00D0BE
:10D21000301F211DFFF7B6FD079B0133E6E71C26F3
:10D220000D006EE730211D2302AA52181370C2E7C9
:10D2300000272300A8331B78BB4213DD2300A4334F
:10D240001B68BA00D6583000FFF7D1FC1F4B98423C
:10D2500006D1301E00D0301F2100083100F05DF9EA
:10D260000137E6E7002B0BD021002931FF312000E8
:10D27000FFF7DCFE21003531FF312000FFF7D6FE3D
:10D280003022210002AB9B18A8311B780978E06896
:10D290005A1E9341026804912100A4310968DBB24F
:10D2A00003912100A0310978029121009C31096885
:10D2B00001910EA900919668290016AAB047E0686E
:10D2C00003681B6D98472FB0F0BDC04603280000CF
:10D2D00070B506009C36336804000D00002B01D1A8
:10D2E000FFF7CBFEA034237832689B009D50237853
:10D2F0000133237070BD10B5FFF7EAFF10BD0000C9
:10D3000010B50400164B0360164B4360164B836048
:10D31000FFF780FE2300A4331868002801D007F02F
:10D32000D7FC23009C331868002801D007F0D0FCFC
:10D3300020003130FF3000F0B9F8601DFF30FFF7FA
:10D34000B1FC2000D830FFF7ADFC2000B430FFF76F
:10D35000A9FC2000103000F077FE200010BDC04670
:10D3600058830200C0830200D883020010B5040075
:10D37000FFF7C6FF200002F0D5F9200010BD07B569
:10D380006B46D9800633D83002221900FFF7A1FC82
:10D3900007BD0000334BF7B50360334B0400436017
:10D3A000324B00258360030010331800009301F016
:10D3B00075FA2300200088335D609D601D731D6138
:10D3C0005D611D76DD611D6004331D772849AC3039
:10D3D00000F0ADF82300B433019302221323254952
:10D3E0000198FFF78DFC022320001A002249D83053
:10D3F000FFF786FC2000214FFC30390000F097F841
:10D400001F4E601D042331002022FF30FFF778FCFF
:10D41000200029303900FF3000F081F82000313041
:10D4200031002022FF3000F049F820005D3021005B
:10D43000FF30FFF706FC2000009B6930E3601022FC
:10D440002900FF3007F08BFC0E490198FFF71CFC08
:10D4500029002000FFF793FFE068210001F0AAFAFD
:10D460002000FEBD58830200C0830200D883020062
:10D470002C83020031830200368302003B830200CA
:10D48000408302004583020010B50400FFF7AAFBA9
:10D49000024A200013780133137010BDDF290020E9
:10D4A000014B18787047C046DF290020704710B53F
:10D4B000040002F037F9200010BD000070B5040030
:10D4C00015000430094AFFF7DFFF00212000084B58
:10D4D000A57208332360E31CE1720422D977283057
:10D4E000616207F03CFC200070BDC04603280000CC
:10D4F000F883020070B50400C3720D000C301100F7
:10D500001A0007F010FC0122E31CDA77A36A002B53
:10D5100002D021002800984770BD41627047A022C8
:10D5200010B504009201FFF7AFFF200010BDA0224C
:10D5300010B504009201FFF759FC200010BD000057
:10D5400013B504000123FFF743FC074B01222360BE
:10D550006B46D91D002320000B70FFF7BAFB034B6D
:10D560002000236016BDC046AC7D0200DC7D0200B9
:10D57000F0B51E4C8BB005000E0001A8210001F093
:10D580000CFF210004A801F008FF05242B5D0F2BE0
:10D5900003D8174901A801F0F0FF1022295D07A860
:10D5A00001F01AFF07A904A801F083FF07A801F002
:10D5B000ACFE04A901A801F0DAFF671E002C06D01A
:10D5C0000C4901A801F0D9FF3C007B1CDED10023EF
:10D5D0001222310001A802F000F804A801F095FE23
:10D5E00001A801F092FE0BB0F0BDC046B08602006B
:10D5F0001E810200F6800200F7B50023050001AE8F
:10D600002960037508000F003380B37008F074FAC6
:10D61000441E002C18DB2B7D0F2B15D83A5D2D2ACC
:10D6200002D10134023CF4E73B19013B1B787270D4
:10D63000002110223000337008F0FCFA2B7DEA182C
:10D64000013310712B75EDE72800FEBD04307047E3
:10D65000007D704771DF704772DF704773DF70477E
:10D6600075DF704776DF704777DF704778DF704788
:10D670007ADF70477CDF70477EDF70477FDF70475F
:10D6800086DF704790DF704792DF704796DF704704
:10D6900098DF704799DF7047A0DF7047A2DF7047BF
:10D6A000A3DF7047A4DF7047A6DF7047A9DF70478C
:10D6B00060DF704761DF704762DF704763DF70478C
:10D6C00053DF704710DF704711DF70475C30007820
:10D6D000431E9841C0B2704702000300002030B5DD
:10D6E0006D321478844213DD1D6F0201AA1815688B
:10D6F0008D420BD10020D189814206D0127B920746
:10D7000003D574331B780130584030BD0130E9E750
:10D710000020FAE70300002270B56D331C789442B4
:10D720001BDD056F1301EB181D688D4213D100221C
:10D73000D98991420DD0197B89070AD501000124AE
:10D7400074310C70D989008FFFF7A0FF424242412B
:10D75000D2B2100070BD0132E1E70022F9E7020009
:10D760000300002030B56D32147884421BDD1D6F3C
:10D770000201AA1815688D4213D10020D189814277
:10D7800006D0127B110704D574331B780130584042
:10D7900030BD5207FCD55C331878431E9841C0B2A7
:10D7A000F6E70130E1E70020F2E7F0B587B00400CA
:10D7B00001936D3006780020864230DD276F050129
:10D7C0007D192F688F4228D10020EF89874222D00F
:10D7D000297B0C2529421ED026005C3635788542EF
:10D7E00019D0082319404B424B4103A901330B7058
:10D7F0006B469B888A60CB80230001227433013DF5
:10D800001A7048704F8088803570208FFFF740FF76
:10D8100043425841C0B207B0F0BD0130CCE7002010
:10D82000F9E70300002230B56D331C78944212DD15
:10D83000056F1301EB181D688D420AD10020DA89AB
:10D84000824205D0187B30231840431E9841C0B255
:10D8500030BD0132EAE70020FAE70300002230B5CC
:10D860006D330400187885B090422BDD256F1301CD
:10D87000EB181D688D4223D10020DA8982421DD029
:10D8800030211B7B0B4219D020390B4059424B41B0
:10D89000694601334B800123881CD21801A94A80B4
:10D8A000802292020292220074320B8013708860F0
:10D8B000208FFFF7EDFE43425841C0B205B030BDA6
:10D8C0000132D1E70020F9E710B503681B6C9847D7
:10D8D00010BD0300002230B56D330400187885B008
:10D8E000904226DD256F1301EB181D688D421ED175
:10D8F0000020DA89824218D0197B3023194214D0D3
:10D900006B4658809D1C012301A9D2184A808022B1
:10D9100092020292220074320B8013708D60208F6D
:10D92000FFF7B6FE43425841C0B205B030BD0132E8
:10D93000D6E70020F9E70B0010B527331ADB0B0000
:10D940001D331ADB0B00133319DB0B000F3318DB0D
:10D950000B000B3317DBCB1D17DBCB1C17DBC817FA
:10D96000401AC00F800040B2FFF77EFE434258418C
:10D97000C0B210BD28204042F5E71E20FBE714206E
:10D98000F9E71020F7E70C20F5E70820F3E704207B
:10D99000F1E710B51321008FFFF764FE10BD13B53A
:10D9A00004006846FFF756FE2069002805D06A4645
:10D9B00003680132DB692100984713BD37B50023A6
:10D9C000050001A80193FFF77BFE2C69002C0ED007
:10D9D000019806F077FF0022054B06F067F907F083
:10D9E0002FF82368021C1B6A29002000984737BDC6
:10D9F0000000D03F704710B5040086B01822002107
:10DA0000684607F0ACF90023A27A9A4200D10333AA
:10DA10006A461370A0880A21000104F06DF96B4674
:10DA200018826846FFF71AFE06B010BD0300F0B575
:10DA30005D330C001A7806000023142193B09A423B
:10DA400067DD0F005F43306EC7193868A0425ED1B2
:10DA50002000FFF77FF9012318425AD07B68002B82
:10DA600057D033003100333302931D7814312A002C
:10DA70000AA807F058F9236820001B699847043565
:10DA80002818C3B2039300230193039B1F2B3BD899
:10DA90007868FFF7AAF8010004A8FFF7ADFD236836
:10DAA00020001B6998471822029B03301D7804ABA5
:10DAB0009B1858550AAB5B19023A04A85A70FFF735
:10DAC000C5FD02350AAB01000222581907F02BF9F7
:10DAD000029B20001D780AAB04355D192368DB68C2
:10DAE0009847236807001B69200098473900020007
:10DAF000280007F018F9002303991A000AA8FFF775
:10DB0000ABFD012374630193019813B0F0BD0133A1
:10DB100095E70023F7E70A21F0B5D9B004ABC9189F
:10DB20008E2311AE5B00040030000B80FFF7C2FDB6
:10DB3000011E0ED13388302B00D190E139D8112B42
:10DB400000D1BDE007D8012B00D182E0102B00D11D
:10DB500085E059B0F0BD142B00D10DE1192B00D197
:10DB600019E1132BF5D1E068002800D1FFE000F0A7
:10DB7000BBFE002800D0FAE007AD052200212800F6
:10DB800007F0EDF80122302313432B700723002107
:10DB9000EA702A006B700933AB70A36D0D91099385
:10DBA0000E910F910A910B91208F09ABFFF766FD43
:10DBB000CFE7382B00D11DE22AD8322B00D19BE1D0
:10DBC000362BC6D12300743318700623F288FF3336
:10DBD0009A4200D0F1E1E368002B00D1EDE109ADFC
:10DBE0000522280007F0BBF80123EA7829001A4330
:10DBF000EA702A78134370229343403A13432B7000
:10DC000007236B700933AB70208FFFF735FDA0E75A
:10DC1000502B00D1D4E0522B00D11AE1392B00D087
:10DC200097E7B37BB589022B03D1208F2900FFF73B
:10DC300031FD23006D3319780023994200DC88E719
:10DC4000206F1A018218D089A84200D1C3E10133A4
:10DC5000F3E75C342378327A9B18237079E7B08835
:10DC600009AD20872900FFF727FD23002A785C33C0
:10DC70001A702069002806D03D22036804A95218B2
:10DC80001B6821009847E288052A0DD9C8212389FD
:10DC900009018B4208D86B80C8235B042A800A9351
:10DCA000208F2900FFF7DCFC230064331B78002B56
:10DCB00000D14EE700220121208FFFF7E3FC48E767
:10DCC00001235B422387230005005C331870230087
:10DCD0005D331B78AB4218DD142600276E43236E9C
:10DCE0009E19377477743068FFF736F8B8420AD057
:10DCF0002069B84207D0036832685B6921009C46FE
:10DD00003B006646B0470135E1E72069002803D0B3
:10DD1000036821005B68984700250C2623006433C4
:10DD20001B78AB420ADD30006843A36E042218184A
:10DD30000830002107F013F80135EFE70023250034
:10DD400018006D352A789A4208DD216F1A0189186A
:10DD50000873216F01338A18D081F3E72300002272
:10DD600074331A70236820009B699847F1E60023FA
:10DD7000208F1A00852119E7A56D338A6A8A208FC2
:10DD80009A4205D10B000A002900FFF779FCE0E672
:10DD90000B000A00F9E7327A002A00D0D9E6E068E1
:10DDA000002804D021001C233C3100F0B2FD206982
:10DDB000002800D1CDE603689B6821009847C8E69B
:10DDC0000500F388049323005D331B78AB4200DC2D
:10DDD000BFE614276F43236E049ADF193B899342F1
:10DDE0000ED12069002800D1B3E6327C036800928E
:10DDF0001D69462304AA9B183A682100A847A8E693
:10DE0000BB89049A934222D10121F27CB37C120295
:10DE100013431BB29AB20B403B7453080B407B7404
:10DE200003231A40531E9A413868D3B20393FEF776
:10DE300093FF039B98420AD02069002800D188E60E
:10DE400003683A685D692100039BA84781E60135B4
:10DE5000B9E7208F0B000A00FFF728FC79E6F58868
:10DE6000002D18D0230005000C2164331A78AA4233
:10DE700000DC6EE60B006B43A06EC3181889002807
:10DE800038D05889002835D02200083319006C3268
:10DE90001570208F72E04227B389039304ABFF18FB
:10DEA000039BAB421DDD230064331A7800239A42A2
:10DEB00012DD0C205843A16E0818B9788C46817980
:10DEC0008C450CD139888C4681888C4507D1083027
:10DED000391D042206F027FF01350837E0E701333A
:10DEE000E5E7039B208FDB00F618B18900220131A2
:10DEF00089B2E2E60135BAE72000F1886C30027899
:10DF00000C2300293DD15A43A16E8A18926804A9B6
:10DF10000992422252180A21B5890490694389184E
:10DF2000039105930399914226D0260000206D3677
:10DF3000317881421BDD049F059B3F78216F5F4351
:10DF40000501A36E4919FF584B689F420DD1937884
:10DF50008F7ABB4209D113880F89BB4205D117794B
:10DF60000F73236F11895D19E9810130E0E7108992
:10DF700009A908800A32D5E7208F09A9FFF784FB99
:10DF8000E7E521000132534364310D7895420DDD00
:10DF9000A16EC9180E89002E05D04E89002E02D020
:10DFA0000270083175E701320C33EFE72069002871
:10DFB00000D1CEE50368DB68FFE623006D331978F6
:10DFC0000023B089994200DCC3E5256F1A01AA1825
:10DFD000D58985420CD12069002800D1B9E5317C72
:10DFE000036800919D69462304A95B18126804E741
:10DFF0000133E7E72300743318700623F288FF33F8
:10E000009A4200D0A5E5E368002B00D0E7E5A0E543
:10E0100010B50400FFF758FB206F002801D006F070
:10E0200057FEA06E002801D006F052FE206E002898
:10E0300001D006F04DFE220000235D326D341370D6
:10E04000D371237010BD000010B50400044B0833D9
:10E050000360FFF7DDFF200000F096FC200010BDFC
:10E060001C84020010B50400FFF7EEFF200001F051
:10E0700059FB200010BD000013B56C46128861806A
:10E08000228001006A4602480193FFF70BFB16BD90
:10E09000FFFF0000F0B5F3B01C007AAB1B78060060
:10E0A00007937CAB1B78019115009B4904220EA8B5
:10E0B000099306F038FE00210EA8FFF703FB262087
:10E0C000964B12220F930AAB0021C01806F047FEB0
:10E0D0000A2313AF0FA93B803800093B3B733B7207
:10E0E000FFF7E6FA8E4B11A81193C8235B04129335
:10E0F000FFF7BEFA0020FFF7B7FA81235B00B38277
:10E10000FC3BB3753300032233331A70019B002BA1
:10E1100021D0002D1FD01F23019A5343EB180193E8
:10E120003700019B33373878AB4214D02B78321844
:10E13000013313756B780230C0B2537538701430E8
:10E140002A78A91C301806F0EEFD2A783B781F3596
:10E150009B183B70E4E7002C1ED0789B002B1AD054
:10E160001F277C431D001B1900240193019BAB4218
:10E1700012D02F782AA87B1C03556A780319023421
:10E18000E4B25A700019A91C3A003C1906F0CBFD04
:10E19000E4B21F35EAE7789C330030003333197856
:10E1A0002AAA23001430FFF757FA0020FFF75EFA7F
:10E1B0000024079BA3420EDD799AA300D058FEF7F6
:10E1C00016FD584B984204D132005D32137801336A
:10E1D00013700134EDE733005D3318780338C0B2B3
:10E1E00018701423584306F069FD00230BAA13800E
:10E1F000799A30660392029308930593079B029ADB
:10E20000934200DC11E2039B1D682800FEF7EDFC41
:10E2100001001DA8FFF7F0F91DA8FFF717FA040089
:10E220001DA8FFF715FA02282BD162782378120275
:10E2300010A913430B8001238B702800FEF7D7FC35
:10E24000A0239B01984231D12800FEF7CEFC36492D
:10E2500007F040FC00280DD02800FEF7C6FC33492B
:10E2600007F038FC002805D00BAA10A90120FFF701
:10E2700013FA0895029B01330293039B0433039323
:10E28000BCE732AF21001022380006F04CFD627B63
:10E29000237B1202134310AA138000231A21BB818F
:10E2A0000AABC9183800FFF709FAC6E72800FEF7DD
:10E2B0009EFC1C4B984200D032E12F1E00D02F1F35
:10E2C0003C1D2000FEF791FC194907F003FC0028D3
:10E2D00011D1112332AC23703B683800DB689847BA
:10E2E0003B6805001B6938009847290082B220006E
:10E2F000FFF7C0F9BEE72000FEF777FC0D4907F0F5
:10E30000E9FB002818D13B683800DB689847008893
:10E31000FFF7ACF9AEE7C046088402008020002079
:10E3200028005000032800002C8302003B830200D9
:10E3300031830200368302002000FEF756FCCD49EF
:10E3400007F0C8FB002895D03800FEF703FD3B68B6
:10E3500004901B69380098470AABD8801423002525
:10E36000059A29005A43336E01929F50336E23A8B9
:10E370009B181D74336E9B185D74336E9B18089A3E
:10E380005A601C2206F0EBFC01226421049B93439B
:10E390000AAA521813703023049A1A420FD00CACF8
:10E3A00003222900200006F0DAFC0622B24B23806B
:10E3B000A37893431A0002231343A37028940DAC4F
:10E3C00003220021200006F0CAFC3223049A1A42DC
:10E3D00004D0F368002B52D0212323700C23049A1D
:10E3E0001A4205D0F2680DAB002A4AD021225A7099
:10E3F00006220DACA378380093431A00022313437E
:10E40000A3703B689B69984701210122A37882434E
:10E410008B431343A370029B5B180493039B0693E7
:10E42000049A079B93423CDD069B5D682800FEF73B
:10E43000DEFBA4239B01984233D12C1E00D02C1F5D
:10E44000251D2800FEF7D1FB8C4907F043FB00286F
:10E4500019D1236820009B68984723682490DB68C3
:10E4600020009847236823AD2881DB682000984767
:10E470006881049B01330493069B0433CFE7112387
:10E48000ABE71122B3E72800FEF7AFFB7C4907F0AA
:10E4900021FB0028EDD1236820009B689847269037
:10E4A000E7E742200AAB0A220021C01806F057FC19
:10E4B00010AB18AD18930DAB6B600AABDB8838005E
:10E4C0002B813B6800249B689847019A336EA88192
:10E4D0009B1808332A0023A920002C61FFF7DEF8DF
:10E4E0000AABDB88A34216D00AAB9A1D1388A3425D
:10E4F00008DD3B6821005B693800984732ABE05487
:10E500000134F1E7316E019B8C4663441889002188
:10E5100032ABFFF7B1FD059B0133DBB20593A9E6F2
:10E520002800FEF764FBA4239B01984200D0A1E6DB
:10E530002C1E00D02C1F251D2800FEF756FB4F492E
:10E5400007F0C8FA002800D194E62800FEF74DFB3A
:10E550004C4907F0BFFA002800D18BE62800FEF7EF
:10E5600044FB494907F0B6FA002800D182E62800AA
:10E57000FEF73BFB424907F0ADFA002800D179E6EF
:10E5800023682000DB68984723AD0AAB988118AF59
:10E5900014220021280006F0E2FB032200213800AB
:10E5A00006F0DDFB0223BB7023682000DB68984780
:10E5B0000AAB9B8980B2C01A0121421E9041BA78F1
:10E5C0008A431043F268B870002A25D021223A709D
:10E5D0002B8110AA23682A6018AADB686A602000D1
:10E5E00098470027A8810BAA23A938002F61FFF7BD
:10E5F00057F80DAB1B88BB4200D13BE63D000DAA8E
:10E600001388AB420ADD236829001B692000984764
:10E6100032ABE8540135F2E71122D8E70BAB18888A
:10E62000002132ABFFF728FD24E60025099BAB4211
:10E630002ED01C002F00023CE4B22500BC4227DD96
:10E640007B9ABB00D5582800FEF7D1FAA0239B0186
:10E65000984206D1320064321378013313700137C7
:10E66000EBE72800FEF7C3FA084B9842F7D13200D7
:10E670006D32F1E740830200111100006E7B020051
:10E680000C8402001184020016840200032800009A
:10E6900033000C2064331B78AD00584306F00EFBAA
:10E6A0003300B0666D331878000106F007FB7B9FDE
:10E6B00030677B1904930023029301930393049B17
:10E6C000BB426ED03C682000FEF78FFA010032A8F2
:10E6D000FEF792FF32A8FEF7B9FF050032A8FEF759
:10E6E000B7FF022825D16A782B7812021DA913439F
:10E6F0000B8001238B702000FEF779FAA0239B0189
:10E7000098422DD10C20019B1D9A5843B36E0021D5
:10E710001C50B36E1B185A60B36E042218180830D0
:10E7200006F01DFB019B03940133DBB20193043718
:10E73000C5E72900102223A806F0F5FA6A7B2B7B97
:10E740001202134370211DAA138000230AAA521833
:10E75000138022390AABC91823A8FEF7AFFFCAE716
:10E760002000FEF744FA194B9842E0D1221E00D057
:10E77000221F029B316F1B01CA50326F0399D218BE
:10E780005160326F1D99D21891600021326FD218FA
:10E790001173326FD318D981029B0133DBB202931C
:10E7A000C5E7F06800280AD000F09EF8002806D0DF
:10E7B00031001C2300223C31F06800F0B9F83368C6
:10E7C00030009B69984773B0F0BDC0460328000035
:10E7D0000123F0B5040000278BB0029101932300C0
:10E7E0005D331B78BB4255DD14257D43236E5D19D7
:10E7F0002E68029B9E4247D1626B934204D12368EC
:10E8000002995B6A20009847336830001B6998477B
:10E8100004ABD8802B8930000393336806AEDB68E5
:10E82000984704AA0300063200210398FFF724FC4E
:10E830000A2004ABC0180E22002106F090FA2B89A2
:10E84000338004AB0633B3602B7C002B0CD022004A
:10E850005C321378002B19D0013B13700123B37085
:10E86000208F3100FEF720FF6B7C002B0CD02200A4
:10E870005C321378002B0BD0013B13700223B37072
:10E88000208F3100FEF710FF0137A8E70193EBE777
:10E890000193F9E701980BB0F0BD000010B504003A
:10E8A00000F07AF80D4B0021083323602300333346
:10E8B000197001235B422387200023003C305C3326
:10E8C00061631C22198021661972A1661982216771
:10E8D0001976A06506F043FA200010BD1C840200E2
:10E8E00029DF704728DF7047036818680130431E2E
:10E8F0009841C0B2704780235B0510B51969006864
:10E9000003F070F904002000FFF7ECFF1128FAD0A3
:10E9100010BD70B51C0005000E00FFF7ECFFA40849
:10E92000220031002868FFF7DBFF1128F8D070BD06
:10E93000002210B500689A4203D284588C500432E9
:10E94000F9E710BD70477047704700207047704767
:10E95000704700207047002070470020704700205B
:10E96000704700207047002070470020704700204B
:10E97000704700207047002070470020704700203B
:10E980007047704770477047704710B5040000F03B
:10E99000C9FE200010BD0000054B012208330360B2
:10E9A00064234360002382720381C3600361704764
:10E9B0008084020001617047012070470379032BB6
:10E9C000FCD0012070470020704781717047417171
:10E9D0007047C17270470173704741737047837B02
:10E9E0009343194381737047C079C0B27047007A6E
:10E9F000C0B27047407AC0B27047807AC0B27047E8
:10EA0000008A00B270470079C0B270470171704748
:10EA1000408A80B27047808A80B27047C08A80B2D4
:10EA2000704770B505000C002B682800DB6898471C
:10EA3000002805D1002CF7D0200000F015FEF3E7E8
:10EA400070BDF8B505000F00140000F0F5FD0600DC
:10EA500000F0F2FD801BB8420BD22B682800DB6867
:10EA60009847002806D1002CF2D0200000F0FCFDD1
:10EA7000EEE70020F8BD70B504000E0000F0DCFDEC
:10EA8000050000F0D9FD401BB04204D22379032BCE
:10EA9000F7D0012070BD0020FCE7C36970B5040009
:10EAA000002B17D000F0C8FD642506002368200065
:10EAB0001B6B984700280DD000F0BEFDE369801B5A
:10EAC000984209D80A21012000F015FC684300F0A3
:10EAD000CBFDEBE7012070BD0020FCE7074BFF22D8
:10EAE0000360002342710371C27243820273838206
:10EAF00043738373C382C3617047C046EC840200D2
:10EB00007047704770477047704741717047817117
:10EB1000704701717047000010B5034C0171083453
:10EB200004604271837110BD6485020010B5040059
:10EB3000006A0368DB689847631DD87FFF2802D00E
:10EB4000012100F06FFE23682000DB6F98476420EE
:10EB500000F08AFD012010BD10B50530C07F0021F6
:10EB600000F07EFE10BD10B50530C07F012100F021
:10EB700077FE10BD70B504000D001600FFF7AEFF64
:10EB8000034B26622360631DDD77200070BDC04605
:10EB9000A085020070B50400006A150003680E002D
:10EBA0001B6A9847236820009B6F98471021206AB2
:10EBB000314303681B6898470600206A29000368F0
:10EBC0001B68984701200138C046C046C046C04671
:10EBD000C046C046C046C046C046C046C046C04605
:10EBE000F1D123682000DB6F9847206A03685B6AD5
:10EBF0009847300070BDF7B506000D000C008B186B
:10EC00000193019B671B9C4207D0336821781B68E6
:10EC10003000984701340028F3D13800FEBD70B5AC
:10EC2000040008000D0006F067FF236802002900B9
:10EC30005B682000984770BD10B50B1E02D0FFF72F
:10EC4000EEFF0300180010BD10B5FFF7F5FF10BD73
:10EC500010B503688A685B680968984710BD10B5ED
:10EC600003681B68984710BD10B50249FFF7D7FF2E
:10EC700010BDC046AE86020070B50400FFF7DCFF91
:10EC800005002000FFF7F0FF401970BD70B50500CA
:10EC9000FFF7DEFF04002800FFF7E6FF201870BD35
:10ECA00070B50400FFF7C8FF05002000FFF7DCFF88
:10ECB000401970BDF0B58BB06B46150000220533CE
:10ECC0000600DA770800012D00D80A2509AC2900D2
:10ECD00003F00EF8CAB2130037330700DBB209297C
:10ECE00002D813003033DBB2013C2370002FEED189
:10ECF00021003000FFF7A0FF0BB0F0BDF8B5060013
:10ED00000C00151E04D10368C9B21B689847F8BDF2
:10ED10000A2A0CD100290BDA2D21FFF7A0FF61424E
:10ED200007002A003000FFF7C5FF3818EFE7D2B21E
:10ED300021003000FFF7BEFFE9E710B5002A04D13B
:10ED40000368C9B21B68984710BDD2B2FFF7B2FF83
:10ED5000FAE770B50400FFF7F0FF05002000FFF7A9
:10ED600083FF401970BD70B50500FFF7E6FF040092
:10ED70002800FFF779FF201870BD0000F7B51E00CE
:10ED800008AB1B7831000193050033001000170019
:10ED900005F046FD4B49002814D101227400640897
:10EDA0005242494B3800210005F03AFD00280FD1AE
:10EDB0000122454B52423800210003F0A9F80028F7
:10EDC00006D142492800FFF72AFF04002000FEBDBB
:10EDD000E0223F4B12063800310003F0A3F8002870
:10EDE00001D03C49EEE7E0223B4B120638003100EF
:10EDF00003F084F80028F4D1002200233800310009
:10EE000003F07CF8041E07D02D212800FFF727FF10
:10EE1000802304001B06F618002300202F490093CE
:10EE2000019B009A934208D02D4B002204F034FB42
:10EE3000009B0133DBB20093F2E733003A0004F0A9
:10EE40000FF80F00060003F0E5F80A220190010018
:10EE50002800FFF72FFF009B0419002BB6D0019864
:10EE600005F06AFD02000B003000390005F090F952
:10EE700006000F0028001B49FFF7D1FE2418009B55
:10EE8000013BDBB20093FF2BA0D0154B00223000DA
:10EE9000390004F00BFF0F00060005F0DDFC0A222C
:10EEA000010001902800FFF729FF2418019805F0C0
:10EEB00009FD02000B003000390005F069F9060079
:10EEC0000F00DCE7A0860200FFFFEF7FA4860200B0
:10EED000FFFFEF41A8860200FFFFEFC10000E03F07
:10EEE00000002440AC86020037B519000400069BE0
:10EEF0002000DBB200930B00FFF740FF050020006D
:10EF0000FFF7B2FE40193EBD03210A4802680A43DA
:10EF10000260094802680A4302600849084A094B2E
:10EF20009B1A03DD043BC858D050FBDC00F012F8FC
:10EF3000FCF7EAF82405004054050040089102005F
:10EF400080200020C8220020FEE7FEE7FEE7FEE763
:10EF5000FEE7FEE7014B024A1A6070479820002046
:10EF60000024F4000120704710B503681322DB6908
:10EF7000984710BD70470000054B0269D1500369E6
:10EF8000FC331A6A002AFCD0002201201A62704762
:10EF90001C050000030010B55C331A781F231A40CB
:10EFA0001E3B19009140114AD167C2220421046915
:10EFB0009200A150026953600269D360A02300222D
:10EFC0000169DB00CA5001230169094A5B428B5089
:10EFD0000169084A8B5001690C3A8B50016908326B
:10EFE0008B50143000F068FC10BDC04604E100E016
:10EFF0000C0500001405000010B5143000F06EFC84
:10F0000010BD10B5143000F06FFC10BD10B51430F9
:10F0100000F056FC10BD0000030070B55E331A7896
:10F020000469724BE25003005D331A780469704B37
:10F03000E250030061331C7802696E4B012C00D052
:10F040009EE005005F352E78A225ED0056510200A6
:10F0500060321578A1220669D200B5500269D450F9
:10F060009623DB00994200D88CE096231B0199423D
:10F0700000D88AE096235B01994200D888E0962365
:10F080009B01994200D885E0E1239B01994200D879
:10F0900082E09623DB01994200D880E0E123DB0186
:10F0A000994200D87DE096231B02994200D87AE06D
:10F0B000E1231B02994200D877E096235B02994234
:10F0C00000D874E0E1235B02994200D871E0E123AB
:10F0D0009B02994200D86EE0474B994200D86CE001
:10F0E000E123DB02994200D86AE0E1220023120307
:10F0F0008A425B41414A5B421340802252059B1881
:10F1000001693F4A8B50A02304220169DB00CA50E9
:10F1100000210369FC33D9600369FC3319620123C0
:10F1200001690B6001698B60C1210469890062502B
:10F130001F215C3002780A4093406231314AFF312E
:10F1400053500021415600293CDA0F230B40083B65
:10F150002D4C9B089B001B1903242140A140FC342B
:10F160008C40DD69A5432C00C0258D40290021433A
:10F17000D9611F23017819401E3B8B40136070BD7D
:10F1800000246CE79E23DB02BAE79D231B03B7E74D
:10F190001E4BB5E71E4BB3E7EC239B03B0E71D4BBB
:10F1A000AEE71D4BACE71D4BAAE71D4BA8E71D4B77
:10F1B000A6E71D4BA4E71D4BA2E78023DB049FE7D6
:10F1C0001B4B9DE78C080F4BA400E41803230B4056
:10F1D000FF21C025DB009940AD0066598E43310008
:10F1E000C0269E4033000B436351C2E70C0500006C
:10F1F000140500006C05000090D0030000D0BEFE96
:10F200002405000000E100E000ED00E000B0130084
:10F210000050270000A04E0000F0750000509D0037
:10F2200000F0EB0000903A0100E0D70100B0AF031E
:10F2300000705F07F7B5009308AB1B7800250193BA
:10F24000FA2304009B0083600E4B45600833036083
:10F2500014300F00160000F019FB23005C33276107
:10F260001E70009B084A9B00995823005D3319705B
:10F27000019B20009B009A5823005E33DD701A70BA
:10F28000FEBDC046B486020020860200036910B5A8
:10F290001A00FC32D2680400002A0AD0A322D2004D
:10F2A00099581430C9B200F0FCFA00222369FC33EB
:10F2B000DA6010BD10B50248FFF7E8FF10BDC04688
:10F2C000E0290020092307B50222009302490233F6
:10F2D0000248FFF7AFFF07BD00200040E0290020F3
:10F2E00010B5041E05D006F087FB210002F0EAFDF0
:10F2F0000C00200010BD10B50400884203DA081A83
:10F30000FFF7EEFF2418200010BD10B504000068C0
:10F3100005F0DEFC200010BD10B5040000680028D8
:10F3200001D005F0D5FC00232360A360636010BD0D
:10F3300070B504000D000068013106F08FFB031E5C
:10F3400001D0012028C470BD036810B50400002B53
:10F3500004D043688B4201D3012010BD2000FFF789
:10F36000E7FF0028F9D0A368002BF5D122681370BD
:10F37000F2E770B50E00110004001500FFF7E4FF7E
:10F38000002804D12000FFF7C7FF200070BDA56052
:10F390003100206806F0A8FBF7E7002370B50400F1
:10F3A0000D00036043608360994207D0080006F0B7
:10F3B000A3FB290002002000FFF7DBFF200070BD47
:10F3C00070B5050008000C0006F096FB2100020055
:10F3D0002800FFF7CEFF70BD1FB504000023080012
:10F3E00023606360A36001A906F06AFC200001A904
:10F3F000FFF7E6FF200004B010BD10B500230400A5
:10F400008AB023606360A360080001A905F04EFC88
:10F41000200001A9FFF7D4FF20000AB010BD10B5ED
:10F42000002304008AB023606360A360080001A980
:10F4300000F037F9200001A9FFF7C2FF20000AB051
:10F4400010BD70B5050000680C0000280DD06B6879
:10F450008A68934207D3096806F046FBA368AB604D
:10F460000023A36070BD05F033FC23682B60636844
:10F470006B60A368AB60002323606360F1E710B5A5
:10F480000B000400884205D00968002904D09A685E
:10F49000FFF76FFF200010BDFFF73EFFFAE70023E4
:10F4A00010B50400036043608360FFF7E8FF2000AD
:10F4B00010BD10B50400884201D0FFF7C2FF200044
:10F4C00010BD10B50400002903D0FFF779FF20001C
:10F4D00010BDFFF721FFFAE7002370B516008CB0CE
:10F4E0000400036043608360951C081C05F056FA15
:10F4F0006DB203AB00932A00330000F089F80100DD
:10F500002000FFF7DEFF20000CB070BD30B5040016
:10F51000100000228DB0190010AB1B7822606260D1
:10F52000A26003AD9A1C52B2009500F071F8010080
:10F530002000FFF7C6FF20000DB030BDF8B5040075
:10F540000F1E02D100263000F8BD0126002AFAD095
:10F550008368D5182900FFF7F7FE0028F2D023684A
:10F56000A2683900981806F0BFFAA560EBE710B55D
:10F570008A680968FFF7E2FF10BD70B5050000203A
:10F580000C00814207D0080006F0B6FA2100020004
:10F590002800FFF7D3FF70BD10B58A680968040022
:10F5A000FFF7CCFF002802D12000FFF7B5FE2000B6
:10F5B00010BD70B504000D1E04D12000FFF7ACFE95
:10F5C000200070BD080006F097FA29000200200014
:10F5D000FFF7B4FF0028F0D0F2E770B50D00002A65
:10F5E00006D0002904D084689C4202D800230B7006
:10F5F00070BD013AE41A944200D914000168220057
:10F60000C918280006F07FFA00232B55F0E7FEE723
:10F6100030B5040087B00D00064901A806F03AFA9B
:10F6200022002B0001A90A9806F034FA0A9807B0C4
:10F6300030BDC046E48602000849094A094B10B5AE
:10F640001B688858FA22190A1B06184392000023E7
:10F6500002F0B6FC4904C00B084310BD0010014085
:10F6600004050000442A002070B5041E09D0FFF7ED
:10F67000E3FF050000F014F8FFF7DEFF401BA04297
:10F68000F8D370BD0022044B9A60044A136801331A
:10F69000DBB213607047C046FC100140442A0020D2
:10F6A0007047F0B50D008BB0170000290ED0931EE7
:10F6B000222B1FD801AC26002300002809D1A64226
:10F6C00007D02A00B34210D80023137028000BB0D3
:10F6D000F0BD390002F00CFBCBB2092903D830335E
:10F6E00023700134E8E75733FAE7013B19781170CA
:10F6F0000132E7E70025E9E77047000010B500F0A8
:10F7000015F8FFF7F9FF0120FFF7AEFFFDF78AF8C4
:10F71000FCF790FF024B002BFAD000E000BFF7E7A8
:10F720000000000010B505F0D3FA10BDC420114B45
:10F7300080001A5810491140C02212020A431A5080
:10F74000C0218022490092025A501A60A3218023CE
:10F7500001220020DB05C9005A509A60074B10397E
:10F760005850C120022180001950403019501A60B1
:10F770007047C04600E100E0FF00FFFF00100140BD
:10F78000014B18607047C046D82000202149F0B5D1
:10F790004A6C2148002A14D0A025A1260023012468
:10F7A000ED05F600C258571C06D0C7187F68002F19
:10F7B00002D027009740AF5114333C2BF2D10023E5
:10F7C0004B64A0230121DB0500260F009C46142377
:10F7D0004B43C3181A1F1268104C0E4D9200141997
:10F7E0005219526C002A10D01A00143A1268551C93
:10F7F00009D0103B1B68FF2B05D03B0093406546AA
:10F800001A00074BEA50FC34666401310429DED14A
:10F81000F0BDC046FC9000409C20002000900040BD
:10F820000C05000000B51E2810D80C4A8000835833
:10F8300003290BD8A0220800C133FF33D2059B0057
:10F8400002F0C6F9020905070021D15000BD0C21C4
:10F85000FBE70421F9E70321F7E7C0462086020011
:10F860001E280AD8074B8000C25801239340A022CB
:10F87000D205002902D1044953507047A121C90083
:10F88000FAE7C046208602000C05000010B54022B1
:10F890000021040005F063FA002320002364636460
:10F8A00010BD10B53F24026C531C2340446C9C4295
:10F8B00001D08154036410BD002303644364704786
:10F8C000436C026C934206D03F21C25C01330B4073
:10F8D00043641000704701204042FBE7036C406C1A
:10F8E000181A00D540307047436C026C934201D027
:10F8F000C05C704701204042FBE70000F0B5DE46E7
:10F9000057464E464546E0B585B00193030010CBFF
:10F9100003919A460B00013B9B469B080092029381
:10F920006ED001339B009946002355460426984625
:10F930002F68201C391C02F02FFB002802D0F31E78
:10F9400098463C1C6F68201C391C02F025FB0028DF
:10F9500002D0B31E98463C1CAF68201C391C02F034
:10F960001BFB002802D0731E98463C1CEF68201C2D
:10F97000391C02F011FB002801D0B0463C1C0436B3
:10F9800010354E45D4D1029B1B019A4403235D469A
:10F990005A461D40134222D053461E68211C301C7B
:10F9A00002F0E6FA002826D16E1E012D17D053462C
:10F9B0005D68201C291C02F0EFFA002803D0039B8D
:10F9C0002C1C9B1B9846012E09D053469D68201C79
:10F9D000291C02F0E1FA002801D0D8462C1C42462E
:10F9E000009B1C60019B1A6005B03CBC9046994688
:10F9F000A246AB46F0BD039B341C5B1B9846D3E785
:10FA000000239846C2E7C046F0B5DE4657464E464C
:10FA10004546E0B585B00193030010CB03919A46AB
:10FA20000B00013B9B469B08009202936ED0013372
:10FA30009B00994600235546042698462F68201CB3
:10FA4000391C02F095FA002802D0F31E98463C1C9F
:10FA50006F68201C391C02F08BFA002802D0B31EFC
:10FA600098463C1CAF68201C391C02F081FA002823
:10FA700002D0731E98463C1CEF68201C391C02F013
:10FA800077FA002801D0B0463C1C043610354E45AC
:10FA9000D4D1029B1B019A4403235D465A461D4064
:10FAA000134222D053461E68211C301C02F074FA07
:10FAB000002826D16E1E012D17D053465D68201CEC
:10FAC000291C02F055FA002803D0039B2C1C9B1B19
:10FAD0009846012E09D053469D68201C291C02F02F
:10FAE00047FA002801D0D8462C1C4246009B1C60D7
:10FAF000019B1A6005B03CBC90469946A246AB46B5
:10FB0000F0BD039B341C5B1B9846D3E7002398464B
:10FB1000C2E7C046F0B54E46DE4657464546E0B51C
:10FB200003888C469A00160066440C00B44693B0D5
:10FB3000119159081091890042680E900F96601833
:10FB4000DB086144002B00D119E1A2461B0153449C
:10FB5000B146A0468A46834600920D9348464246E7
:10FB6000406852680290584601925A4640681268AE
:10FB70000990584603925A46C06892680B905046C6
:10FB80000A925246414640681268434605905046E4
:10FB90008E68CC68049249465246C0681B689268D9
:10FBA00009680C90181C06924D460891079302F0C4
:10FBB0004FFA4346AF680299ED681860019802F069
:10FBC00047FA4346391C5860301C02F041FA43465C
:10FBD000291C9860201C02F03BFA43460899D86023
:10FBE000079802F0D9FE02990790019802F0D4FE1E
:10FBF000391C0190301C02F0CFFE291C0290201C01
:10FC000002F0CAFE04990890039802F021FA5B46BC
:10FC1000099D05991860281C02F01AFA5B460A9F94
:10FC200006995860381C02F013FA5B460C9E0B9C38
:10FC30009860311C201C02F00BFA5B460399D860D7
:10FC4000049802F0A9FE291C0390059802F0A4FE76
:10FC5000391C051C069802F09FFE211C0490301CE4
:10FC600002F09AFE009F05903C680798211C02F064
:10FC700061FD7E68071C311C019802F05BFD011CD0
:10FC8000381C02F0E5F94B46211C1860019802F07F
:10FC900051FD311C071C079802F04CFD011C381C5B
:10FCA00002F07AFE4B46311C5860039802F042FD88
:10FCB000211C071C281C02F03DFD011C381C02F011
:10FCC0006BFE5346311C1860281C02F033FD211CCA
:10FCD000051C039802F02EFD011C281C02F0B8F947
:10FCE0005346009F5860BC680298211C02F022FD18
:10FCF000FD68061C291C089802F01CFD011C301C24
:10FD000002F0A6F94B46211C9860089802F012FDFB
:10FD1000291C061C029802F00DFD011C301C02F08B
:10FD20003BFE4B46291CD860049802F003FD211CC1
:10FD3000061C059802F0FEFC011C301C02F02CFE93
:10FD40005346291C9860059802F0F4FC211C051C00
:10FD5000049802F0EFFC011C281C02F079F95346CC
:10FD6000D86010239C46103700970D9BE044E34475
:10FD7000E244E144984500D0F0E60E9B5A686B4699
:10FD800040215B181C8811982100022301F0C8F95A
:10FD90000E9B21005A680F98022301F0C1F913B09D
:10FDA0003CBC90469946A246AB46F0BDF0B5DE4657
:10FDB00057464E4645468C46E0B50388A5B05B08DD
:10FDC0009E00B4446746B4446546B44462460C6839
:10FDD0002290029540682D685B0819900791201CBD
:10FDE000291C0392219302F033F9291C0190201C55
:10FDF00002F0D2FD079C029D64686D688246291C52
:10FE0000201C02F025F9291C8146201C02F0C4FDAB
:10FE10003B00039A1D6814687F6883460199281C7B
:10FE2000B8460593576802F013F9211C02F010F947
:10FE30000799059B086008311D914846596802F0F2
:10FE400007F9039A516802F003F90799486051468F
:10FE5000404602F0FDF8391C02F09EFD059B291C6E
:10FE60001A001860083258461B9202F095FD211CBA
:10FE700002F0EEF8059A291C5060019802F08CFD02
:10FE8000211C02F089FD029B1900083118601C91A9
:10FE90004846414602F080FD391C02F07DFD029982
:10FEA00048604146504602F077FD391C02F0D0F818
:10FEB000039F59463A0038600832281C1A9202F013
:10FEC000C7F8211C02F068FD78601998219B010099
:10FED000023B08311F91183008315C0820911E90B8
:10FEE000239400D11AE23300BB460C3B9B44082309
:10FEF0005B42049304330822069310339846D94694
:10FF00000E940D900C910192019B079EF458029E55
:10FF1000201CF558291C02F09BF8291C071C201CEA
:10FF200002F03AFD4146079A0296555876580890D5
:10FF3000311C281C02F08CF8311C041C281C02F017
:10FF40002BFD4146059D039A695809908B46414611
:10FF5000515858468A46089902F07AF8514602F0FC
:10FF60001BFD019B039AEE580595D558311C0F9047
:10FF7000099802F011FD291C02F06AF8311C10905A
:10FF8000381C02F009FD291C02F006FD59461190AB
:10FF9000201C02F001FD514602F0FEFC5946129071
:10FFA000089802F0F9FC514602F052F809991390B2
:10FFB000301C02F04DF8291C02F0EEFC391C1490A4
:10FFC000301C02F045F8291C02F042F84146019B22
:10FFD000079E059DF0506958201C02F039F84146F3
:10FFE000039F4446795802F033F830512E00049DA7
:10FFF000039774597D59201C291C02F029F8291CEB
:020000022000DC
:100000000890201C02F0C8FC069A0399B558059682
:100010008E58071C311C281C140002F019F8311CE2
:100020000990281C02F0B8FC4946029E06943559F6
:100030008C680A90211C281C02F0AEFC391C061C9E
:1000400002F006F81590029A04990A9851588B46C6
:10005000494649688A46594602F09EFC514601F0DD
:10006000F7FF59461690089802F096FC514602F0A8
:1000700093FC291C1790099802F08EFC211C02F0B9
:100080008BFC391C0B90301C02F086FC59461890F2
:10009000504602F081FC0A9902F07EFC0999071C87
:1000A000281C01F0D5FF211C01F0D2FF069A059C07
:1000B000049D029EA0507159089801F0C9FF49465D
:1000C000496801F0C5FF0594605104951999019B99
:1000D000CC584346CD580F9B211C181C9B4602F060
:1000E00029FB109B061C291C181C9A4602F022FBB7
:1000F000011C301C01F0ACFF019B0599C850211C6C
:10010000504602F017FB291C061C584602F012FB51
:10011000011C301C02F040FC43460599C850169B58
:10012000291C181C9B4602F005FB159B061C211C74
:10013000181C9A4602F0FEFA011C301C02F02CFC3E
:10014000069A029E291CB050504602F0F3FA211C78
:10015000051C584602F0EEFA011C281C01F078FF3D
:10016000049D0C9970510C684D68103102960C91E9
:10017000119B211C181C9B4602F0DCFA129B061CEA
:10018000291C181C9A4602F0D5FA011C301C01F0FB
:100190005FFF019B029E211CF050504602F0CAFAFC
:1001A000291C061C584602F0C5FA011C301C02F03E
:1001B000F3FB4146029E70500B998A468021090646
:1001C0008C46E244211C504602F0B4FA179B061CF0
:1001D000291C181C9B4602F0ADFA011C301C02F0D1
:1001E000DBFB069A039E291CB0500B9802F0A2FA82
:1001F000211C051C584602F09DFA011C281C02F027
:10020000CBFB049D0D9970510C68139B4D68183100
:100210000D91181C211C9A46039602F08BFA149B30
:10022000061C291C181C9B4602F084FA011C301C79
:1002300001F00EFF039E019B211CF050584602F076
:1002400079FA291C061C504602F074FA011C301C75
:1002500002F0A2FB4146039E7050291C381C02F09C
:1002600069FA189B061C211C181C9A4602F062FAB7
:10027000011C301C02F090FB49468860291C504646
:1002800002F058FA211C051C381C02F053FA011C1C
:10029000281C01F0DDFE494648600820019B4042D1
:1002A0000833844601930823E1449C460E99069A3C
:1002B000049D013912182D180E91E0440692049500
:1002C000002900D020E61D99239A8C46D3009C4437
:1002D00061461D911F9920988C469C4461461F9150
:1002E0001B998C469C44614684461B911100120167
:1002F0009444624620921C9A94469C4462468C46E2
:100300001C924A001E9962448C46D2009444624674
:100310001E921A9A94469C4463461A931D9E1C9FF3
:1003200034683D68201C291C01F092FE291C0190B4
:10033000201C02F031FB74687D688146291C201C5A
:100340001D961C9701F084FE291C8346201C02F098
:1003500023FB1B9C061C6368494698461A9B404633
:100360005F6801F075FE391C02F016FB1A9B2568C8
:100370001B941C680490291C301C02F00DFB211CEE
:1003800001F066FE291C8246019802F005FB211C43
:1003900002F002FB41460690584602F0FDFA391C75
:1003A00002F0FAFA41460890484602F0F5FA391C84
:1003B00001F04EFE311C8046281C01F049FE211C34
:1003C00002F0EAFA0199061C281C01F041FE211CEA
:1003D00001F03EFE1D9D1B9C28606168584601F09F
:1003E00037FE1A9B596801F033FE1F996860049B21
:1003F0000F684D68181C391C9B4602F09BF9291C9C
:10040000041C504602F096F9011C201C01F020FE4D
:100410001B9C391C2060504602F08CF9291C041CDE
:10042000584602F087F9011C201C02F0B5FA1B9C0B
:1004300020996060069B0F684D68181C391C9A460D
:1004400002F078F9089B041C291C181C994602F03C
:1004500071F9011C201C01F0FBFD1C9A391C106075
:10046000484602F067F9291C041C504602F062F964
:10047000011C201C02F090FA1C9A50601E9A404603
:1004800017685568391C02F055F9291C041C301CEA
:1004900002F050F9011C201C01F0DAFD1A9B391CF6
:1004A0001860301C02F046F9291C041C404602F07A
:1004B00041F9011C201C02F06FFA1A9B842258603B
:1004C0006B46229D9B181C886B6821000193019A42
:1004D0000798042300F024FE6B6821000193019A21
:1004E0000598042300F01CFE6B6821000193019A1B
:1004F0000298042300F014FE042321006A68039884
:1005000000F00EFE25B03CBC90469946A246AB4694
:10051000F0BDC046F0B5D6464F464646C0B580460B
:100520000C0091469A460588012A66D080235B001C
:100530009D425DD01AD980231B019D4258D04AD9D3
:1005400080235B019D4206D1424601232900200001
:10055000526800F0E5FD5346002B13D14B46012BAA
:1005600019D01CBC90469946A246F0BD402DEBD058
:100570003AD9802DEFD121004046FFF7CBFA534600
:10058000002BEBD0434620009A68998900F048F888
:100590004B46012BE5D1280002F022FC011CFE2075
:1005A000800501F0EFFE071C002DDAD00026206840
:1005B000391C02F0BFF8802212069446636820605E
:1005C00063441800391C02F0B5F801366060083445
:1005D000B542ECD8C5E780239B009D42B4D0802370
:1005E000DB009D42C7D0B6E7102DC4D0202DB2D17C
:1005F00021004046FFF7DAFBADE70431002D0BD0B8
:1006000000278022120694460B68013763440B6072
:100610000831BD42F5D889E75346002BA1D0B1E798
:10062000F0B5C646884600B500291AD000251488C2
:100630000235A408A40007193B6804349C4653887B
:1006400004199B089B00C618316804333960614661
:10065000C318316026681968043221601E60454560
:10066000E5D304BC9046F0BD70B51D000400049BAA
:1006700082605A1E5218018092002800002104F066
:100680006EFB656070BDC046F0B54E4645465746A8
:10069000DE46E0B5A3B0456886681F90008898469E
:1006A000844620932E4B2C0063449B001F00AC46D5
:1006B000434616956744DD0891461E911992179698
:1006C0001C901897219500D135E3C3081A001B939D
:1006D000072318404B46159353011A001C326244FD
:1006E000B44663441A90139112970E921D93149579
:1006F0001194139B1A6801920199129A116059681A
:10070000516099689160D968D1601969116159691E
:10071000516199699161DB69D361119B1C001A6871
:100720001C3405925A6806929A680792DA68029217
:100730001A6903925A6901929B690F9404931B9B57
:10074000002B00D166E30027179BB946BA469B46AB
:10075000A0460A973E1C09970B973D1C02E0C04635
:10076000FFFFFF3F5B461C6843461B680599201C42
:10077000089301F0DFFF311C01F06AFC06990C9030
:10078000201C01F0D7FF514601F062FC0799824618
:10079000201C01F0CFFF494601F05AFC0299814626
:1007A000201C01F0C7FF0B9901F052FC03990B903C
:1007B000201C01F0BFFF099901F04AFC0199061CB9
:1007C000201C01F0B7FF291C01F042FC0499051C14
:1007D000201C01F0AFFF0A9901F03AFC089909903A
:1007E000201C01F0A7FF391C01F032FC5A46546866
:1007F00042465368071C0593201C069901F09AFF96
:100800000C9901F025FC07990A90201C01F092FF39
:10081000514601F01DFC02998246201C01F08AFF1E
:10082000494601F015FC03998146201C01F082FF26
:100830000B9901F00DFC01990B90201C01F07AFF3F
:10084000311C01F005FC0499061C201C01F072FF0C
:10085000291C01F0FDFB211C051C089801F06AFF12
:10086000099901F0F5FB05990990201C01F062FF40
:10087000391C01F0EDFB5A4694684246926807998C
:10088000071C201C069201F055FF0A9901F0E0FBBD
:1008900002990A90201C01F04DFF514601F0D8FB4F
:1008A00003998246201C01F045FF494601F0D0FB28
:1008B00001998146201C01F03DFF0B9901F0C8FB16
:1008C00004990B90201C01F035FF311C01F0C0FB96
:1008D000211C061C089801F02DFF291C01F0B8FB13
:1008E000211C051C059801F025FF099901F0B0FBBA
:1008F00006990990201C01F01DFF5C46391C01F08F
:10090000A7FB4346E468DB680299071C201C079399
:1009100001F010FF0A9901F09BFB03990A90201C3B
:1009200001F008FF514601F093FB01998246201C1B
:1009300001F000FF494601F08BFB04998146201C21
:1009400001F0F8FE0B9901F083FB211C0B90089835
:1009500001F0F0FE311C01F07BFB211C061C059808
:1009600001F0E8FE291C01F073FB211C051C069810
:1009700001F0E0FE099901F06BFB07990990201C3A
:1009800001F0D8FE5C46391C01F062FB4246246946
:1009900012690399071C201C029201F0CBFE0A99F0
:1009A00001F056FB01990A90201C01F0C3FE51464C
:1009B00001F04EFB04998246201C01F0BBFE494623
:1009C00001F046FB211C8146089801F0B3FE0B990B
:1009D00001F03EFB211C0B90059801F0ABFE311C91
:1009E00001F036FB211C061C069801F0A3FE291C11
:1009F00001F02EFB211C051C079801F09BFE0999B4
:100A000001F026FB02990990201C01F093FE5C4640
:100A1000391C01F01DFB434664695B690199071CA1
:100A2000201C039301F086FE0A9901F011FB049942
:100A30000A90201C01F07EFE514601F009FB211CAA
:100A40008246089801F076FE494601F001FB211C20
:100A50008146059801F06EFE0B9901F0F9FA211C10
:100A60000B90069801F066FE311C01F0F1FA211C92
:100A7000061C079801F05EFE291C01F0E9FA211C12
:100A8000051C029801F056FE099901F0E1FA03995C
:100A90000990201C01F04EFE5C46391C01F0D8FA8A
:100AA0004246A46992690499071C201C019201F036
:100AB00041FE0A9901F0CCFA211C0A90089801F035
:100AC00039FE514601F0C4FA211C8246059801F016
